{"contracts/redpacket/RedPacket.sol":{"RedPacket":{"abi":[{"anonymous":false,"inputs":[{"indexed":false,"internalType":"bytes32","name":"id","type":"bytes32"},{"indexed":false,"internalType":"address","name":"claimer","type":"address"},{"indexed":false,"internalType":"uint256","name":"claimed_value","type":"uint256"},{"indexed":false,"internalType":"address","name":"token_address","type":"address"}],"name":"ClaimSuccess","type":"event"},{"anonymous":false,"inputs":[{"indexed":false,"internalType":"uint256","name":"total","type":"uint256"},{"indexed":false,"internalType":"bytes32","name":"id","type":"bytes32"},{"indexed":false,"internalType":"string","name":"name","type":"string"},{"indexed":false,"internalType":"string","name":"message","type":"string"},{"indexed":false,"internalType":"address","name":"creator","type":"address"},{"indexed":false,"internalType":"uint256","name":"creation_time","type":"uint256"},{"indexed":false,"internalType":"address","name":"token_address","type":"address"},{"indexed":false,"internalType":"uint256","name":"number","type":"uint256"},{"indexed":false,"internalType":"bool","name":"ifrandom","type":"bool"},{"indexed":false,"internalType":"uint256","name":"duration","type":"uint256"}],"name":"CreationSuccess","type":"event"},{"anonymous":false,"inputs":[{"indexed":false,"internalType":"bytes32","name":"id","type":"bytes32"},{"indexed":false,"internalType":"address","name":"token_address","type":"address"},{"indexed":false,"internalType":"uint256","name":"remaining_balance","type":"uint256"}],"name":"RefundSuccess","type":"event"},{"inputs":[{"internalType":"bytes32","name":"id","type":"bytes32"},{"internalType":"bytes32[]","name":"proof","type":"bytes32[]"}],"name":"claim","outputs":[{"internalType":"uint256","name":"claimed","type":"uint256"}],"stateMutability":"nonpayable","type":"function"},{"inputs":[{"internalType":"bytes32","name":"_merkleroot","type":"bytes32"},{"internalType":"uint256","name":"recipient_number","type":"uint256"},{"internalType":"bool","name":"_ifrandom","type":"bool"},{"internalType":"uint256","name":"_duration","type":"uint256"},{"internalType":"bytes32","name":"_seed","type":"bytes32"},{"internalType":"string","name":"_message","type":"string"},{"internalType":"string","name":"_name","type":"string"},{"internalType":"uint256","name":"_token_type","type":"uint256"},{"internalType":"address","name":"_token_addr","type":"address"},{"internalType":"uint256","name":"_total_tokens","type":"uint256"}],"name":"create_redPacked","outputs":[],"stateMutability":"payable","type":"function"},{"inputs":[{"internalType":"bytes32","name":"id","type":"bytes32"}],"name":"getRedpacked","outputs":[{"internalType":"address","name":"token_address","type":"address"},{"internalType":"uint256","name":"balance","type":"uint256"},{"internalType":"uint256","name":"total","type":"uint256"},{"internalType":"uint256","name":"claimed","type":"uint256"},{"internalType":"bool","name":"expired","type":"bool"},{"internalType":"uint256","name":"claimed_amount","type":"uint256"}],"stateMutability":"view","type":"function"},{"inputs":[],"name":"initialize","outputs":[],"stateMutability":"nonpayable","type":"function"},{"inputs":[{"internalType":"bytes32","name":"id","type":"bytes32"}],"name":"refund","outputs":[],"stateMutability":"nonpayable","type":"function"}],"evm":{"bytecode":{"linkReferences":{},"object":"608060405234801561001057600080fd5b50612df1806100206000396000f3fe60806040526004361061004a5760003560e01c806303b093631461004f578063167e91b1146100915780637249fbb6146100ad5780638129fc1c146100d6578063f5c05eb7146100ed575b600080fd5b34801561005b57600080fd5b50610076600480360381019061007191906116eb565b61012a565b6040516100889695949392919061178d565b60405180910390f35b6100ab60048036038101906100a691906119b8565b610221565b005b3480156100b957600080fd5b506100d460048036038101906100cf91906116eb565b61077b565b005b3480156100e257600080fd5b506100eb6109f0565b005b3480156100f957600080fd5b50610114600480360381019061010f9190611b97565b610b03565b6040516101219190611bf3565b60405180910390f35b60008060008060008060006002600089815260200190815260200160002090506000816000016040518060400160405290816000820154815260200160018201548152505090506101828160200151604060a0611010565b610193826000015160806060611010565b6101a4836020015160ef600f611010565b6101b5846020015160e0600f611010565b6101c6856000015160e06020611010565b42118660020160003373ffffffffffffffffffffffffffffffffffffffff1673ffffffffffffffffffffffffffffffffffffffff16815260200190815260200160002054975097509750975097509750505091939550919395565b6000600281819054906101000a900463ffffffff168092919061024390611c4d565b91906101000a81548163ffffffff021916908363ffffffff16021790555050888110156102a5576040517f08c379a000000000000000000000000000000000000000000000000000000000815260040161029c90611cd6565b60405180910390fd5b600089116102e8576040517f08c379a00000000000000000000000000000000000000000000000000000000081526004016102df90611d42565b60405180910390fd5b610100891061032c576040517f08c379a000000000000000000000000000000000000000000000000000000000815260040161032390611dae565b60405180910390fd5b600083148061033b5750600183145b61037a576040517f08c379a000000000000000000000000000000000000000000000000000000000815260040161037190611e1a565b60405180910390fd5b8860018373ffffffffffffffffffffffffffffffffffffffff1663313ce5676040518163ffffffff1660e01b8152600401602060405180830381865afa1580156103c8573d6000803e3d6000fd5b505050506040513d601f19601f820116820180604052508101906103ec9190611e73565b6103f69190611ea0565b600a6104029190612008565b61040c9190612053565b811161044d576040517f08c379a0000000000000000000000000000000000000000000000000000000008152600401610444906120e1565b60405180910390fd5b600080840361049e5781341015610499576040517f08c379a00000000000000000000000000000000000000000000000000000000081526004016104909061214d565b60405180910390fd5b610624565b600184036106235760008373ffffffffffffffffffffffffffffffffffffffff166370a08231306040518263ffffffff1660e01b81526004016104e1919061216d565b602060405180830381865afa1580156104fe573d6000803e3d6000fd5b505050506040513d601f19601f82011682018060405250810190610522919061219d565b90506105513330858773ffffffffffffffffffffffffffffffffffffffff16611070909392919063ffffffff16565b60008473ffffffffffffffffffffffffffffffffffffffff166370a08231306040518263ffffffff1660e01b815260040161058c919061216d565b602060405180830381865afa1580156105a9573d6000803e3d6000fd5b505050506040513d601f19601f820116820180604052508101906105cd919061219d565b905081816105db91906121ca565b925083831015610620576040517f08c379a00000000000000000000000000000000000000000000000000000000081526004016106179061214d565b60405180910390fd5b50505b5b60003342600060029054906101000a900463ffffffff166001548b6040516020016106539594939291906122be565b60405160208183030381529060405280519060200120905060008a61067957600061067c565b60015b60ff16905060006002600084815260200190815260200160002090506106a2848c6110f9565b81600001600001819055506106b9868e8985611137565b81600001600101819055508d8160030181905550338160040160006101000a81548173ffffffffffffffffffffffffffffffffffffffff021916908373ffffffffffffffffffffffffffffffffffffffff160217905550505060008b905060008b905060008b90507f86af556fd7cfab9462285ad44f2d5913527c539ff549f74731ca9997ca53401885858b8d33428d8a8a8a6040516107629a9998979695949392919061239a565b60405180910390a1505050505050505050505050505050565b600060026000838152602001908152602001600020905060008160000160405180604001604052908160008201548152602001600182015481525050905060008260040160009054906101000a900473ffffffffffffffffffffffffffffffffffffffff1690503373ffffffffffffffffffffffffffffffffffffffff168173ffffffffffffffffffffffffffffffffffffffff1614610850576040517f08c379a000000000000000000000000000000000000000000000000000000000815260040161084790612490565b60405180910390fd5b42610862836000015160e06020611010565b11156108a3576040517f08c379a000000000000000000000000000000000000000000000000000000000815260040161089a906124fc565b60405180910390fd5b60006108b6836000015160806060611010565b9050600081036108fb576040517f08c379a00000000000000000000000000000000000000000000000000000000081526004016108f290612568565b60405180910390fd5b600061090e846020015160fe6001611010565b905060006109238560200151604060a0611010565b905061093885600001516080606060006111b6565b866000016000018190555060008203610997573373ffffffffffffffffffffffffffffffffffffffff166108fc849081150290604051600060405180830381858888f19350505050158015610991573d6000803e3d6000fd5b506109ac565b600182036109ab576109aa8133856111d1565b5b5b7f66c304c539e0bc7c8070207c09b9f6a5a9591b434dfed1867cc57fde7fb600938782856040516109df93929190612588565b60405180910390a150505050505050565b600060019054906101000a900460ff16610a185760008054906101000a900460ff1615610a21565b610a20611201565b5b610a60576040517f08c379a0000000000000000000000000000000000000000000000000000000008152600401610a5790612631565b60405180910390fd5b60008060019054906101000a900460ff161590508015610ab0576001600060016101000a81548160ff02191690831515021790555060016000806101000a81548160ff0219169083151502179055505b4233604051602001610ac39291906126a8565b604051602081830303815290604052805190602001206001819055508015610b005760008060016101000a81548160ff0219169083151502179055505b50565b60008060026000858152602001908152602001600020905060008160000160405180604001604052908160008201548152602001600182015481525050905042610b54826000015160e06020611010565b11610b94576040517f08c379a0000000000000000000000000000000000000000000000000000000008152600401610b8b9061272b565b60405180910390fd5b6000610ba7826020015160ef600f611010565b90506000610bbc836020015160e0600f611010565b9050818110610c00576040517f08c379a0000000000000000000000000000000000000000000000000000000008152600401610bf790612797565b60405180910390fd5b600084600301549050610c1c8782610c1733611212565b611242565b610c5b576040517f08c379a0000000000000000000000000000000000000000000000000000000008152600401610c5290612803565b60405180910390fd5b600080610c6f866020015160fe6001611010565b90506000610c84876020015160ff6001611010565b90506000610c99886000015160806060611010565b90506000610cae8960200151604060a0611010565b9050600060018273ffffffffffffffffffffffffffffffffffffffff1663313ce5676040518163ffffffff1660e01b8152600401602060405180830381865afa158015610cff573d6000803e3d6000fd5b505050506040513d601f19601f82011682018060405250810190610d239190611e73565b610d2d9190611ea0565b600a610d399190612008565b905060018403610e05576001888a610d5191906121ca565b03610d5e57829550610e00565b600081898b610d6d91906121ca565b610d779190612053565b905060008185610d8791906121ca565b9050898b610d9591906121ca565b600282610da29190612053565b610dac9190612852565b610dca600154600060029054906101000a900463ffffffff16611259565b610dd49190612883565b9750828810610df9578288610de99190612883565b88610df491906121ca565b610dfb565b825b975050505b610e3b565b6001888a610e1391906121ca565b03610e2057829550610e3a565b8789610e2c91906121ca565b83610e379190612852565b95505b5b610e588a60000151608060608987610e5391906121ca565b6111b6565b8b6000016000018190555060008b60020160003373ffffffffffffffffffffffffffffffffffffffff1673ffffffffffffffffffffffffffffffffffffffff1681526020019081526020016000205414610ee7576040517f08c379a0000000000000000000000000000000000000000000000000000000008152600401610ede90612900565b60405180910390fd5b858b60020160003373ffffffffffffffffffffffffffffffffffffffff1673ffffffffffffffffffffffffffffffffffffffff16815260200190815260200160002081905550610f4b8a6020015160e0600f60018c610f469190612920565b6111b6565b8b6000016001018190555060008503610faa573373ffffffffffffffffffffffffffffffffffffffff166108fc879081150290604051600060405180830381858888f19350505050158015610fa4573d6000803e3d6000fd5b50610fbf565b60018503610fbe57610fbd8233886111d1565b5b5b7f358ddd686a5ca3ef6f8aee9b8d2dc3c642ecc278657c3802f8802b1a44c10e448e338885604051610ff49493929190612954565b60405180910390a1859b50505050505050505050505092915050565b600061101e6101008561129f565b61105d576040517f08c379a0000000000000000000000000000000000000000000000000000000008152600401611054906129e5565b60405180910390fd5b83831c600180841b031690509392505050565b6110f3846323b872dd60e01b85858560405160240161109193929190612a05565b604051602081830303815290604052907bffffffffffffffffffffffffffffffffffffffffffffffffffffffff19166020820180517bffffffffffffffffffffffffffffffffffffffffffffffffffffffff83818316178352505050506112b5565b50505050565b6000806000905061110d608060608661137c565b8117905061112960e0602085426111249190612920565b61137c565b811790508091505092915050565b60008060009050611161604060a08873ffffffffffffffffffffffffffffffffffffffff1661137c565b8117905061117360e0600f600061137c565b8117905061118460ef600f8761137c565b8117905061119560fe60018661137c565b811790506111a660ff60018561137c565b8117905080915050949350505050565b600081841b600180851b03851b198616179050949350505050565b6111fc82828573ffffffffffffffffffffffffffffffffffffffff166113d39092919063ffffffff16565b505050565b600061120c30611459565b15905090565b6000816040516020016112259190612a3c565b604051602081830303815290604052805190602001209050919050565b60008261124f858461147c565b1490509392505050565b60006001823385426040516020016112749493929190612a57565b6040516020818303038152906040528051906020012060001c6112979190612920565b905092915050565b6000816001841b11610100841417905092915050565b6000611317826040518060400160405280602081526020017f5361666545524332303a206c6f772d6c6576656c2063616c6c206661696c65648152508573ffffffffffffffffffffffffffffffffffffffff166114cc9092919063ffffffff16565b905060008151111561137757808060200190518101906113379190612aba565b611376576040517f08c379a000000000000000000000000000000000000000000000000000000000815260040161136d90612b59565b60405180910390fd5b5b505050565b6000611388838361129f565b6113c7576040517f08c379a00000000000000000000000000000000000000000000000000000000081526004016113be90612bc5565b60405180910390fd5b81841b90509392505050565b6114548363a9059cbb60e01b84846040516024016113f2929190612be5565b604051602081830303815290604052907bffffffffffffffffffffffffffffffffffffffffffffffffffffffff19166020820180517bffffffffffffffffffffffffffffffffffffffffffffffffffffffff83818316178352505050506112b5565b505050565b6000808273ffffffffffffffffffffffffffffffffffffffff163b119050919050565b60008082905060005b84518110156114c1576114b2828683815181106114a5576114a4612c0e565b5b60200260200101516114e4565b91508080600101915050611485565b508091505092915050565b60606114db848460008561150f565b90509392505050565b60008183106114fc576114f78284611623565b611507565b6115068383611623565b5b905092915050565b606082471015611554576040517f08c379a000000000000000000000000000000000000000000000000000000000815260040161154b90612caf565b60405180910390fd5b61155d85611459565b61159c576040517f08c379a000000000000000000000000000000000000000000000000000000000815260040161159390612d1b565b60405180910390fd5b6000808673ffffffffffffffffffffffffffffffffffffffff1685876040516115c59190612d82565b60006040518083038185875af1925050503d8060008114611602576040519150601f19603f3d011682016040523d82523d6000602084013e611607565b606091505b509150915061161782828661163a565b92505050949350505050565b600082600052816020526040600020905092915050565b6060831561164a5782905061169a565b60008351111561165d5782518084602001fd5b816040517f08c379a00000000000000000000000000000000000000000000000000000000081526004016116919190612d99565b60405180910390fd5b9392505050565b6000604051905090565b600080fd5b600080fd5b6000819050919050565b6116c8816116b5565b81146116d357600080fd5b50565b6000813590506116e5816116bf565b92915050565b600060208284031215611701576117006116ab565b5b600061170f848285016116d6565b91505092915050565b600073ffffffffffffffffffffffffffffffffffffffff82169050919050565b600061174382611718565b9050919050565b61175381611738565b82525050565b6000819050919050565b61176c81611759565b82525050565b60008115159050919050565b61178781611772565b82525050565b600060c0820190506117a2600083018961174a565b6117af6020830188611763565b6117bc6040830187611763565b6117c96060830186611763565b6117d6608083018561177e565b6117e360a0830184611763565b979650505050505050565b6117f781611759565b811461180257600080fd5b50565b600081359050611814816117ee565b92915050565b61182381611772565b811461182e57600080fd5b50565b6000813590506118408161181a565b92915050565b600080fd5b600080fd5b6000601f19601f8301169050919050565b7f4e487b7100000000000000000000000000000000000000000000000000000000600052604160045260246000fd5b61189982611850565b810181811067ffffffffffffffff821117156118b8576118b7611861565b5b80604052505050565b60006118cb6116a1565b90506118d78282611890565b919050565b600067ffffffffffffffff8211156118f7576118f6611861565b5b61190082611850565b9050602081019050919050565b82818337600083830152505050565b600061192f61192a846118dc565b6118c1565b90508281526020810184848401111561194b5761194a61184b565b5b61195684828561190d565b509392505050565b600082601f83011261197357611972611846565b5b813561198384826020860161191c565b91505092915050565b61199581611738565b81146119a057600080fd5b50565b6000813590506119b28161198c565b92915050565b6000806000806000806000806000806101408b8d0312156119dc576119db6116ab565b5b60006119ea8d828e016116d6565b9a505060206119fb8d828e01611805565b9950506040611a0c8d828e01611831565b9850506060611a1d8d828e01611805565b9750506080611a2e8d828e016116d6565b96505060a08b013567ffffffffffffffff811115611a4f57611a4e6116b0565b5b611a5b8d828e0161195e565b95505060c08b013567ffffffffffffffff811115611a7c57611a7b6116b0565b5b611a888d828e0161195e565b94505060e0611a998d828e01611805565b935050610100611aab8d828e016119a3565b925050610120611abd8d828e01611805565b9150509295989b9194979a5092959850565b600067ffffffffffffffff821115611aea57611ae9611861565b5b602082029050602081019050919050565b600080fd5b6000611b13611b0e84611acf565b6118c1565b90508083825260208201905060208402830185811115611b3657611b35611afb565b5b835b81811015611b5f5780611b4b88826116d6565b845260208401935050602081019050611b38565b5050509392505050565b600082601f830112611b7e57611b7d611846565b5b8135611b8e848260208601611b00565b91505092915050565b60008060408385031215611bae57611bad6116ab565b5b6000611bbc858286016116d6565b925050602083013567ffffffffffffffff811115611bdd57611bdc6116b0565b5b611be985828601611b69565b9150509250929050565b6000602082019050611c086000830184611763565b92915050565b7f4e487b7100000000000000000000000000000000000000000000000000000000600052601160045260246000fd5b600063ffffffff82169050919050565b6000611c5882611c3d565b915063ffffffff8203611c6e57611c6d611c0e565b5b600182019050919050565b600082825260208201905092915050565b7f746f6b656e73203e20726563697069656e745f6e756d62657200000000000000600082015250565b6000611cc0601983611c79565b9150611ccb82611c8a565b602082019050919050565b60006020820190508181036000830152611cef81611cb3565b9050919050565b7f4174206c65617374203120726563697069656e74000000000000000000000000600082015250565b6000611d2c601483611c79565b9150611d3782611cf6565b602082019050919050565b60006020820190508181036000830152611d5b81611d1f565b9050919050565b7f4174206d6f73742032353520726563697069656e747300000000000000000000600082015250565b6000611d98601683611c79565b9150611da382611d62565b602082019050919050565b60006020820190508181036000830152611dc781611d8b565b9050919050565b7f556e7265636f676e697a61626c6520746f6b656e207479706500000000000000600082015250565b6000611e04601983611c79565b9150611e0f82611dce565b602082019050919050565b60006020820190508181036000830152611e3381611df7565b9050919050565b600060ff82169050919050565b611e5081611e3a565b8114611e5b57600080fd5b50565b600081519050611e6d81611e47565b92915050565b600060208284031215611e8957611e886116ab565b5b6000611e9784828501611e5e565b91505092915050565b6000611eab82611e3a565b9150611eb683611e3a565b9250828203905060ff811115611ecf57611ece611c0e565b5b92915050565b60008160011c9050919050565b6000808291508390505b6001851115611f2c57808604811115611f0857611f07611c0e565b5b6001851615611f175780820291505b8081029050611f2585611ed5565b9450611eec565b94509492505050565b600082611f455760019050612001565b81611f535760009050612001565b8160018114611f695760028114611f7357611fa2565b6001915050612001565b60ff841115611f8557611f84611c0e565b5b8360020a915084821115611f9c57611f9b611c0e565b5b50612001565b5060208310610133831016604e8410600b8410161715611fd75782820a905083811115611fd257611fd1611c0e565b5b612001565b611fe48484846001611ee2565b92509050818404811115611ffb57611ffa611c0e565b5b81810290505b9392505050565b600061201382611759565b915061201e83611e3a565b925061204b7fffffffffffffffffffffffffffffffffffffffffffffffffffffffffffffffff8484611f35565b905092915050565b600061205e82611759565b915061206983611759565b925082820261207781611759565b9150828204841483151761208e5761208d611c0e565b5b5092915050565b7f4174206c6561737420302e3120666f7220656163682075736572000000000000600082015250565b60006120cb601a83611c79565b91506120d682612095565b602082019050919050565b600060208201905081810360008301526120fa816120be565b9050919050565b7f4e6f20656e6f7567682045544800000000000000000000000000000000000000600082015250565b6000612137600d83611c79565b915061214282612101565b602082019050919050565b600060208201905081810360008301526121668161212a565b9050919050565b6000602082019050612182600083018461174a565b92915050565b600081519050612197816117ee565b92915050565b6000602082840312156121b3576121b26116ab565b5b60006121c184828501612188565b91505092915050565b60006121d582611759565b91506121e083611759565b92508282039050818111156121f8576121f7611c0e565b5b92915050565b60008160601b9050919050565b6000612216826121fe565b9050919050565b60006122288261220b565b9050919050565b61224061223b82611738565b61221d565b82525050565b6000819050919050565b61226161225c82611759565b612246565b82525050565b60008160e01b9050919050565b600061227f82612267565b9050919050565b61229761229282611c3d565b612274565b82525050565b6000819050919050565b6122b86122b3826116b5565b61229d565b82525050565b60006122ca828861222f565b6014820191506122da8287612250565b6020820191506122ea8286612286565b6004820191506122fa82856122a7565b60208201915061230a82846122a7565b6020820191508190509695505050505050565b612326816116b5565b82525050565b600081519050919050565b60005b8381101561235557808201518184015260208101905061233a565b60008484015250505050565b600061236c8261232c565b6123768185611c79565b9350612386818560208601612337565b61238f81611850565b840191505092915050565b6000610140820190506123b0600083018d611763565b6123bd602083018c61231d565b81810360408301526123cf818b612361565b905081810360608301526123e3818a612361565b90506123f2608083018961174a565b6123ff60a0830188611763565b61240c60c083018761174a565b61241960e0830186611763565b61242761010083018561177e565b612435610120830184611763565b9b9a5050505050505050505050565b7f5265647061636b6564204f776e6572204f6e6c79000000000000000000000000600082015250565b600061247a601483611c79565b915061248582612444565b602082019050919050565b600060208201905081810360008301526124a98161246d565b9050919050565b7f4e6f742065787069726564207965740000000000000000000000000000000000600082015250565b60006124e6600f83611c79565b91506124f1826124b0565b602082019050919050565b60006020820190508181036000830152612515816124d9565b9050919050565b7f4e6f6e65206c65667420696e2074686520726564207061636b65740000000000600082015250565b6000612552601b83611c79565b915061255d8261251c565b602082019050919050565b6000602082019050818103600083015261258181612545565b9050919050565b600060608201905061259d600083018661231d565b6125aa602083018561174a565b6125b76040830184611763565b949350505050565b7f496e697469616c697a61626c653a20636f6e747261637420697320616c72656160008201527f647920696e697469616c697a6564000000000000000000000000000000000000602082015250565b600061261b602e83611c79565b9150612626826125bf565b604082019050919050565b6000602082019050818103600083015261264a8161260e565b9050919050565b600081905092915050565b7f205265647061636b657420000000000000000000000000000000000000000000600082015250565b6000612692600b83612651565b915061269d8261265c565b600b82019050919050565b60006126b382612685565b91506126bf8285612250565b6020820191506126cf828461222f565b6014820191508190509392505050565b7f4578706972656400000000000000000000000000000000000000000000000000600082015250565b6000612715600783611c79565b9150612720826126df565b602082019050919050565b6000602082019050818103600083015261274481612708565b9050919050565b7f4f7574206f662073746f636b0000000000000000000000000000000000000000600082015250565b6000612781600c83611c79565b915061278c8261274b565b602082019050919050565b600060208201905081810360008301526127b081612774565b9050919050565b7f566572696669636174696f6e206661696c656400000000000000000000000000600082015250565b60006127ed601383611c79565b91506127f8826127b7565b602082019050919050565b6000602082019050818103600083015261281c816127e0565b9050919050565b7f4e487b7100000000000000000000000000000000000000000000000000000000600052601260045260246000fd5b600061285d82611759565b915061286883611759565b92508261287857612877612823565b5b828204905092915050565b600061288e82611759565b915061289983611759565b9250826128a9576128a8612823565b5b828206905092915050565b7f416c726561647920636c61696d65640000000000000000000000000000000000600082015250565b60006128ea600f83611c79565b91506128f5826128b4565b602082019050919050565b60006020820190508181036000830152612919816128dd565b9050919050565b600061292b82611759565b915061293683611759565b925082820190508082111561294e5761294d611c0e565b5b92915050565b6000608082019050612969600083018761231d565b612976602083018661174a565b6129836040830185611763565b612990606083018461174a565b95945050505050565b7f56616c7565206f7574206f662072616e676520554e424f580000000000000000600082015250565b60006129cf601883611c79565b91506129da82612999565b602082019050919050565b600060208201905081810360008301526129fe816129c2565b9050919050565b6000606082019050612a1a600083018661174a565b612a27602083018561174a565b612a346040830184611763565b949350505050565b6000612a48828461222f565b60148201915081905092915050565b6000612a638287612286565b600482019150612a73828661222f565b601482019150612a8382856122a7565b602082019150612a938284612250565b60208201915081905095945050505050565b600081519050612ab48161181a565b92915050565b600060208284031215612ad057612acf6116ab565b5b6000612ade84828501612aa5565b91505092915050565b7f5361666545524332303a204552433230206f7065726174696f6e20646964206e60008201527f6f74207375636365656400000000000000000000000000000000000000000000602082015250565b6000612b43602a83611c79565b9150612b4e82612ae7565b604082019050919050565b60006020820190508181036000830152612b7281612b36565b9050919050565b7f56616c7565206f7574206f662072616e676520424f5800000000000000000000600082015250565b6000612baf601683611c79565b9150612bba82612b79565b602082019050919050565b60006020820190508181036000830152612bde81612ba2565b9050919050565b6000604082019050612bfa600083018561174a565b612c076020830184611763565b9392505050565b7f4e487b7100000000000000000000000000000000000000000000000000000000600052603260045260246000fd5b7f416464726573733a20696e73756666696369656e742062616c616e636520666f60008201527f722063616c6c0000000000000000000000000000000000000000000000000000602082015250565b6000612c99602683611c79565b9150612ca482612c3d565b604082019050919050565b60006020820190508181036000830152612cc881612c8c565b9050919050565b7f416464726573733a2063616c6c20746f206e6f6e2d636f6e7472616374000000600082015250565b6000612d05601d83611c79565b9150612d1082612ccf565b602082019050919050565b60006020820190508181036000830152612d3481612cf8565b9050919050565b600081519050919050565b600081905092915050565b6000612d5c82612d3b565b612d668185612d46565b9350612d76818560208601612337565b80840191505092915050565b6000612d8e8284612d51565b915081905092915050565b60006020820190508181036000830152612db38184612361565b90509291505056fea264697066735822122092cc986338c07e074cca53602637b8202fa9ab98cb9a0ac8ba839593905c554f64736f6c63430008180033","opcodes":"PUSH1 0x80 PUSH1 0x40 MSTORE CALLVALUE DUP1 ISZERO PUSH2 0x10 JUMPI PUSH1 0x0 DUP1 REVERT JUMPDEST POP PUSH2 0x2DF1 DUP1 PUSH2 0x20 PUSH1 0x0 CODECOPY PUSH1 0x0 RETURN INVALID PUSH1 0x80 PUSH1 0x40 MSTORE PUSH1 0x4 CALLDATASIZE LT PUSH2 0x4A JUMPI PUSH1 0x0 CALLDATALOAD PUSH1 0xE0 SHR DUP1 PUSH4 0x3B09363 EQ PUSH2 0x4F JUMPI DUP1 PUSH4 0x167E91B1 EQ PUSH2 0x91 JUMPI DUP1 PUSH4 0x7249FBB6 EQ PUSH2 0xAD JUMPI DUP1 PUSH4 0x8129FC1C EQ PUSH2 0xD6 JUMPI DUP1 PUSH4 0xF5C05EB7 EQ PUSH2 0xED JUMPI JUMPDEST PUSH1 0x0 DUP1 REVERT JUMPDEST CALLVALUE DUP1 ISZERO PUSH2 0x5B JUMPI PUSH1 0x0 DUP1 REVERT JUMPDEST POP PUSH2 0x76 PUSH1 0x4 DUP1 CALLDATASIZE SUB DUP2 ADD SWAP1 PUSH2 0x71 SWAP2 SWAP1 PUSH2 0x16EB JUMP JUMPDEST PUSH2 0x12A JUMP JUMPDEST PUSH1 0x40 MLOAD PUSH2 0x88 SWAP7 SWAP6 SWAP5 SWAP4 SWAP3 SWAP2 SWAP1 PUSH2 0x178D JUMP JUMPDEST PUSH1 0x40 MLOAD DUP1 SWAP2 SUB SWAP1 RETURN JUMPDEST PUSH2 0xAB PUSH1 0x4 DUP1 CALLDATASIZE SUB DUP2 ADD SWAP1 PUSH2 0xA6 SWAP2 SWAP1 PUSH2 0x19B8 JUMP JUMPDEST PUSH2 0x221 JUMP JUMPDEST STOP JUMPDEST CALLVALUE DUP1 ISZERO PUSH2 0xB9 JUMPI PUSH1 0x0 DUP1 REVERT JUMPDEST POP PUSH2 0xD4 PUSH1 0x4 DUP1 CALLDATASIZE SUB DUP2 ADD SWAP1 PUSH2 0xCF SWAP2 SWAP1 PUSH2 0x16EB JUMP JUMPDEST PUSH2 0x77B JUMP JUMPDEST STOP JUMPDEST CALLVALUE DUP1 ISZERO PUSH2 0xE2 JUMPI PUSH1 0x0 DUP1 REVERT JUMPDEST POP PUSH2 0xEB PUSH2 0x9F0 JUMP JUMPDEST STOP JUMPDEST CALLVALUE DUP1 ISZERO PUSH2 0xF9 JUMPI PUSH1 0x0 DUP1 REVERT JUMPDEST POP PUSH2 0x114 PUSH1 0x4 DUP1 CALLDATASIZE SUB DUP2 ADD SWAP1 PUSH2 0x10F SWAP2 SWAP1 PUSH2 0x1B97 JUMP JUMPDEST PUSH2 0xB03 JUMP JUMPDEST PUSH1 0x40 MLOAD PUSH2 0x121 SWAP2 SWAP1 PUSH2 0x1BF3 JUMP JUMPDEST PUSH1 0x40 MLOAD DUP1 SWAP2 SUB SWAP1 RETURN JUMPDEST PUSH1 0x0 DUP1 PUSH1 0x0 DUP1 PUSH1 0x0 DUP1 PUSH1 0x0 PUSH1 0x2 PUSH1 0x0 DUP10 DUP2 MSTORE PUSH1 0x20 ADD SWAP1 DUP2 MSTORE PUSH1 0x20 ADD PUSH1 0x0 KECCAK256 SWAP1 POP PUSH1 0x0 DUP2 PUSH1 0x0 ADD PUSH1 0x40 MLOAD DUP1 PUSH1 0x40 ADD PUSH1 0x40 MSTORE SWAP1 DUP2 PUSH1 0x0 DUP3 ADD SLOAD DUP2 MSTORE PUSH1 0x20 ADD PUSH1 0x1 DUP3 ADD SLOAD DUP2 MSTORE POP POP SWAP1 POP PUSH2 0x182 DUP2 PUSH1 0x20 ADD MLOAD PUSH1 0x40 PUSH1 0xA0 PUSH2 0x1010 JUMP JUMPDEST PUSH2 0x193 DUP3 PUSH1 0x0 ADD MLOAD PUSH1 0x80 PUSH1 0x60 PUSH2 0x1010 JUMP JUMPDEST PUSH2 0x1A4 DUP4 PUSH1 0x20 ADD MLOAD PUSH1 0xEF PUSH1 0xF PUSH2 0x1010 JUMP JUMPDEST PUSH2 0x1B5 DUP5 PUSH1 0x20 ADD MLOAD PUSH1 0xE0 PUSH1 0xF PUSH2 0x1010 JUMP JUMPDEST PUSH2 0x1C6 DUP6 PUSH1 0x0 ADD MLOAD PUSH1 0xE0 PUSH1 0x20 PUSH2 0x1010 JUMP JUMPDEST TIMESTAMP GT DUP7 PUSH1 0x2 ADD PUSH1 0x0 CALLER PUSH20 0xFFFFFFFFFFFFFFFFFFFFFFFFFFFFFFFFFFFFFFFF AND PUSH20 0xFFFFFFFFFFFFFFFFFFFFFFFFFFFFFFFFFFFFFFFF AND DUP2 MSTORE PUSH1 0x20 ADD SWAP1 DUP2 MSTORE PUSH1 0x20 ADD PUSH1 0x0 KECCAK256 SLOAD SWAP8 POP SWAP8 POP SWAP8 POP SWAP8 POP SWAP8 POP SWAP8 POP POP POP SWAP2 SWAP4 SWAP6 POP SWAP2 SWAP4 SWAP6 JUMP JUMPDEST PUSH1 0x0 PUSH1 0x2 DUP2 DUP2 SWAP1 SLOAD SWAP1 PUSH2 0x100 EXP SWAP1 DIV PUSH4 0xFFFFFFFF AND DUP1 SWAP3 SWAP2 SWAP1 PUSH2 0x243 SWAP1 PUSH2 0x1C4D JUMP JUMPDEST SWAP2 SWAP1 PUSH2 0x100 EXP DUP2 SLOAD DUP2 PUSH4 0xFFFFFFFF MUL NOT AND SWAP1 DUP4 PUSH4 0xFFFFFFFF AND MUL OR SWAP1 SSTORE POP POP DUP9 DUP2 LT ISZERO PUSH2 0x2A5 JUMPI PUSH1 0x40 MLOAD PUSH32 0x8C379A000000000000000000000000000000000000000000000000000000000 DUP2 MSTORE PUSH1 0x4 ADD PUSH2 0x29C SWAP1 PUSH2 0x1CD6 JUMP JUMPDEST PUSH1 0x40 MLOAD DUP1 SWAP2 SUB SWAP1 REVERT JUMPDEST PUSH1 0x0 DUP10 GT PUSH2 0x2E8 JUMPI PUSH1 0x40 MLOAD PUSH32 0x8C379A000000000000000000000000000000000000000000000000000000000 DUP2 MSTORE PUSH1 0x4 ADD PUSH2 0x2DF SWAP1 PUSH2 0x1D42 JUMP JUMPDEST PUSH1 0x40 MLOAD DUP1 SWAP2 SUB SWAP1 REVERT JUMPDEST PUSH2 0x100 DUP10 LT PUSH2 0x32C JUMPI PUSH1 0x40 MLOAD PUSH32 0x8C379A000000000000000000000000000000000000000000000000000000000 DUP2 MSTORE PUSH1 0x4 ADD PUSH2 0x323 SWAP1 PUSH2 0x1DAE JUMP JUMPDEST PUSH1 0x40 MLOAD DUP1 SWAP2 SUB SWAP1 REVERT JUMPDEST PUSH1 0x0 DUP4 EQ DUP1 PUSH2 0x33B JUMPI POP PUSH1 0x1 DUP4 EQ JUMPDEST PUSH2 0x37A JUMPI PUSH1 0x40 MLOAD PUSH32 0x8C379A000000000000000000000000000000000000000000000000000000000 DUP2 MSTORE PUSH1 0x4 ADD PUSH2 0x371 SWAP1 PUSH2 0x1E1A JUMP JUMPDEST PUSH1 0x40 MLOAD DUP1 SWAP2 SUB SWAP1 REVERT JUMPDEST DUP9 PUSH1 0x1 DUP4 PUSH20 0xFFFFFFFFFFFFFFFFFFFFFFFFFFFFFFFFFFFFFFFF AND PUSH4 0x313CE567 PUSH1 0x40 MLOAD DUP2 PUSH4 0xFFFFFFFF AND PUSH1 0xE0 SHL DUP2 MSTORE PUSH1 0x4 ADD PUSH1 0x20 PUSH1 0x40 MLOAD DUP1 DUP4 SUB DUP2 DUP7 GAS STATICCALL ISZERO DUP1 ISZERO PUSH2 0x3C8 JUMPI RETURNDATASIZE PUSH1 0x0 DUP1 RETURNDATACOPY RETURNDATASIZE PUSH1 0x0 REVERT JUMPDEST POP POP POP POP PUSH1 0x40 MLOAD RETURNDATASIZE PUSH1 0x1F NOT PUSH1 0x1F DUP3 ADD AND DUP3 ADD DUP1 PUSH1 0x40 MSTORE POP DUP2 ADD SWAP1 PUSH2 0x3EC SWAP2 SWAP1 PUSH2 0x1E73 JUMP JUMPDEST PUSH2 0x3F6 SWAP2 SWAP1 PUSH2 0x1EA0 JUMP JUMPDEST PUSH1 0xA PUSH2 0x402 SWAP2 SWAP1 PUSH2 0x2008 JUMP JUMPDEST PUSH2 0x40C SWAP2 SWAP1 PUSH2 0x2053 JUMP JUMPDEST DUP2 GT PUSH2 0x44D JUMPI PUSH1 0x40 MLOAD PUSH32 0x8C379A000000000000000000000000000000000000000000000000000000000 DUP2 MSTORE PUSH1 0x4 ADD PUSH2 0x444 SWAP1 PUSH2 0x20E1 JUMP JUMPDEST PUSH1 0x40 MLOAD DUP1 SWAP2 SUB SWAP1 REVERT JUMPDEST PUSH1 0x0 DUP1 DUP5 SUB PUSH2 0x49E JUMPI DUP2 CALLVALUE LT ISZERO PUSH2 0x499 JUMPI PUSH1 0x40 MLOAD PUSH32 0x8C379A000000000000000000000000000000000000000000000000000000000 DUP2 MSTORE PUSH1 0x4 ADD PUSH2 0x490 SWAP1 PUSH2 0x214D JUMP JUMPDEST PUSH1 0x40 MLOAD DUP1 SWAP2 SUB SWAP1 REVERT JUMPDEST PUSH2 0x624 JUMP JUMPDEST PUSH1 0x1 DUP5 SUB PUSH2 0x623 JUMPI PUSH1 0x0 DUP4 PUSH20 0xFFFFFFFFFFFFFFFFFFFFFFFFFFFFFFFFFFFFFFFF AND PUSH4 0x70A08231 ADDRESS PUSH1 0x40 MLOAD DUP3 PUSH4 0xFFFFFFFF AND PUSH1 0xE0 SHL DUP2 MSTORE PUSH1 0x4 ADD PUSH2 0x4E1 SWAP2 SWAP1 PUSH2 0x216D JUMP JUMPDEST PUSH1 0x20 PUSH1 0x40 MLOAD DUP1 DUP4 SUB DUP2 DUP7 GAS STATICCALL ISZERO DUP1 ISZERO PUSH2 0x4FE JUMPI RETURNDATASIZE PUSH1 0x0 DUP1 RETURNDATACOPY RETURNDATASIZE PUSH1 0x0 REVERT JUMPDEST POP POP POP POP PUSH1 0x40 MLOAD RETURNDATASIZE PUSH1 0x1F NOT PUSH1 0x1F DUP3 ADD AND DUP3 ADD DUP1 PUSH1 0x40 MSTORE POP DUP2 ADD SWAP1 PUSH2 0x522 SWAP2 SWAP1 PUSH2 0x219D JUMP JUMPDEST SWAP1 POP PUSH2 0x551 CALLER ADDRESS DUP6 DUP8 PUSH20 0xFFFFFFFFFFFFFFFFFFFFFFFFFFFFFFFFFFFFFFFF AND PUSH2 0x1070 SWAP1 SWAP4 SWAP3 SWAP2 SWAP1 PUSH4 0xFFFFFFFF AND JUMP JUMPDEST PUSH1 0x0 DUP5 PUSH20 0xFFFFFFFFFFFFFFFFFFFFFFFFFFFFFFFFFFFFFFFF AND PUSH4 0x70A08231 ADDRESS PUSH1 0x40 MLOAD DUP3 PUSH4 0xFFFFFFFF AND PUSH1 0xE0 SHL DUP2 MSTORE PUSH1 0x4 ADD PUSH2 0x58C SWAP2 SWAP1 PUSH2 0x216D JUMP JUMPDEST PUSH1 0x20 PUSH1 0x40 MLOAD DUP1 DUP4 SUB DUP2 DUP7 GAS STATICCALL ISZERO DUP1 ISZERO PUSH2 0x5A9 JUMPI RETURNDATASIZE PUSH1 0x0 DUP1 RETURNDATACOPY RETURNDATASIZE PUSH1 0x0 REVERT JUMPDEST POP POP POP POP PUSH1 0x40 MLOAD RETURNDATASIZE PUSH1 0x1F NOT PUSH1 0x1F DUP3 ADD AND DUP3 ADD DUP1 PUSH1 0x40 MSTORE POP DUP2 ADD SWAP1 PUSH2 0x5CD SWAP2 SWAP1 PUSH2 0x219D JUMP JUMPDEST SWAP1 POP DUP2 DUP2 PUSH2 0x5DB SWAP2 SWAP1 PUSH2 0x21CA JUMP JUMPDEST SWAP3 POP DUP4 DUP4 LT ISZERO PUSH2 0x620 JUMPI PUSH1 0x40 MLOAD PUSH32 0x8C379A000000000000000000000000000000000000000000000000000000000 DUP2 MSTORE PUSH1 0x4 ADD PUSH2 0x617 SWAP1 PUSH2 0x214D JUMP JUMPDEST PUSH1 0x40 MLOAD DUP1 SWAP2 SUB SWAP1 REVERT JUMPDEST POP POP JUMPDEST JUMPDEST PUSH1 0x0 CALLER TIMESTAMP PUSH1 0x0 PUSH1 0x2 SWAP1 SLOAD SWAP1 PUSH2 0x100 EXP SWAP1 DIV PUSH4 0xFFFFFFFF AND PUSH1 0x1 SLOAD DUP12 PUSH1 0x40 MLOAD PUSH1 0x20 ADD PUSH2 0x653 SWAP6 SWAP5 SWAP4 SWAP3 SWAP2 SWAP1 PUSH2 0x22BE JUMP JUMPDEST PUSH1 0x40 MLOAD PUSH1 0x20 DUP2 DUP4 SUB SUB DUP2 MSTORE SWAP1 PUSH1 0x40 MSTORE DUP1 MLOAD SWAP1 PUSH1 0x20 ADD KECCAK256 SWAP1 POP PUSH1 0x0 DUP11 PUSH2 0x679 JUMPI PUSH1 0x0 PUSH2 0x67C JUMP JUMPDEST PUSH1 0x1 JUMPDEST PUSH1 0xFF AND SWAP1 POP PUSH1 0x0 PUSH1 0x2 PUSH1 0x0 DUP5 DUP2 MSTORE PUSH1 0x20 ADD SWAP1 DUP2 MSTORE PUSH1 0x20 ADD PUSH1 0x0 KECCAK256 SWAP1 POP PUSH2 0x6A2 DUP5 DUP13 PUSH2 0x10F9 JUMP JUMPDEST DUP2 PUSH1 0x0 ADD PUSH1 0x0 ADD DUP2 SWAP1 SSTORE POP PUSH2 0x6B9 DUP7 DUP15 DUP10 DUP6 PUSH2 0x1137 JUMP JUMPDEST DUP2 PUSH1 0x0 ADD PUSH1 0x1 ADD DUP2 SWAP1 SSTORE POP DUP14 DUP2 PUSH1 0x3 ADD DUP2 SWAP1 SSTORE POP CALLER DUP2 PUSH1 0x4 ADD PUSH1 0x0 PUSH2 0x100 EXP DUP2 SLOAD DUP2 PUSH20 0xFFFFFFFFFFFFFFFFFFFFFFFFFFFFFFFFFFFFFFFF MUL NOT AND SWAP1 DUP4 PUSH20 0xFFFFFFFFFFFFFFFFFFFFFFFFFFFFFFFFFFFFFFFF AND MUL OR SWAP1 SSTORE POP POP POP PUSH1 0x0 DUP12 SWAP1 POP PUSH1 0x0 DUP12 SWAP1 POP PUSH1 0x0 DUP12 SWAP1 POP PUSH32 0x86AF556FD7CFAB9462285AD44F2D5913527C539FF549F74731CA9997CA534018 DUP6 DUP6 DUP12 DUP14 CALLER TIMESTAMP DUP14 DUP11 DUP11 DUP11 PUSH1 0x40 MLOAD PUSH2 0x762 SWAP11 SWAP10 SWAP9 SWAP8 SWAP7 SWAP6 SWAP5 SWAP4 SWAP3 SWAP2 SWAP1 PUSH2 0x239A JUMP JUMPDEST PUSH1 0x40 MLOAD DUP1 SWAP2 SUB SWAP1 LOG1 POP POP POP POP POP POP POP POP POP POP POP POP POP POP POP JUMP JUMPDEST PUSH1 0x0 PUSH1 0x2 PUSH1 0x0 DUP4 DUP2 MSTORE PUSH1 0x20 ADD SWAP1 DUP2 MSTORE PUSH1 0x20 ADD PUSH1 0x0 KECCAK256 SWAP1 POP PUSH1 0x0 DUP2 PUSH1 0x0 ADD PUSH1 0x40 MLOAD DUP1 PUSH1 0x40 ADD PUSH1 0x40 MSTORE SWAP1 DUP2 PUSH1 0x0 DUP3 ADD SLOAD DUP2 MSTORE PUSH1 0x20 ADD PUSH1 0x1 DUP3 ADD SLOAD DUP2 MSTORE POP POP SWAP1 POP PUSH1 0x0 DUP3 PUSH1 0x4 ADD PUSH1 0x0 SWAP1 SLOAD SWAP1 PUSH2 0x100 EXP SWAP1 DIV PUSH20 0xFFFFFFFFFFFFFFFFFFFFFFFFFFFFFFFFFFFFFFFF AND SWAP1 POP CALLER PUSH20 0xFFFFFFFFFFFFFFFFFFFFFFFFFFFFFFFFFFFFFFFF AND DUP2 PUSH20 0xFFFFFFFFFFFFFFFFFFFFFFFFFFFFFFFFFFFFFFFF AND EQ PUSH2 0x850 JUMPI PUSH1 0x40 MLOAD PUSH32 0x8C379A000000000000000000000000000000000000000000000000000000000 DUP2 MSTORE PUSH1 0x4 ADD PUSH2 0x847 SWAP1 PUSH2 0x2490 JUMP JUMPDEST PUSH1 0x40 MLOAD DUP1 SWAP2 SUB SWAP1 REVERT JUMPDEST TIMESTAMP PUSH2 0x862 DUP4 PUSH1 0x0 ADD MLOAD PUSH1 0xE0 PUSH1 0x20 PUSH2 0x1010 JUMP JUMPDEST GT ISZERO PUSH2 0x8A3 JUMPI PUSH1 0x40 MLOAD PUSH32 0x8C379A000000000000000000000000000000000000000000000000000000000 DUP2 MSTORE PUSH1 0x4 ADD PUSH2 0x89A SWAP1 PUSH2 0x24FC JUMP JUMPDEST PUSH1 0x40 MLOAD DUP1 SWAP2 SUB SWAP1 REVERT JUMPDEST PUSH1 0x0 PUSH2 0x8B6 DUP4 PUSH1 0x0 ADD MLOAD PUSH1 0x80 PUSH1 0x60 PUSH2 0x1010 JUMP JUMPDEST SWAP1 POP PUSH1 0x0 DUP2 SUB PUSH2 0x8FB JUMPI PUSH1 0x40 MLOAD PUSH32 0x8C379A000000000000000000000000000000000000000000000000000000000 DUP2 MSTORE PUSH1 0x4 ADD PUSH2 0x8F2 SWAP1 PUSH2 0x2568 JUMP JUMPDEST PUSH1 0x40 MLOAD DUP1 SWAP2 SUB SWAP1 REVERT JUMPDEST PUSH1 0x0 PUSH2 0x90E DUP5 PUSH1 0x20 ADD MLOAD PUSH1 0xFE PUSH1 0x1 PUSH2 0x1010 JUMP JUMPDEST SWAP1 POP PUSH1 0x0 PUSH2 0x923 DUP6 PUSH1 0x20 ADD MLOAD PUSH1 0x40 PUSH1 0xA0 PUSH2 0x1010 JUMP JUMPDEST SWAP1 POP PUSH2 0x938 DUP6 PUSH1 0x0 ADD MLOAD PUSH1 0x80 PUSH1 0x60 PUSH1 0x0 PUSH2 0x11B6 JUMP JUMPDEST DUP7 PUSH1 0x0 ADD PUSH1 0x0 ADD DUP2 SWAP1 SSTORE POP PUSH1 0x0 DUP3 SUB PUSH2 0x997 JUMPI CALLER PUSH20 0xFFFFFFFFFFFFFFFFFFFFFFFFFFFFFFFFFFFFFFFF AND PUSH2 0x8FC DUP5 SWAP1 DUP2 ISZERO MUL SWAP1 PUSH1 0x40 MLOAD PUSH1 0x0 PUSH1 0x40 MLOAD DUP1 DUP4 SUB DUP2 DUP6 DUP9 DUP9 CALL SWAP4 POP POP POP POP ISZERO DUP1 ISZERO PUSH2 0x991 JUMPI RETURNDATASIZE PUSH1 0x0 DUP1 RETURNDATACOPY RETURNDATASIZE PUSH1 0x0 REVERT JUMPDEST POP PUSH2 0x9AC JUMP JUMPDEST PUSH1 0x1 DUP3 SUB PUSH2 0x9AB JUMPI PUSH2 0x9AA DUP2 CALLER DUP6 PUSH2 0x11D1 JUMP JUMPDEST JUMPDEST JUMPDEST PUSH32 0x66C304C539E0BC7C8070207C09B9F6A5A9591B434DFED1867CC57FDE7FB60093 DUP8 DUP3 DUP6 PUSH1 0x40 MLOAD PUSH2 0x9DF SWAP4 SWAP3 SWAP2 SWAP1 PUSH2 0x2588 JUMP JUMPDEST PUSH1 0x40 MLOAD DUP1 SWAP2 SUB SWAP1 LOG1 POP POP POP POP POP POP POP JUMP JUMPDEST PUSH1 0x0 PUSH1 0x1 SWAP1 SLOAD SWAP1 PUSH2 0x100 EXP SWAP1 DIV PUSH1 0xFF AND PUSH2 0xA18 JUMPI PUSH1 0x0 DUP1 SLOAD SWAP1 PUSH2 0x100 EXP SWAP1 DIV PUSH1 0xFF AND ISZERO PUSH2 0xA21 JUMP JUMPDEST PUSH2 0xA20 PUSH2 0x1201 JUMP JUMPDEST JUMPDEST PUSH2 0xA60 JUMPI PUSH1 0x40 MLOAD PUSH32 0x8C379A000000000000000000000000000000000000000000000000000000000 DUP2 MSTORE PUSH1 0x4 ADD PUSH2 0xA57 SWAP1 PUSH2 0x2631 JUMP JUMPDEST PUSH1 0x40 MLOAD DUP1 SWAP2 SUB SWAP1 REVERT JUMPDEST PUSH1 0x0 DUP1 PUSH1 0x1 SWAP1 SLOAD SWAP1 PUSH2 0x100 EXP SWAP1 DIV PUSH1 0xFF AND ISZERO SWAP1 POP DUP1 ISZERO PUSH2 0xAB0 JUMPI PUSH1 0x1 PUSH1 0x0 PUSH1 0x1 PUSH2 0x100 EXP DUP2 SLOAD DUP2 PUSH1 0xFF MUL NOT AND SWAP1 DUP4 ISZERO ISZERO MUL OR SWAP1 SSTORE POP PUSH1 0x1 PUSH1 0x0 DUP1 PUSH2 0x100 EXP DUP2 SLOAD DUP2 PUSH1 0xFF MUL NOT AND SWAP1 DUP4 ISZERO ISZERO MUL OR SWAP1 SSTORE POP JUMPDEST TIMESTAMP CALLER PUSH1 0x40 MLOAD PUSH1 0x20 ADD PUSH2 0xAC3 SWAP3 SWAP2 SWAP1 PUSH2 0x26A8 JUMP JUMPDEST PUSH1 0x40 MLOAD PUSH1 0x20 DUP2 DUP4 SUB SUB DUP2 MSTORE SWAP1 PUSH1 0x40 MSTORE DUP1 MLOAD SWAP1 PUSH1 0x20 ADD KECCAK256 PUSH1 0x1 DUP2 SWAP1 SSTORE POP DUP1 ISZERO PUSH2 0xB00 JUMPI PUSH1 0x0 DUP1 PUSH1 0x1 PUSH2 0x100 EXP DUP2 SLOAD DUP2 PUSH1 0xFF MUL NOT AND SWAP1 DUP4 ISZERO ISZERO MUL OR SWAP1 SSTORE POP JUMPDEST POP JUMP JUMPDEST PUSH1 0x0 DUP1 PUSH1 0x2 PUSH1 0x0 DUP6 DUP2 MSTORE PUSH1 0x20 ADD SWAP1 DUP2 MSTORE PUSH1 0x20 ADD PUSH1 0x0 KECCAK256 SWAP1 POP PUSH1 0x0 DUP2 PUSH1 0x0 ADD PUSH1 0x40 MLOAD DUP1 PUSH1 0x40 ADD PUSH1 0x40 MSTORE SWAP1 DUP2 PUSH1 0x0 DUP3 ADD SLOAD DUP2 MSTORE PUSH1 0x20 ADD PUSH1 0x1 DUP3 ADD SLOAD DUP2 MSTORE POP POP SWAP1 POP TIMESTAMP PUSH2 0xB54 DUP3 PUSH1 0x0 ADD MLOAD PUSH1 0xE0 PUSH1 0x20 PUSH2 0x1010 JUMP JUMPDEST GT PUSH2 0xB94 JUMPI PUSH1 0x40 MLOAD PUSH32 0x8C379A000000000000000000000000000000000000000000000000000000000 DUP2 MSTORE PUSH1 0x4 ADD PUSH2 0xB8B SWAP1 PUSH2 0x272B JUMP JUMPDEST PUSH1 0x40 MLOAD DUP1 SWAP2 SUB SWAP1 REVERT JUMPDEST PUSH1 0x0 PUSH2 0xBA7 DUP3 PUSH1 0x20 ADD MLOAD PUSH1 0xEF PUSH1 0xF PUSH2 0x1010 JUMP JUMPDEST SWAP1 POP PUSH1 0x0 PUSH2 0xBBC DUP4 PUSH1 0x20 ADD MLOAD PUSH1 0xE0 PUSH1 0xF PUSH2 0x1010 JUMP JUMPDEST SWAP1 POP DUP2 DUP2 LT PUSH2 0xC00 JUMPI PUSH1 0x40 MLOAD PUSH32 0x8C379A000000000000000000000000000000000000000000000000000000000 DUP2 MSTORE PUSH1 0x4 ADD PUSH2 0xBF7 SWAP1 PUSH2 0x2797 JUMP JUMPDEST PUSH1 0x40 MLOAD DUP1 SWAP2 SUB SWAP1 REVERT JUMPDEST PUSH1 0x0 DUP5 PUSH1 0x3 ADD SLOAD SWAP1 POP PUSH2 0xC1C DUP8 DUP3 PUSH2 0xC17 CALLER PUSH2 0x1212 JUMP JUMPDEST PUSH2 0x1242 JUMP JUMPDEST PUSH2 0xC5B JUMPI PUSH1 0x40 MLOAD PUSH32 0x8C379A000000000000000000000000000000000000000000000000000000000 DUP2 MSTORE PUSH1 0x4 ADD PUSH2 0xC52 SWAP1 PUSH2 0x2803 JUMP JUMPDEST PUSH1 0x40 MLOAD DUP1 SWAP2 SUB SWAP1 REVERT JUMPDEST PUSH1 0x0 DUP1 PUSH2 0xC6F DUP7 PUSH1 0x20 ADD MLOAD PUSH1 0xFE PUSH1 0x1 PUSH2 0x1010 JUMP JUMPDEST SWAP1 POP PUSH1 0x0 PUSH2 0xC84 DUP8 PUSH1 0x20 ADD MLOAD PUSH1 0xFF PUSH1 0x1 PUSH2 0x1010 JUMP JUMPDEST SWAP1 POP PUSH1 0x0 PUSH2 0xC99 DUP9 PUSH1 0x0 ADD MLOAD PUSH1 0x80 PUSH1 0x60 PUSH2 0x1010 JUMP JUMPDEST SWAP1 POP PUSH1 0x0 PUSH2 0xCAE DUP10 PUSH1 0x20 ADD MLOAD PUSH1 0x40 PUSH1 0xA0 PUSH2 0x1010 JUMP JUMPDEST SWAP1 POP PUSH1 0x0 PUSH1 0x1 DUP3 PUSH20 0xFFFFFFFFFFFFFFFFFFFFFFFFFFFFFFFFFFFFFFFF AND PUSH4 0x313CE567 PUSH1 0x40 MLOAD DUP2 PUSH4 0xFFFFFFFF AND PUSH1 0xE0 SHL DUP2 MSTORE PUSH1 0x4 ADD PUSH1 0x20 PUSH1 0x40 MLOAD DUP1 DUP4 SUB DUP2 DUP7 GAS STATICCALL ISZERO DUP1 ISZERO PUSH2 0xCFF JUMPI RETURNDATASIZE PUSH1 0x0 DUP1 RETURNDATACOPY RETURNDATASIZE PUSH1 0x0 REVERT JUMPDEST POP POP POP POP PUSH1 0x40 MLOAD RETURNDATASIZE PUSH1 0x1F NOT PUSH1 0x1F DUP3 ADD AND DUP3 ADD DUP1 PUSH1 0x40 MSTORE POP DUP2 ADD SWAP1 PUSH2 0xD23 SWAP2 SWAP1 PUSH2 0x1E73 JUMP JUMPDEST PUSH2 0xD2D SWAP2 SWAP1 PUSH2 0x1EA0 JUMP JUMPDEST PUSH1 0xA PUSH2 0xD39 SWAP2 SWAP1 PUSH2 0x2008 JUMP JUMPDEST SWAP1 POP PUSH1 0x1 DUP5 SUB PUSH2 0xE05 JUMPI PUSH1 0x1 DUP9 DUP11 PUSH2 0xD51 SWAP2 SWAP1 PUSH2 0x21CA JUMP JUMPDEST SUB PUSH2 0xD5E JUMPI DUP3 SWAP6 POP PUSH2 0xE00 JUMP JUMPDEST PUSH1 0x0 DUP2 DUP10 DUP12 PUSH2 0xD6D SWAP2 SWAP1 PUSH2 0x21CA JUMP JUMPDEST PUSH2 0xD77 SWAP2 SWAP1 PUSH2 0x2053 JUMP JUMPDEST SWAP1 POP PUSH1 0x0 DUP2 DUP6 PUSH2 0xD87 SWAP2 SWAP1 PUSH2 0x21CA JUMP JUMPDEST SWAP1 POP DUP10 DUP12 PUSH2 0xD95 SWAP2 SWAP1 PUSH2 0x21CA JUMP JUMPDEST PUSH1 0x2 DUP3 PUSH2 0xDA2 SWAP2 SWAP1 PUSH2 0x2053 JUMP JUMPDEST PUSH2 0xDAC SWAP2 SWAP1 PUSH2 0x2852 JUMP JUMPDEST PUSH2 0xDCA PUSH1 0x1 SLOAD PUSH1 0x0 PUSH1 0x2 SWAP1 SLOAD SWAP1 PUSH2 0x100 EXP SWAP1 DIV PUSH4 0xFFFFFFFF AND PUSH2 0x1259 JUMP JUMPDEST PUSH2 0xDD4 SWAP2 SWAP1 PUSH2 0x2883 JUMP JUMPDEST SWAP8 POP DUP3 DUP9 LT PUSH2 0xDF9 JUMPI DUP3 DUP9 PUSH2 0xDE9 SWAP2 SWAP1 PUSH2 0x2883 JUMP JUMPDEST DUP9 PUSH2 0xDF4 SWAP2 SWAP1 PUSH2 0x21CA JUMP JUMPDEST PUSH2 0xDFB JUMP JUMPDEST DUP3 JUMPDEST SWAP8 POP POP POP JUMPDEST PUSH2 0xE3B JUMP JUMPDEST PUSH1 0x1 DUP9 DUP11 PUSH2 0xE13 SWAP2 SWAP1 PUSH2 0x21CA JUMP JUMPDEST SUB PUSH2 0xE20 JUMPI DUP3 SWAP6 POP PUSH2 0xE3A JUMP JUMPDEST DUP8 DUP10 PUSH2 0xE2C SWAP2 SWAP1 PUSH2 0x21CA JUMP JUMPDEST DUP4 PUSH2 0xE37 SWAP2 SWAP1 PUSH2 0x2852 JUMP JUMPDEST SWAP6 POP JUMPDEST JUMPDEST PUSH2 0xE58 DUP11 PUSH1 0x0 ADD MLOAD PUSH1 0x80 PUSH1 0x60 DUP10 DUP8 PUSH2 0xE53 SWAP2 SWAP1 PUSH2 0x21CA JUMP JUMPDEST PUSH2 0x11B6 JUMP JUMPDEST DUP12 PUSH1 0x0 ADD PUSH1 0x0 ADD DUP2 SWAP1 SSTORE POP PUSH1 0x0 DUP12 PUSH1 0x2 ADD PUSH1 0x0 CALLER PUSH20 0xFFFFFFFFFFFFFFFFFFFFFFFFFFFFFFFFFFFFFFFF AND PUSH20 0xFFFFFFFFFFFFFFFFFFFFFFFFFFFFFFFFFFFFFFFF AND DUP2 MSTORE PUSH1 0x20 ADD SWAP1 DUP2 MSTORE PUSH1 0x20 ADD PUSH1 0x0 KECCAK256 SLOAD EQ PUSH2 0xEE7 JUMPI PUSH1 0x40 MLOAD PUSH32 0x8C379A000000000000000000000000000000000000000000000000000000000 DUP2 MSTORE PUSH1 0x4 ADD PUSH2 0xEDE SWAP1 PUSH2 0x2900 JUMP JUMPDEST PUSH1 0x40 MLOAD DUP1 SWAP2 SUB SWAP1 REVERT JUMPDEST DUP6 DUP12 PUSH1 0x2 ADD PUSH1 0x0 CALLER PUSH20 0xFFFFFFFFFFFFFFFFFFFFFFFFFFFFFFFFFFFFFFFF AND PUSH20 0xFFFFFFFFFFFFFFFFFFFFFFFFFFFFFFFFFFFFFFFF AND DUP2 MSTORE PUSH1 0x20 ADD SWAP1 DUP2 MSTORE PUSH1 0x20 ADD PUSH1 0x0 KECCAK256 DUP2 SWAP1 SSTORE POP PUSH2 0xF4B DUP11 PUSH1 0x20 ADD MLOAD PUSH1 0xE0 PUSH1 0xF PUSH1 0x1 DUP13 PUSH2 0xF46 SWAP2 SWAP1 PUSH2 0x2920 JUMP JUMPDEST PUSH2 0x11B6 JUMP JUMPDEST DUP12 PUSH1 0x0 ADD PUSH1 0x1 ADD DUP2 SWAP1 SSTORE POP PUSH1 0x0 DUP6 SUB PUSH2 0xFAA JUMPI CALLER PUSH20 0xFFFFFFFFFFFFFFFFFFFFFFFFFFFFFFFFFFFFFFFF AND PUSH2 0x8FC DUP8 SWAP1 DUP2 ISZERO MUL SWAP1 PUSH1 0x40 MLOAD PUSH1 0x0 PUSH1 0x40 MLOAD DUP1 DUP4 SUB DUP2 DUP6 DUP9 DUP9 CALL SWAP4 POP POP POP POP ISZERO DUP1 ISZERO PUSH2 0xFA4 JUMPI RETURNDATASIZE PUSH1 0x0 DUP1 RETURNDATACOPY RETURNDATASIZE PUSH1 0x0 REVERT JUMPDEST POP PUSH2 0xFBF JUMP JUMPDEST PUSH1 0x1 DUP6 SUB PUSH2 0xFBE JUMPI PUSH2 0xFBD DUP3 CALLER DUP9 PUSH2 0x11D1 JUMP JUMPDEST JUMPDEST JUMPDEST PUSH32 0x358DDD686A5CA3EF6F8AEE9B8D2DC3C642ECC278657C3802F8802B1A44C10E44 DUP15 CALLER DUP9 DUP6 PUSH1 0x40 MLOAD PUSH2 0xFF4 SWAP5 SWAP4 SWAP3 SWAP2 SWAP1 PUSH2 0x2954 JUMP JUMPDEST PUSH1 0x40 MLOAD DUP1 SWAP2 SUB SWAP1 LOG1 DUP6 SWAP12 POP POP POP POP POP POP POP POP POP POP POP POP SWAP3 SWAP2 POP POP JUMP JUMPDEST PUSH1 0x0 PUSH2 0x101E PUSH2 0x100 DUP6 PUSH2 0x129F JUMP JUMPDEST PUSH2 0x105D JUMPI PUSH1 0x40 MLOAD PUSH32 0x8C379A000000000000000000000000000000000000000000000000000000000 DUP2 MSTORE PUSH1 0x4 ADD PUSH2 0x1054 SWAP1 PUSH2 0x29E5 JUMP JUMPDEST PUSH1 0x40 MLOAD DUP1 SWAP2 SUB SWAP1 REVERT JUMPDEST DUP4 DUP4 SHR PUSH1 0x1 DUP1 DUP5 SHL SUB AND SWAP1 POP SWAP4 SWAP3 POP POP POP JUMP JUMPDEST PUSH2 0x10F3 DUP5 PUSH4 0x23B872DD PUSH1 0xE0 SHL DUP6 DUP6 DUP6 PUSH1 0x40 MLOAD PUSH1 0x24 ADD PUSH2 0x1091 SWAP4 SWAP3 SWAP2 SWAP1 PUSH2 0x2A05 JUMP JUMPDEST PUSH1 0x40 MLOAD PUSH1 0x20 DUP2 DUP4 SUB SUB DUP2 MSTORE SWAP1 PUSH1 0x40 MSTORE SWAP1 PUSH28 0xFFFFFFFFFFFFFFFFFFFFFFFFFFFFFFFFFFFFFFFFFFFFFFFFFFFFFFFF NOT AND PUSH1 0x20 DUP3 ADD DUP1 MLOAD PUSH28 0xFFFFFFFFFFFFFFFFFFFFFFFFFFFFFFFFFFFFFFFFFFFFFFFFFFFFFFFF DUP4 DUP2 DUP4 AND OR DUP4 MSTORE POP POP POP POP PUSH2 0x12B5 JUMP JUMPDEST POP POP POP POP JUMP JUMPDEST PUSH1 0x0 DUP1 PUSH1 0x0 SWAP1 POP PUSH2 0x110D PUSH1 0x80 PUSH1 0x60 DUP7 PUSH2 0x137C JUMP JUMPDEST DUP2 OR SWAP1 POP PUSH2 0x1129 PUSH1 0xE0 PUSH1 0x20 DUP6 TIMESTAMP PUSH2 0x1124 SWAP2 SWAP1 PUSH2 0x2920 JUMP JUMPDEST PUSH2 0x137C JUMP JUMPDEST DUP2 OR SWAP1 POP DUP1 SWAP2 POP POP SWAP3 SWAP2 POP POP JUMP JUMPDEST PUSH1 0x0 DUP1 PUSH1 0x0 SWAP1 POP PUSH2 0x1161 PUSH1 0x40 PUSH1 0xA0 DUP9 PUSH20 0xFFFFFFFFFFFFFFFFFFFFFFFFFFFFFFFFFFFFFFFF AND PUSH2 0x137C JUMP JUMPDEST DUP2 OR SWAP1 POP PUSH2 0x1173 PUSH1 0xE0 PUSH1 0xF PUSH1 0x0 PUSH2 0x137C JUMP JUMPDEST DUP2 OR SWAP1 POP PUSH2 0x1184 PUSH1 0xEF PUSH1 0xF DUP8 PUSH2 0x137C JUMP JUMPDEST DUP2 OR SWAP1 POP PUSH2 0x1195 PUSH1 0xFE PUSH1 0x1 DUP7 PUSH2 0x137C JUMP JUMPDEST DUP2 OR SWAP1 POP PUSH2 0x11A6 PUSH1 0xFF PUSH1 0x1 DUP6 PUSH2 0x137C JUMP JUMPDEST DUP2 OR SWAP1 POP DUP1 SWAP2 POP POP SWAP5 SWAP4 POP POP POP POP JUMP JUMPDEST PUSH1 0x0 DUP2 DUP5 SHL PUSH1 0x1 DUP1 DUP6 SHL SUB DUP6 SHL NOT DUP7 AND OR SWAP1 POP SWAP5 SWAP4 POP POP POP POP JUMP JUMPDEST PUSH2 0x11FC DUP3 DUP3 DUP6 PUSH20 0xFFFFFFFFFFFFFFFFFFFFFFFFFFFFFFFFFFFFFFFF AND PUSH2 0x13D3 SWAP1 SWAP3 SWAP2 SWAP1 PUSH4 0xFFFFFFFF AND JUMP JUMPDEST POP POP POP JUMP JUMPDEST PUSH1 0x0 PUSH2 0x120C ADDRESS PUSH2 0x1459 JUMP JUMPDEST ISZERO SWAP1 POP SWAP1 JUMP JUMPDEST PUSH1 0x0 DUP2 PUSH1 0x40 MLOAD PUSH1 0x20 ADD PUSH2 0x1225 SWAP2 SWAP1 PUSH2 0x2A3C JUMP JUMPDEST PUSH1 0x40 MLOAD PUSH1 0x20 DUP2 DUP4 SUB SUB DUP2 MSTORE SWAP1 PUSH1 0x40 MSTORE DUP1 MLOAD SWAP1 PUSH1 0x20 ADD KECCAK256 SWAP1 POP SWAP2 SWAP1 POP JUMP JUMPDEST PUSH1 0x0 DUP3 PUSH2 0x124F DUP6 DUP5 PUSH2 0x147C JUMP JUMPDEST EQ SWAP1 POP SWAP4 SWAP3 POP POP POP JUMP JUMPDEST PUSH1 0x0 PUSH1 0x1 DUP3 CALLER DUP6 TIMESTAMP PUSH1 0x40 MLOAD PUSH1 0x20 ADD PUSH2 0x1274 SWAP5 SWAP4 SWAP3 SWAP2 SWAP1 PUSH2 0x2A57 JUMP JUMPDEST PUSH1 0x40 MLOAD PUSH1 0x20 DUP2 DUP4 SUB SUB DUP2 MSTORE SWAP1 PUSH1 0x40 MSTORE DUP1 MLOAD SWAP1 PUSH1 0x20 ADD KECCAK256 PUSH1 0x0 SHR PUSH2 0x1297 SWAP2 SWAP1 PUSH2 0x2920 JUMP JUMPDEST SWAP1 POP SWAP3 SWAP2 POP POP JUMP JUMPDEST PUSH1 0x0 DUP2 PUSH1 0x1 DUP5 SHL GT PUSH2 0x100 DUP5 EQ OR SWAP1 POP SWAP3 SWAP2 POP POP JUMP JUMPDEST PUSH1 0x0 PUSH2 0x1317 DUP3 PUSH1 0x40 MLOAD DUP1 PUSH1 0x40 ADD PUSH1 0x40 MSTORE DUP1 PUSH1 0x20 DUP2 MSTORE PUSH1 0x20 ADD PUSH32 0x5361666545524332303A206C6F772D6C6576656C2063616C6C206661696C6564 DUP2 MSTORE POP DUP6 PUSH20 0xFFFFFFFFFFFFFFFFFFFFFFFFFFFFFFFFFFFFFFFF AND PUSH2 0x14CC SWAP1 SWAP3 SWAP2 SWAP1 PUSH4 0xFFFFFFFF AND JUMP JUMPDEST SWAP1 POP PUSH1 0x0 DUP2 MLOAD GT ISZERO PUSH2 0x1377 JUMPI DUP1 DUP1 PUSH1 0x20 ADD SWAP1 MLOAD DUP2 ADD SWAP1 PUSH2 0x1337 SWAP2 SWAP1 PUSH2 0x2ABA JUMP JUMPDEST PUSH2 0x1376 JUMPI PUSH1 0x40 MLOAD PUSH32 0x8C379A000000000000000000000000000000000000000000000000000000000 DUP2 MSTORE PUSH1 0x4 ADD PUSH2 0x136D SWAP1 PUSH2 0x2B59 JUMP JUMPDEST PUSH1 0x40 MLOAD DUP1 SWAP2 SUB SWAP1 REVERT JUMPDEST JUMPDEST POP POP POP JUMP JUMPDEST PUSH1 0x0 PUSH2 0x1388 DUP4 DUP4 PUSH2 0x129F JUMP JUMPDEST PUSH2 0x13C7 JUMPI PUSH1 0x40 MLOAD PUSH32 0x8C379A000000000000000000000000000000000000000000000000000000000 DUP2 MSTORE PUSH1 0x4 ADD PUSH2 0x13BE SWAP1 PUSH2 0x2BC5 JUMP JUMPDEST PUSH1 0x40 MLOAD DUP1 SWAP2 SUB SWAP1 REVERT JUMPDEST DUP2 DUP5 SHL SWAP1 POP SWAP4 SWAP3 POP POP POP JUMP JUMPDEST PUSH2 0x1454 DUP4 PUSH4 0xA9059CBB PUSH1 0xE0 SHL DUP5 DUP5 PUSH1 0x40 MLOAD PUSH1 0x24 ADD PUSH2 0x13F2 SWAP3 SWAP2 SWAP1 PUSH2 0x2BE5 JUMP JUMPDEST PUSH1 0x40 MLOAD PUSH1 0x20 DUP2 DUP4 SUB SUB DUP2 MSTORE SWAP1 PUSH1 0x40 MSTORE SWAP1 PUSH28 0xFFFFFFFFFFFFFFFFFFFFFFFFFFFFFFFFFFFFFFFFFFFFFFFFFFFFFFFF NOT AND PUSH1 0x20 DUP3 ADD DUP1 MLOAD PUSH28 0xFFFFFFFFFFFFFFFFFFFFFFFFFFFFFFFFFFFFFFFFFFFFFFFFFFFFFFFF DUP4 DUP2 DUP4 AND OR DUP4 MSTORE POP POP POP POP PUSH2 0x12B5 JUMP JUMPDEST POP POP POP JUMP JUMPDEST PUSH1 0x0 DUP1 DUP3 PUSH20 0xFFFFFFFFFFFFFFFFFFFFFFFFFFFFFFFFFFFFFFFF AND EXTCODESIZE GT SWAP1 POP SWAP2 SWAP1 POP JUMP JUMPDEST PUSH1 0x0 DUP1 DUP3 SWAP1 POP PUSH1 0x0 JUMPDEST DUP5 MLOAD DUP2 LT ISZERO PUSH2 0x14C1 JUMPI PUSH2 0x14B2 DUP3 DUP7 DUP4 DUP2 MLOAD DUP2 LT PUSH2 0x14A5 JUMPI PUSH2 0x14A4 PUSH2 0x2C0E JUMP JUMPDEST JUMPDEST PUSH1 0x20 MUL PUSH1 0x20 ADD ADD MLOAD PUSH2 0x14E4 JUMP JUMPDEST SWAP2 POP DUP1 DUP1 PUSH1 0x1 ADD SWAP2 POP POP PUSH2 0x1485 JUMP JUMPDEST POP DUP1 SWAP2 POP POP SWAP3 SWAP2 POP POP JUMP JUMPDEST PUSH1 0x60 PUSH2 0x14DB DUP5 DUP5 PUSH1 0x0 DUP6 PUSH2 0x150F JUMP JUMPDEST SWAP1 POP SWAP4 SWAP3 POP POP POP JUMP JUMPDEST PUSH1 0x0 DUP2 DUP4 LT PUSH2 0x14FC JUMPI PUSH2 0x14F7 DUP3 DUP5 PUSH2 0x1623 JUMP JUMPDEST PUSH2 0x1507 JUMP JUMPDEST PUSH2 0x1506 DUP4 DUP4 PUSH2 0x1623 JUMP JUMPDEST JUMPDEST SWAP1 POP SWAP3 SWAP2 POP POP JUMP JUMPDEST PUSH1 0x60 DUP3 SELFBALANCE LT ISZERO PUSH2 0x1554 JUMPI PUSH1 0x40 MLOAD PUSH32 0x8C379A000000000000000000000000000000000000000000000000000000000 DUP2 MSTORE PUSH1 0x4 ADD PUSH2 0x154B SWAP1 PUSH2 0x2CAF JUMP JUMPDEST PUSH1 0x40 MLOAD DUP1 SWAP2 SUB SWAP1 REVERT JUMPDEST PUSH2 0x155D DUP6 PUSH2 0x1459 JUMP JUMPDEST PUSH2 0x159C JUMPI PUSH1 0x40 MLOAD PUSH32 0x8C379A000000000000000000000000000000000000000000000000000000000 DUP2 MSTORE PUSH1 0x4 ADD PUSH2 0x1593 SWAP1 PUSH2 0x2D1B JUMP JUMPDEST PUSH1 0x40 MLOAD DUP1 SWAP2 SUB SWAP1 REVERT JUMPDEST PUSH1 0x0 DUP1 DUP7 PUSH20 0xFFFFFFFFFFFFFFFFFFFFFFFFFFFFFFFFFFFFFFFF AND DUP6 DUP8 PUSH1 0x40 MLOAD PUSH2 0x15C5 SWAP2 SWAP1 PUSH2 0x2D82 JUMP JUMPDEST PUSH1 0x0 PUSH1 0x40 MLOAD DUP1 DUP4 SUB DUP2 DUP6 DUP8 GAS CALL SWAP3 POP POP POP RETURNDATASIZE DUP1 PUSH1 0x0 DUP2 EQ PUSH2 0x1602 JUMPI PUSH1 0x40 MLOAD SWAP2 POP PUSH1 0x1F NOT PUSH1 0x3F RETURNDATASIZE ADD AND DUP3 ADD PUSH1 0x40 MSTORE RETURNDATASIZE DUP3 MSTORE RETURNDATASIZE PUSH1 0x0 PUSH1 0x20 DUP5 ADD RETURNDATACOPY PUSH2 0x1607 JUMP JUMPDEST PUSH1 0x60 SWAP2 POP JUMPDEST POP SWAP2 POP SWAP2 POP PUSH2 0x1617 DUP3 DUP3 DUP7 PUSH2 0x163A JUMP JUMPDEST SWAP3 POP POP POP SWAP5 SWAP4 POP POP POP POP JUMP JUMPDEST PUSH1 0x0 DUP3 PUSH1 0x0 MSTORE DUP2 PUSH1 0x20 MSTORE PUSH1 0x40 PUSH1 0x0 KECCAK256 SWAP1 POP SWAP3 SWAP2 POP POP JUMP JUMPDEST PUSH1 0x60 DUP4 ISZERO PUSH2 0x164A JUMPI DUP3 SWAP1 POP PUSH2 0x169A JUMP JUMPDEST PUSH1 0x0 DUP4 MLOAD GT ISZERO PUSH2 0x165D JUMPI DUP3 MLOAD DUP1 DUP5 PUSH1 0x20 ADD REVERT JUMPDEST DUP2 PUSH1 0x40 MLOAD PUSH32 0x8C379A000000000000000000000000000000000000000000000000000000000 DUP2 MSTORE PUSH1 0x4 ADD PUSH2 0x1691 SWAP2 SWAP1 PUSH2 0x2D99 JUMP JUMPDEST PUSH1 0x40 MLOAD DUP1 SWAP2 SUB SWAP1 REVERT JUMPDEST SWAP4 SWAP3 POP POP POP JUMP JUMPDEST PUSH1 0x0 PUSH1 0x40 MLOAD SWAP1 POP SWAP1 JUMP JUMPDEST PUSH1 0x0 DUP1 REVERT JUMPDEST PUSH1 0x0 DUP1 REVERT JUMPDEST PUSH1 0x0 DUP2 SWAP1 POP SWAP2 SWAP1 POP JUMP JUMPDEST PUSH2 0x16C8 DUP2 PUSH2 0x16B5 JUMP JUMPDEST DUP2 EQ PUSH2 0x16D3 JUMPI PUSH1 0x0 DUP1 REVERT JUMPDEST POP JUMP JUMPDEST PUSH1 0x0 DUP2 CALLDATALOAD SWAP1 POP PUSH2 0x16E5 DUP2 PUSH2 0x16BF JUMP JUMPDEST SWAP3 SWAP2 POP POP JUMP JUMPDEST PUSH1 0x0 PUSH1 0x20 DUP3 DUP5 SUB SLT ISZERO PUSH2 0x1701 JUMPI PUSH2 0x1700 PUSH2 0x16AB JUMP JUMPDEST JUMPDEST PUSH1 0x0 PUSH2 0x170F DUP5 DUP3 DUP6 ADD PUSH2 0x16D6 JUMP JUMPDEST SWAP2 POP POP SWAP3 SWAP2 POP POP JUMP JUMPDEST PUSH1 0x0 PUSH20 0xFFFFFFFFFFFFFFFFFFFFFFFFFFFFFFFFFFFFFFFF DUP3 AND SWAP1 POP SWAP2 SWAP1 POP JUMP JUMPDEST PUSH1 0x0 PUSH2 0x1743 DUP3 PUSH2 0x1718 JUMP JUMPDEST SWAP1 POP SWAP2 SWAP1 POP JUMP JUMPDEST PUSH2 0x1753 DUP2 PUSH2 0x1738 JUMP JUMPDEST DUP3 MSTORE POP POP JUMP JUMPDEST PUSH1 0x0 DUP2 SWAP1 POP SWAP2 SWAP1 POP JUMP JUMPDEST PUSH2 0x176C DUP2 PUSH2 0x1759 JUMP JUMPDEST DUP3 MSTORE POP POP JUMP JUMPDEST PUSH1 0x0 DUP2 ISZERO ISZERO SWAP1 POP SWAP2 SWAP1 POP JUMP JUMPDEST PUSH2 0x1787 DUP2 PUSH2 0x1772 JUMP JUMPDEST DUP3 MSTORE POP POP JUMP JUMPDEST PUSH1 0x0 PUSH1 0xC0 DUP3 ADD SWAP1 POP PUSH2 0x17A2 PUSH1 0x0 DUP4 ADD DUP10 PUSH2 0x174A JUMP JUMPDEST PUSH2 0x17AF PUSH1 0x20 DUP4 ADD DUP9 PUSH2 0x1763 JUMP JUMPDEST PUSH2 0x17BC PUSH1 0x40 DUP4 ADD DUP8 PUSH2 0x1763 JUMP JUMPDEST PUSH2 0x17C9 PUSH1 0x60 DUP4 ADD DUP7 PUSH2 0x1763 JUMP JUMPDEST PUSH2 0x17D6 PUSH1 0x80 DUP4 ADD DUP6 PUSH2 0x177E JUMP JUMPDEST PUSH2 0x17E3 PUSH1 0xA0 DUP4 ADD DUP5 PUSH2 0x1763 JUMP JUMPDEST SWAP8 SWAP7 POP POP POP POP POP POP POP JUMP JUMPDEST PUSH2 0x17F7 DUP2 PUSH2 0x1759 JUMP JUMPDEST DUP2 EQ PUSH2 0x1802 JUMPI PUSH1 0x0 DUP1 REVERT JUMPDEST POP JUMP JUMPDEST PUSH1 0x0 DUP2 CALLDATALOAD SWAP1 POP PUSH2 0x1814 DUP2 PUSH2 0x17EE JUMP JUMPDEST SWAP3 SWAP2 POP POP JUMP JUMPDEST PUSH2 0x1823 DUP2 PUSH2 0x1772 JUMP JUMPDEST DUP2 EQ PUSH2 0x182E JUMPI PUSH1 0x0 DUP1 REVERT JUMPDEST POP JUMP JUMPDEST PUSH1 0x0 DUP2 CALLDATALOAD SWAP1 POP PUSH2 0x1840 DUP2 PUSH2 0x181A JUMP JUMPDEST SWAP3 SWAP2 POP POP JUMP JUMPDEST PUSH1 0x0 DUP1 REVERT JUMPDEST PUSH1 0x0 DUP1 REVERT JUMPDEST PUSH1 0x0 PUSH1 0x1F NOT PUSH1 0x1F DUP4 ADD AND SWAP1 POP SWAP2 SWAP1 POP JUMP JUMPDEST PUSH32 0x4E487B7100000000000000000000000000000000000000000000000000000000 PUSH1 0x0 MSTORE PUSH1 0x41 PUSH1 0x4 MSTORE PUSH1 0x24 PUSH1 0x0 REVERT JUMPDEST PUSH2 0x1899 DUP3 PUSH2 0x1850 JUMP JUMPDEST DUP2 ADD DUP2 DUP2 LT PUSH8 0xFFFFFFFFFFFFFFFF DUP3 GT OR ISZERO PUSH2 0x18B8 JUMPI PUSH2 0x18B7 PUSH2 0x1861 JUMP JUMPDEST JUMPDEST DUP1 PUSH1 0x40 MSTORE POP POP POP JUMP JUMPDEST PUSH1 0x0 PUSH2 0x18CB PUSH2 0x16A1 JUMP JUMPDEST SWAP1 POP PUSH2 0x18D7 DUP3 DUP3 PUSH2 0x1890 JUMP JUMPDEST SWAP2 SWAP1 POP JUMP JUMPDEST PUSH1 0x0 PUSH8 0xFFFFFFFFFFFFFFFF DUP3 GT ISZERO PUSH2 0x18F7 JUMPI PUSH2 0x18F6 PUSH2 0x1861 JUMP JUMPDEST JUMPDEST PUSH2 0x1900 DUP3 PUSH2 0x1850 JUMP JUMPDEST SWAP1 POP PUSH1 0x20 DUP2 ADD SWAP1 POP SWAP2 SWAP1 POP JUMP JUMPDEST DUP3 DUP2 DUP4 CALLDATACOPY PUSH1 0x0 DUP4 DUP4 ADD MSTORE POP POP POP JUMP JUMPDEST PUSH1 0x0 PUSH2 0x192F PUSH2 0x192A DUP5 PUSH2 0x18DC JUMP JUMPDEST PUSH2 0x18C1 JUMP JUMPDEST SWAP1 POP DUP3 DUP2 MSTORE PUSH1 0x20 DUP2 ADD DUP5 DUP5 DUP5 ADD GT ISZERO PUSH2 0x194B JUMPI PUSH2 0x194A PUSH2 0x184B JUMP JUMPDEST JUMPDEST PUSH2 0x1956 DUP5 DUP3 DUP6 PUSH2 0x190D JUMP JUMPDEST POP SWAP4 SWAP3 POP POP POP JUMP JUMPDEST PUSH1 0x0 DUP3 PUSH1 0x1F DUP4 ADD SLT PUSH2 0x1973 JUMPI PUSH2 0x1972 PUSH2 0x1846 JUMP JUMPDEST JUMPDEST DUP2 CALLDATALOAD PUSH2 0x1983 DUP5 DUP3 PUSH1 0x20 DUP7 ADD PUSH2 0x191C JUMP JUMPDEST SWAP2 POP POP SWAP3 SWAP2 POP POP JUMP JUMPDEST PUSH2 0x1995 DUP2 PUSH2 0x1738 JUMP JUMPDEST DUP2 EQ PUSH2 0x19A0 JUMPI PUSH1 0x0 DUP1 REVERT JUMPDEST POP JUMP JUMPDEST PUSH1 0x0 DUP2 CALLDATALOAD SWAP1 POP PUSH2 0x19B2 DUP2 PUSH2 0x198C JUMP JUMPDEST SWAP3 SWAP2 POP POP JUMP JUMPDEST PUSH1 0x0 DUP1 PUSH1 0x0 DUP1 PUSH1 0x0 DUP1 PUSH1 0x0 DUP1 PUSH1 0x0 DUP1 PUSH2 0x140 DUP12 DUP14 SUB SLT ISZERO PUSH2 0x19DC JUMPI PUSH2 0x19DB PUSH2 0x16AB JUMP JUMPDEST JUMPDEST PUSH1 0x0 PUSH2 0x19EA DUP14 DUP3 DUP15 ADD PUSH2 0x16D6 JUMP JUMPDEST SWAP11 POP POP PUSH1 0x20 PUSH2 0x19FB DUP14 DUP3 DUP15 ADD PUSH2 0x1805 JUMP JUMPDEST SWAP10 POP POP PUSH1 0x40 PUSH2 0x1A0C DUP14 DUP3 DUP15 ADD PUSH2 0x1831 JUMP JUMPDEST SWAP9 POP POP PUSH1 0x60 PUSH2 0x1A1D DUP14 DUP3 DUP15 ADD PUSH2 0x1805 JUMP JUMPDEST SWAP8 POP POP PUSH1 0x80 PUSH2 0x1A2E DUP14 DUP3 DUP15 ADD PUSH2 0x16D6 JUMP JUMPDEST SWAP7 POP POP PUSH1 0xA0 DUP12 ADD CALLDATALOAD PUSH8 0xFFFFFFFFFFFFFFFF DUP2 GT ISZERO PUSH2 0x1A4F JUMPI PUSH2 0x1A4E PUSH2 0x16B0 JUMP JUMPDEST JUMPDEST PUSH2 0x1A5B DUP14 DUP3 DUP15 ADD PUSH2 0x195E JUMP JUMPDEST SWAP6 POP POP PUSH1 0xC0 DUP12 ADD CALLDATALOAD PUSH8 0xFFFFFFFFFFFFFFFF DUP2 GT ISZERO PUSH2 0x1A7C JUMPI PUSH2 0x1A7B PUSH2 0x16B0 JUMP JUMPDEST JUMPDEST PUSH2 0x1A88 DUP14 DUP3 DUP15 ADD PUSH2 0x195E JUMP JUMPDEST SWAP5 POP POP PUSH1 0xE0 PUSH2 0x1A99 DUP14 DUP3 DUP15 ADD PUSH2 0x1805 JUMP JUMPDEST SWAP4 POP POP PUSH2 0x100 PUSH2 0x1AAB DUP14 DUP3 DUP15 ADD PUSH2 0x19A3 JUMP JUMPDEST SWAP3 POP POP PUSH2 0x120 PUSH2 0x1ABD DUP14 DUP3 DUP15 ADD PUSH2 0x1805 JUMP JUMPDEST SWAP2 POP POP SWAP3 SWAP6 SWAP9 SWAP12 SWAP2 SWAP5 SWAP8 SWAP11 POP SWAP3 SWAP6 SWAP9 POP JUMP JUMPDEST PUSH1 0x0 PUSH8 0xFFFFFFFFFFFFFFFF DUP3 GT ISZERO PUSH2 0x1AEA JUMPI PUSH2 0x1AE9 PUSH2 0x1861 JUMP JUMPDEST JUMPDEST PUSH1 0x20 DUP3 MUL SWAP1 POP PUSH1 0x20 DUP2 ADD SWAP1 POP SWAP2 SWAP1 POP JUMP JUMPDEST PUSH1 0x0 DUP1 REVERT JUMPDEST PUSH1 0x0 PUSH2 0x1B13 PUSH2 0x1B0E DUP5 PUSH2 0x1ACF JUMP JUMPDEST PUSH2 0x18C1 JUMP JUMPDEST SWAP1 POP DUP1 DUP4 DUP3 MSTORE PUSH1 0x20 DUP3 ADD SWAP1 POP PUSH1 0x20 DUP5 MUL DUP4 ADD DUP6 DUP2 GT ISZERO PUSH2 0x1B36 JUMPI PUSH2 0x1B35 PUSH2 0x1AFB JUMP JUMPDEST JUMPDEST DUP4 JUMPDEST DUP2 DUP2 LT ISZERO PUSH2 0x1B5F JUMPI DUP1 PUSH2 0x1B4B DUP9 DUP3 PUSH2 0x16D6 JUMP JUMPDEST DUP5 MSTORE PUSH1 0x20 DUP5 ADD SWAP4 POP POP PUSH1 0x20 DUP2 ADD SWAP1 POP PUSH2 0x1B38 JUMP JUMPDEST POP POP POP SWAP4 SWAP3 POP POP POP JUMP JUMPDEST PUSH1 0x0 DUP3 PUSH1 0x1F DUP4 ADD SLT PUSH2 0x1B7E JUMPI PUSH2 0x1B7D PUSH2 0x1846 JUMP JUMPDEST JUMPDEST DUP2 CALLDATALOAD PUSH2 0x1B8E DUP5 DUP3 PUSH1 0x20 DUP7 ADD PUSH2 0x1B00 JUMP JUMPDEST SWAP2 POP POP SWAP3 SWAP2 POP POP JUMP JUMPDEST PUSH1 0x0 DUP1 PUSH1 0x40 DUP4 DUP6 SUB SLT ISZERO PUSH2 0x1BAE JUMPI PUSH2 0x1BAD PUSH2 0x16AB JUMP JUMPDEST JUMPDEST PUSH1 0x0 PUSH2 0x1BBC DUP6 DUP3 DUP7 ADD PUSH2 0x16D6 JUMP JUMPDEST SWAP3 POP POP PUSH1 0x20 DUP4 ADD CALLDATALOAD PUSH8 0xFFFFFFFFFFFFFFFF DUP2 GT ISZERO PUSH2 0x1BDD JUMPI PUSH2 0x1BDC PUSH2 0x16B0 JUMP JUMPDEST JUMPDEST PUSH2 0x1BE9 DUP6 DUP3 DUP7 ADD PUSH2 0x1B69 JUMP JUMPDEST SWAP2 POP POP SWAP3 POP SWAP3 SWAP1 POP JUMP JUMPDEST PUSH1 0x0 PUSH1 0x20 DUP3 ADD SWAP1 POP PUSH2 0x1C08 PUSH1 0x0 DUP4 ADD DUP5 PUSH2 0x1763 JUMP JUMPDEST SWAP3 SWAP2 POP POP JUMP JUMPDEST PUSH32 0x4E487B7100000000000000000000000000000000000000000000000000000000 PUSH1 0x0 MSTORE PUSH1 0x11 PUSH1 0x4 MSTORE PUSH1 0x24 PUSH1 0x0 REVERT JUMPDEST PUSH1 0x0 PUSH4 0xFFFFFFFF DUP3 AND SWAP1 POP SWAP2 SWAP1 POP JUMP JUMPDEST PUSH1 0x0 PUSH2 0x1C58 DUP3 PUSH2 0x1C3D JUMP JUMPDEST SWAP2 POP PUSH4 0xFFFFFFFF DUP3 SUB PUSH2 0x1C6E JUMPI PUSH2 0x1C6D PUSH2 0x1C0E JUMP JUMPDEST JUMPDEST PUSH1 0x1 DUP3 ADD SWAP1 POP SWAP2 SWAP1 POP JUMP JUMPDEST PUSH1 0x0 DUP3 DUP3 MSTORE PUSH1 0x20 DUP3 ADD SWAP1 POP SWAP3 SWAP2 POP POP JUMP JUMPDEST PUSH32 0x746F6B656E73203E20726563697069656E745F6E756D62657200000000000000 PUSH1 0x0 DUP3 ADD MSTORE POP JUMP JUMPDEST PUSH1 0x0 PUSH2 0x1CC0 PUSH1 0x19 DUP4 PUSH2 0x1C79 JUMP JUMPDEST SWAP2 POP PUSH2 0x1CCB DUP3 PUSH2 0x1C8A JUMP JUMPDEST PUSH1 0x20 DUP3 ADD SWAP1 POP SWAP2 SWAP1 POP JUMP JUMPDEST PUSH1 0x0 PUSH1 0x20 DUP3 ADD SWAP1 POP DUP2 DUP2 SUB PUSH1 0x0 DUP4 ADD MSTORE PUSH2 0x1CEF DUP2 PUSH2 0x1CB3 JUMP JUMPDEST SWAP1 POP SWAP2 SWAP1 POP JUMP JUMPDEST PUSH32 0x4174206C65617374203120726563697069656E74000000000000000000000000 PUSH1 0x0 DUP3 ADD MSTORE POP JUMP JUMPDEST PUSH1 0x0 PUSH2 0x1D2C PUSH1 0x14 DUP4 PUSH2 0x1C79 JUMP JUMPDEST SWAP2 POP PUSH2 0x1D37 DUP3 PUSH2 0x1CF6 JUMP JUMPDEST PUSH1 0x20 DUP3 ADD SWAP1 POP SWAP2 SWAP1 POP JUMP JUMPDEST PUSH1 0x0 PUSH1 0x20 DUP3 ADD SWAP1 POP DUP2 DUP2 SUB PUSH1 0x0 DUP4 ADD MSTORE PUSH2 0x1D5B DUP2 PUSH2 0x1D1F JUMP JUMPDEST SWAP1 POP SWAP2 SWAP1 POP JUMP JUMPDEST PUSH32 0x4174206D6F73742032353520726563697069656E747300000000000000000000 PUSH1 0x0 DUP3 ADD MSTORE POP JUMP JUMPDEST PUSH1 0x0 PUSH2 0x1D98 PUSH1 0x16 DUP4 PUSH2 0x1C79 JUMP JUMPDEST SWAP2 POP PUSH2 0x1DA3 DUP3 PUSH2 0x1D62 JUMP JUMPDEST PUSH1 0x20 DUP3 ADD SWAP1 POP SWAP2 SWAP1 POP JUMP JUMPDEST PUSH1 0x0 PUSH1 0x20 DUP3 ADD SWAP1 POP DUP2 DUP2 SUB PUSH1 0x0 DUP4 ADD MSTORE PUSH2 0x1DC7 DUP2 PUSH2 0x1D8B JUMP JUMPDEST SWAP1 POP SWAP2 SWAP1 POP JUMP JUMPDEST PUSH32 0x556E7265636F676E697A61626C6520746F6B656E207479706500000000000000 PUSH1 0x0 DUP3 ADD MSTORE POP JUMP JUMPDEST PUSH1 0x0 PUSH2 0x1E04 PUSH1 0x19 DUP4 PUSH2 0x1C79 JUMP JUMPDEST SWAP2 POP PUSH2 0x1E0F DUP3 PUSH2 0x1DCE JUMP JUMPDEST PUSH1 0x20 DUP3 ADD SWAP1 POP SWAP2 SWAP1 POP JUMP JUMPDEST PUSH1 0x0 PUSH1 0x20 DUP3 ADD SWAP1 POP DUP2 DUP2 SUB PUSH1 0x0 DUP4 ADD MSTORE PUSH2 0x1E33 DUP2 PUSH2 0x1DF7 JUMP JUMPDEST SWAP1 POP SWAP2 SWAP1 POP JUMP JUMPDEST PUSH1 0x0 PUSH1 0xFF DUP3 AND SWAP1 POP SWAP2 SWAP1 POP JUMP JUMPDEST PUSH2 0x1E50 DUP2 PUSH2 0x1E3A JUMP JUMPDEST DUP2 EQ PUSH2 0x1E5B JUMPI PUSH1 0x0 DUP1 REVERT JUMPDEST POP JUMP JUMPDEST PUSH1 0x0 DUP2 MLOAD SWAP1 POP PUSH2 0x1E6D DUP2 PUSH2 0x1E47 JUMP JUMPDEST SWAP3 SWAP2 POP POP JUMP JUMPDEST PUSH1 0x0 PUSH1 0x20 DUP3 DUP5 SUB SLT ISZERO PUSH2 0x1E89 JUMPI PUSH2 0x1E88 PUSH2 0x16AB JUMP JUMPDEST JUMPDEST PUSH1 0x0 PUSH2 0x1E97 DUP5 DUP3 DUP6 ADD PUSH2 0x1E5E JUMP JUMPDEST SWAP2 POP POP SWAP3 SWAP2 POP POP JUMP JUMPDEST PUSH1 0x0 PUSH2 0x1EAB DUP3 PUSH2 0x1E3A JUMP JUMPDEST SWAP2 POP PUSH2 0x1EB6 DUP4 PUSH2 0x1E3A JUMP JUMPDEST SWAP3 POP DUP3 DUP3 SUB SWAP1 POP PUSH1 0xFF DUP2 GT ISZERO PUSH2 0x1ECF JUMPI PUSH2 0x1ECE PUSH2 0x1C0E JUMP JUMPDEST JUMPDEST SWAP3 SWAP2 POP POP JUMP JUMPDEST PUSH1 0x0 DUP2 PUSH1 0x1 SHR SWAP1 POP SWAP2 SWAP1 POP JUMP JUMPDEST PUSH1 0x0 DUP1 DUP3 SWAP2 POP DUP4 SWAP1 POP JUMPDEST PUSH1 0x1 DUP6 GT ISZERO PUSH2 0x1F2C JUMPI DUP1 DUP7 DIV DUP2 GT ISZERO PUSH2 0x1F08 JUMPI PUSH2 0x1F07 PUSH2 0x1C0E JUMP JUMPDEST JUMPDEST PUSH1 0x1 DUP6 AND ISZERO PUSH2 0x1F17 JUMPI DUP1 DUP3 MUL SWAP2 POP JUMPDEST DUP1 DUP2 MUL SWAP1 POP PUSH2 0x1F25 DUP6 PUSH2 0x1ED5 JUMP JUMPDEST SWAP5 POP PUSH2 0x1EEC JUMP JUMPDEST SWAP5 POP SWAP5 SWAP3 POP POP POP JUMP JUMPDEST PUSH1 0x0 DUP3 PUSH2 0x1F45 JUMPI PUSH1 0x1 SWAP1 POP PUSH2 0x2001 JUMP JUMPDEST DUP2 PUSH2 0x1F53 JUMPI PUSH1 0x0 SWAP1 POP PUSH2 0x2001 JUMP JUMPDEST DUP2 PUSH1 0x1 DUP2 EQ PUSH2 0x1F69 JUMPI PUSH1 0x2 DUP2 EQ PUSH2 0x1F73 JUMPI PUSH2 0x1FA2 JUMP JUMPDEST PUSH1 0x1 SWAP2 POP POP PUSH2 0x2001 JUMP JUMPDEST PUSH1 0xFF DUP5 GT ISZERO PUSH2 0x1F85 JUMPI PUSH2 0x1F84 PUSH2 0x1C0E JUMP JUMPDEST JUMPDEST DUP4 PUSH1 0x2 EXP SWAP2 POP DUP5 DUP3 GT ISZERO PUSH2 0x1F9C JUMPI PUSH2 0x1F9B PUSH2 0x1C0E JUMP JUMPDEST JUMPDEST POP PUSH2 0x2001 JUMP JUMPDEST POP PUSH1 0x20 DUP4 LT PUSH2 0x133 DUP4 LT AND PUSH1 0x4E DUP5 LT PUSH1 0xB DUP5 LT AND OR ISZERO PUSH2 0x1FD7 JUMPI DUP3 DUP3 EXP SWAP1 POP DUP4 DUP2 GT ISZERO PUSH2 0x1FD2 JUMPI PUSH2 0x1FD1 PUSH2 0x1C0E JUMP JUMPDEST JUMPDEST PUSH2 0x2001 JUMP JUMPDEST PUSH2 0x1FE4 DUP5 DUP5 DUP5 PUSH1 0x1 PUSH2 0x1EE2 JUMP JUMPDEST SWAP3 POP SWAP1 POP DUP2 DUP5 DIV DUP2 GT ISZERO PUSH2 0x1FFB JUMPI PUSH2 0x1FFA PUSH2 0x1C0E JUMP JUMPDEST JUMPDEST DUP2 DUP2 MUL SWAP1 POP JUMPDEST SWAP4 SWAP3 POP POP POP JUMP JUMPDEST PUSH1 0x0 PUSH2 0x2013 DUP3 PUSH2 0x1759 JUMP JUMPDEST SWAP2 POP PUSH2 0x201E DUP4 PUSH2 0x1E3A JUMP JUMPDEST SWAP3 POP PUSH2 0x204B PUSH32 0xFFFFFFFFFFFFFFFFFFFFFFFFFFFFFFFFFFFFFFFFFFFFFFFFFFFFFFFFFFFFFFFF DUP5 DUP5 PUSH2 0x1F35 JUMP JUMPDEST SWAP1 POP SWAP3 SWAP2 POP POP JUMP JUMPDEST PUSH1 0x0 PUSH2 0x205E DUP3 PUSH2 0x1759 JUMP JUMPDEST SWAP2 POP PUSH2 0x2069 DUP4 PUSH2 0x1759 JUMP JUMPDEST SWAP3 POP DUP3 DUP3 MUL PUSH2 0x2077 DUP2 PUSH2 0x1759 JUMP JUMPDEST SWAP2 POP DUP3 DUP3 DIV DUP5 EQ DUP4 ISZERO OR PUSH2 0x208E JUMPI PUSH2 0x208D PUSH2 0x1C0E JUMP JUMPDEST JUMPDEST POP SWAP3 SWAP2 POP POP JUMP JUMPDEST PUSH32 0x4174206C6561737420302E3120666F7220656163682075736572000000000000 PUSH1 0x0 DUP3 ADD MSTORE POP JUMP JUMPDEST PUSH1 0x0 PUSH2 0x20CB PUSH1 0x1A DUP4 PUSH2 0x1C79 JUMP JUMPDEST SWAP2 POP PUSH2 0x20D6 DUP3 PUSH2 0x2095 JUMP JUMPDEST PUSH1 0x20 DUP3 ADD SWAP1 POP SWAP2 SWAP1 POP JUMP JUMPDEST PUSH1 0x0 PUSH1 0x20 DUP3 ADD SWAP1 POP DUP2 DUP2 SUB PUSH1 0x0 DUP4 ADD MSTORE PUSH2 0x20FA DUP2 PUSH2 0x20BE JUMP JUMPDEST SWAP1 POP SWAP2 SWAP1 POP JUMP JUMPDEST PUSH32 0x4E6F20656E6F7567682045544800000000000000000000000000000000000000 PUSH1 0x0 DUP3 ADD MSTORE POP JUMP JUMPDEST PUSH1 0x0 PUSH2 0x2137 PUSH1 0xD DUP4 PUSH2 0x1C79 JUMP JUMPDEST SWAP2 POP PUSH2 0x2142 DUP3 PUSH2 0x2101 JUMP JUMPDEST PUSH1 0x20 DUP3 ADD SWAP1 POP SWAP2 SWAP1 POP JUMP JUMPDEST PUSH1 0x0 PUSH1 0x20 DUP3 ADD SWAP1 POP DUP2 DUP2 SUB PUSH1 0x0 DUP4 ADD MSTORE PUSH2 0x2166 DUP2 PUSH2 0x212A JUMP JUMPDEST SWAP1 POP SWAP2 SWAP1 POP JUMP JUMPDEST PUSH1 0x0 PUSH1 0x20 DUP3 ADD SWAP1 POP PUSH2 0x2182 PUSH1 0x0 DUP4 ADD DUP5 PUSH2 0x174A JUMP JUMPDEST SWAP3 SWAP2 POP POP JUMP JUMPDEST PUSH1 0x0 DUP2 MLOAD SWAP1 POP PUSH2 0x2197 DUP2 PUSH2 0x17EE JUMP JUMPDEST SWAP3 SWAP2 POP POP JUMP JUMPDEST PUSH1 0x0 PUSH1 0x20 DUP3 DUP5 SUB SLT ISZERO PUSH2 0x21B3 JUMPI PUSH2 0x21B2 PUSH2 0x16AB JUMP JUMPDEST JUMPDEST PUSH1 0x0 PUSH2 0x21C1 DUP5 DUP3 DUP6 ADD PUSH2 0x2188 JUMP JUMPDEST SWAP2 POP POP SWAP3 SWAP2 POP POP JUMP JUMPDEST PUSH1 0x0 PUSH2 0x21D5 DUP3 PUSH2 0x1759 JUMP JUMPDEST SWAP2 POP PUSH2 0x21E0 DUP4 PUSH2 0x1759 JUMP JUMPDEST SWAP3 POP DUP3 DUP3 SUB SWAP1 POP DUP2 DUP2 GT ISZERO PUSH2 0x21F8 JUMPI PUSH2 0x21F7 PUSH2 0x1C0E JUMP JUMPDEST JUMPDEST SWAP3 SWAP2 POP POP JUMP JUMPDEST PUSH1 0x0 DUP2 PUSH1 0x60 SHL SWAP1 POP SWAP2 SWAP1 POP JUMP JUMPDEST PUSH1 0x0 PUSH2 0x2216 DUP3 PUSH2 0x21FE JUMP JUMPDEST SWAP1 POP SWAP2 SWAP1 POP JUMP JUMPDEST PUSH1 0x0 PUSH2 0x2228 DUP3 PUSH2 0x220B JUMP JUMPDEST SWAP1 POP SWAP2 SWAP1 POP JUMP JUMPDEST PUSH2 0x2240 PUSH2 0x223B DUP3 PUSH2 0x1738 JUMP JUMPDEST PUSH2 0x221D JUMP JUMPDEST DUP3 MSTORE POP POP JUMP JUMPDEST PUSH1 0x0 DUP2 SWAP1 POP SWAP2 SWAP1 POP JUMP JUMPDEST PUSH2 0x2261 PUSH2 0x225C DUP3 PUSH2 0x1759 JUMP JUMPDEST PUSH2 0x2246 JUMP JUMPDEST DUP3 MSTORE POP POP JUMP JUMPDEST PUSH1 0x0 DUP2 PUSH1 0xE0 SHL SWAP1 POP SWAP2 SWAP1 POP JUMP JUMPDEST PUSH1 0x0 PUSH2 0x227F DUP3 PUSH2 0x2267 JUMP JUMPDEST SWAP1 POP SWAP2 SWAP1 POP JUMP JUMPDEST PUSH2 0x2297 PUSH2 0x2292 DUP3 PUSH2 0x1C3D JUMP JUMPDEST PUSH2 0x2274 JUMP JUMPDEST DUP3 MSTORE POP POP JUMP JUMPDEST PUSH1 0x0 DUP2 SWAP1 POP SWAP2 SWAP1 POP JUMP JUMPDEST PUSH2 0x22B8 PUSH2 0x22B3 DUP3 PUSH2 0x16B5 JUMP JUMPDEST PUSH2 0x229D JUMP JUMPDEST DUP3 MSTORE POP POP JUMP JUMPDEST PUSH1 0x0 PUSH2 0x22CA DUP3 DUP9 PUSH2 0x222F JUMP JUMPDEST PUSH1 0x14 DUP3 ADD SWAP2 POP PUSH2 0x22DA DUP3 DUP8 PUSH2 0x2250 JUMP JUMPDEST PUSH1 0x20 DUP3 ADD SWAP2 POP PUSH2 0x22EA DUP3 DUP7 PUSH2 0x2286 JUMP JUMPDEST PUSH1 0x4 DUP3 ADD SWAP2 POP PUSH2 0x22FA DUP3 DUP6 PUSH2 0x22A7 JUMP JUMPDEST PUSH1 0x20 DUP3 ADD SWAP2 POP PUSH2 0x230A DUP3 DUP5 PUSH2 0x22A7 JUMP JUMPDEST PUSH1 0x20 DUP3 ADD SWAP2 POP DUP2 SWAP1 POP SWAP7 SWAP6 POP POP POP POP POP POP JUMP JUMPDEST PUSH2 0x2326 DUP2 PUSH2 0x16B5 JUMP JUMPDEST DUP3 MSTORE POP POP JUMP JUMPDEST PUSH1 0x0 DUP2 MLOAD SWAP1 POP SWAP2 SWAP1 POP JUMP JUMPDEST PUSH1 0x0 JUMPDEST DUP4 DUP2 LT ISZERO PUSH2 0x2355 JUMPI DUP1 DUP3 ADD MLOAD DUP2 DUP5 ADD MSTORE PUSH1 0x20 DUP2 ADD SWAP1 POP PUSH2 0x233A JUMP JUMPDEST PUSH1 0x0 DUP5 DUP5 ADD MSTORE POP POP POP POP JUMP JUMPDEST PUSH1 0x0 PUSH2 0x236C DUP3 PUSH2 0x232C JUMP JUMPDEST PUSH2 0x2376 DUP2 DUP6 PUSH2 0x1C79 JUMP JUMPDEST SWAP4 POP PUSH2 0x2386 DUP2 DUP6 PUSH1 0x20 DUP7 ADD PUSH2 0x2337 JUMP JUMPDEST PUSH2 0x238F DUP2 PUSH2 0x1850 JUMP JUMPDEST DUP5 ADD SWAP2 POP POP SWAP3 SWAP2 POP POP JUMP JUMPDEST PUSH1 0x0 PUSH2 0x140 DUP3 ADD SWAP1 POP PUSH2 0x23B0 PUSH1 0x0 DUP4 ADD DUP14 PUSH2 0x1763 JUMP JUMPDEST PUSH2 0x23BD PUSH1 0x20 DUP4 ADD DUP13 PUSH2 0x231D JUMP JUMPDEST DUP2 DUP2 SUB PUSH1 0x40 DUP4 ADD MSTORE PUSH2 0x23CF DUP2 DUP12 PUSH2 0x2361 JUMP JUMPDEST SWAP1 POP DUP2 DUP2 SUB PUSH1 0x60 DUP4 ADD MSTORE PUSH2 0x23E3 DUP2 DUP11 PUSH2 0x2361 JUMP JUMPDEST SWAP1 POP PUSH2 0x23F2 PUSH1 0x80 DUP4 ADD DUP10 PUSH2 0x174A JUMP JUMPDEST PUSH2 0x23FF PUSH1 0xA0 DUP4 ADD DUP9 PUSH2 0x1763 JUMP JUMPDEST PUSH2 0x240C PUSH1 0xC0 DUP4 ADD DUP8 PUSH2 0x174A JUMP JUMPDEST PUSH2 0x2419 PUSH1 0xE0 DUP4 ADD DUP7 PUSH2 0x1763 JUMP JUMPDEST PUSH2 0x2427 PUSH2 0x100 DUP4 ADD DUP6 PUSH2 0x177E JUMP JUMPDEST PUSH2 0x2435 PUSH2 0x120 DUP4 ADD DUP5 PUSH2 0x1763 JUMP JUMPDEST SWAP12 SWAP11 POP POP POP POP POP POP POP POP POP POP POP JUMP JUMPDEST PUSH32 0x5265647061636B6564204F776E6572204F6E6C79000000000000000000000000 PUSH1 0x0 DUP3 ADD MSTORE POP JUMP JUMPDEST PUSH1 0x0 PUSH2 0x247A PUSH1 0x14 DUP4 PUSH2 0x1C79 JUMP JUMPDEST SWAP2 POP PUSH2 0x2485 DUP3 PUSH2 0x2444 JUMP JUMPDEST PUSH1 0x20 DUP3 ADD SWAP1 POP SWAP2 SWAP1 POP JUMP JUMPDEST PUSH1 0x0 PUSH1 0x20 DUP3 ADD SWAP1 POP DUP2 DUP2 SUB PUSH1 0x0 DUP4 ADD MSTORE PUSH2 0x24A9 DUP2 PUSH2 0x246D JUMP JUMPDEST SWAP1 POP SWAP2 SWAP1 POP JUMP JUMPDEST PUSH32 0x4E6F742065787069726564207965740000000000000000000000000000000000 PUSH1 0x0 DUP3 ADD MSTORE POP JUMP JUMPDEST PUSH1 0x0 PUSH2 0x24E6 PUSH1 0xF DUP4 PUSH2 0x1C79 JUMP JUMPDEST SWAP2 POP PUSH2 0x24F1 DUP3 PUSH2 0x24B0 JUMP JUMPDEST PUSH1 0x20 DUP3 ADD SWAP1 POP SWAP2 SWAP1 POP JUMP JUMPDEST PUSH1 0x0 PUSH1 0x20 DUP3 ADD SWAP1 POP DUP2 DUP2 SUB PUSH1 0x0 DUP4 ADD MSTORE PUSH2 0x2515 DUP2 PUSH2 0x24D9 JUMP JUMPDEST SWAP1 POP SWAP2 SWAP1 POP JUMP JUMPDEST PUSH32 0x4E6F6E65206C65667420696E2074686520726564207061636B65740000000000 PUSH1 0x0 DUP3 ADD MSTORE POP JUMP JUMPDEST PUSH1 0x0 PUSH2 0x2552 PUSH1 0x1B DUP4 PUSH2 0x1C79 JUMP JUMPDEST SWAP2 POP PUSH2 0x255D DUP3 PUSH2 0x251C JUMP JUMPDEST PUSH1 0x20 DUP3 ADD SWAP1 POP SWAP2 SWAP1 POP JUMP JUMPDEST PUSH1 0x0 PUSH1 0x20 DUP3 ADD SWAP1 POP DUP2 DUP2 SUB PUSH1 0x0 DUP4 ADD MSTORE PUSH2 0x2581 DUP2 PUSH2 0x2545 JUMP JUMPDEST SWAP1 POP SWAP2 SWAP1 POP JUMP JUMPDEST PUSH1 0x0 PUSH1 0x60 DUP3 ADD SWAP1 POP PUSH2 0x259D PUSH1 0x0 DUP4 ADD DUP7 PUSH2 0x231D JUMP JUMPDEST PUSH2 0x25AA PUSH1 0x20 DUP4 ADD DUP6 PUSH2 0x174A JUMP JUMPDEST PUSH2 0x25B7 PUSH1 0x40 DUP4 ADD DUP5 PUSH2 0x1763 JUMP JUMPDEST SWAP5 SWAP4 POP POP POP POP JUMP JUMPDEST PUSH32 0x496E697469616C697A61626C653A20636F6E747261637420697320616C726561 PUSH1 0x0 DUP3 ADD MSTORE PUSH32 0x647920696E697469616C697A6564000000000000000000000000000000000000 PUSH1 0x20 DUP3 ADD MSTORE POP JUMP JUMPDEST PUSH1 0x0 PUSH2 0x261B PUSH1 0x2E DUP4 PUSH2 0x1C79 JUMP JUMPDEST SWAP2 POP PUSH2 0x2626 DUP3 PUSH2 0x25BF JUMP JUMPDEST PUSH1 0x40 DUP3 ADD SWAP1 POP SWAP2 SWAP1 POP JUMP JUMPDEST PUSH1 0x0 PUSH1 0x20 DUP3 ADD SWAP1 POP DUP2 DUP2 SUB PUSH1 0x0 DUP4 ADD MSTORE PUSH2 0x264A DUP2 PUSH2 0x260E JUMP JUMPDEST SWAP1 POP SWAP2 SWAP1 POP JUMP JUMPDEST PUSH1 0x0 DUP2 SWAP1 POP SWAP3 SWAP2 POP POP JUMP JUMPDEST PUSH32 0x205265647061636B657420000000000000000000000000000000000000000000 PUSH1 0x0 DUP3 ADD MSTORE POP JUMP JUMPDEST PUSH1 0x0 PUSH2 0x2692 PUSH1 0xB DUP4 PUSH2 0x2651 JUMP JUMPDEST SWAP2 POP PUSH2 0x269D DUP3 PUSH2 0x265C JUMP JUMPDEST PUSH1 0xB DUP3 ADD SWAP1 POP SWAP2 SWAP1 POP JUMP JUMPDEST PUSH1 0x0 PUSH2 0x26B3 DUP3 PUSH2 0x2685 JUMP JUMPDEST SWAP2 POP PUSH2 0x26BF DUP3 DUP6 PUSH2 0x2250 JUMP JUMPDEST PUSH1 0x20 DUP3 ADD SWAP2 POP PUSH2 0x26CF DUP3 DUP5 PUSH2 0x222F JUMP JUMPDEST PUSH1 0x14 DUP3 ADD SWAP2 POP DUP2 SWAP1 POP SWAP4 SWAP3 POP POP POP JUMP JUMPDEST PUSH32 0x4578706972656400000000000000000000000000000000000000000000000000 PUSH1 0x0 DUP3 ADD MSTORE POP JUMP JUMPDEST PUSH1 0x0 PUSH2 0x2715 PUSH1 0x7 DUP4 PUSH2 0x1C79 JUMP JUMPDEST SWAP2 POP PUSH2 0x2720 DUP3 PUSH2 0x26DF JUMP JUMPDEST PUSH1 0x20 DUP3 ADD SWAP1 POP SWAP2 SWAP1 POP JUMP JUMPDEST PUSH1 0x0 PUSH1 0x20 DUP3 ADD SWAP1 POP DUP2 DUP2 SUB PUSH1 0x0 DUP4 ADD MSTORE PUSH2 0x2744 DUP2 PUSH2 0x2708 JUMP JUMPDEST SWAP1 POP SWAP2 SWAP1 POP JUMP JUMPDEST PUSH32 0x4F7574206F662073746F636B0000000000000000000000000000000000000000 PUSH1 0x0 DUP3 ADD MSTORE POP JUMP JUMPDEST PUSH1 0x0 PUSH2 0x2781 PUSH1 0xC DUP4 PUSH2 0x1C79 JUMP JUMPDEST SWAP2 POP PUSH2 0x278C DUP3 PUSH2 0x274B JUMP JUMPDEST PUSH1 0x20 DUP3 ADD SWAP1 POP SWAP2 SWAP1 POP JUMP JUMPDEST PUSH1 0x0 PUSH1 0x20 DUP3 ADD SWAP1 POP DUP2 DUP2 SUB PUSH1 0x0 DUP4 ADD MSTORE PUSH2 0x27B0 DUP2 PUSH2 0x2774 JUMP JUMPDEST SWAP1 POP SWAP2 SWAP1 POP JUMP JUMPDEST PUSH32 0x566572696669636174696F6E206661696C656400000000000000000000000000 PUSH1 0x0 DUP3 ADD MSTORE POP JUMP JUMPDEST PUSH1 0x0 PUSH2 0x27ED PUSH1 0x13 DUP4 PUSH2 0x1C79 JUMP JUMPDEST SWAP2 POP PUSH2 0x27F8 DUP3 PUSH2 0x27B7 JUMP JUMPDEST PUSH1 0x20 DUP3 ADD SWAP1 POP SWAP2 SWAP1 POP JUMP JUMPDEST PUSH1 0x0 PUSH1 0x20 DUP3 ADD SWAP1 POP DUP2 DUP2 SUB PUSH1 0x0 DUP4 ADD MSTORE PUSH2 0x281C DUP2 PUSH2 0x27E0 JUMP JUMPDEST SWAP1 POP SWAP2 SWAP1 POP JUMP JUMPDEST PUSH32 0x4E487B7100000000000000000000000000000000000000000000000000000000 PUSH1 0x0 MSTORE PUSH1 0x12 PUSH1 0x4 MSTORE PUSH1 0x24 PUSH1 0x0 REVERT JUMPDEST PUSH1 0x0 PUSH2 0x285D DUP3 PUSH2 0x1759 JUMP JUMPDEST SWAP2 POP PUSH2 0x2868 DUP4 PUSH2 0x1759 JUMP JUMPDEST SWAP3 POP DUP3 PUSH2 0x2878 JUMPI PUSH2 0x2877 PUSH2 0x2823 JUMP JUMPDEST JUMPDEST DUP3 DUP3 DIV SWAP1 POP SWAP3 SWAP2 POP POP JUMP JUMPDEST PUSH1 0x0 PUSH2 0x288E DUP3 PUSH2 0x1759 JUMP JUMPDEST SWAP2 POP PUSH2 0x2899 DUP4 PUSH2 0x1759 JUMP JUMPDEST SWAP3 POP DUP3 PUSH2 0x28A9 JUMPI PUSH2 0x28A8 PUSH2 0x2823 JUMP JUMPDEST JUMPDEST DUP3 DUP3 MOD SWAP1 POP SWAP3 SWAP2 POP POP JUMP JUMPDEST PUSH32 0x416C726561647920636C61696D65640000000000000000000000000000000000 PUSH1 0x0 DUP3 ADD MSTORE POP JUMP JUMPDEST PUSH1 0x0 PUSH2 0x28EA PUSH1 0xF DUP4 PUSH2 0x1C79 JUMP JUMPDEST SWAP2 POP PUSH2 0x28F5 DUP3 PUSH2 0x28B4 JUMP JUMPDEST PUSH1 0x20 DUP3 ADD SWAP1 POP SWAP2 SWAP1 POP JUMP JUMPDEST PUSH1 0x0 PUSH1 0x20 DUP3 ADD SWAP1 POP DUP2 DUP2 SUB PUSH1 0x0 DUP4 ADD MSTORE PUSH2 0x2919 DUP2 PUSH2 0x28DD JUMP JUMPDEST SWAP1 POP SWAP2 SWAP1 POP JUMP JUMPDEST PUSH1 0x0 PUSH2 0x292B DUP3 PUSH2 0x1759 JUMP JUMPDEST SWAP2 POP PUSH2 0x2936 DUP4 PUSH2 0x1759 JUMP JUMPDEST SWAP3 POP DUP3 DUP3 ADD SWAP1 POP DUP1 DUP3 GT ISZERO PUSH2 0x294E JUMPI PUSH2 0x294D PUSH2 0x1C0E JUMP JUMPDEST JUMPDEST SWAP3 SWAP2 POP POP JUMP JUMPDEST PUSH1 0x0 PUSH1 0x80 DUP3 ADD SWAP1 POP PUSH2 0x2969 PUSH1 0x0 DUP4 ADD DUP8 PUSH2 0x231D JUMP JUMPDEST PUSH2 0x2976 PUSH1 0x20 DUP4 ADD DUP7 PUSH2 0x174A JUMP JUMPDEST PUSH2 0x2983 PUSH1 0x40 DUP4 ADD DUP6 PUSH2 0x1763 JUMP JUMPDEST PUSH2 0x2990 PUSH1 0x60 DUP4 ADD DUP5 PUSH2 0x174A JUMP JUMPDEST SWAP6 SWAP5 POP POP POP POP POP JUMP JUMPDEST PUSH32 0x56616C7565206F7574206F662072616E676520554E424F580000000000000000 PUSH1 0x0 DUP3 ADD MSTORE POP JUMP JUMPDEST PUSH1 0x0 PUSH2 0x29CF PUSH1 0x18 DUP4 PUSH2 0x1C79 JUMP JUMPDEST SWAP2 POP PUSH2 0x29DA DUP3 PUSH2 0x2999 JUMP JUMPDEST PUSH1 0x20 DUP3 ADD SWAP1 POP SWAP2 SWAP1 POP JUMP JUMPDEST PUSH1 0x0 PUSH1 0x20 DUP3 ADD SWAP1 POP DUP2 DUP2 SUB PUSH1 0x0 DUP4 ADD MSTORE PUSH2 0x29FE DUP2 PUSH2 0x29C2 JUMP JUMPDEST SWAP1 POP SWAP2 SWAP1 POP JUMP JUMPDEST PUSH1 0x0 PUSH1 0x60 DUP3 ADD SWAP1 POP PUSH2 0x2A1A PUSH1 0x0 DUP4 ADD DUP7 PUSH2 0x174A JUMP JUMPDEST PUSH2 0x2A27 PUSH1 0x20 DUP4 ADD DUP6 PUSH2 0x174A JUMP JUMPDEST PUSH2 0x2A34 PUSH1 0x40 DUP4 ADD DUP5 PUSH2 0x1763 JUMP JUMPDEST SWAP5 SWAP4 POP POP POP POP JUMP JUMPDEST PUSH1 0x0 PUSH2 0x2A48 DUP3 DUP5 PUSH2 0x222F JUMP JUMPDEST PUSH1 0x14 DUP3 ADD SWAP2 POP DUP2 SWAP1 POP SWAP3 SWAP2 POP POP JUMP JUMPDEST PUSH1 0x0 PUSH2 0x2A63 DUP3 DUP8 PUSH2 0x2286 JUMP JUMPDEST PUSH1 0x4 DUP3 ADD SWAP2 POP PUSH2 0x2A73 DUP3 DUP7 PUSH2 0x222F JUMP JUMPDEST PUSH1 0x14 DUP3 ADD SWAP2 POP PUSH2 0x2A83 DUP3 DUP6 PUSH2 0x22A7 JUMP JUMPDEST PUSH1 0x20 DUP3 ADD SWAP2 POP PUSH2 0x2A93 DUP3 DUP5 PUSH2 0x2250 JUMP JUMPDEST PUSH1 0x20 DUP3 ADD SWAP2 POP DUP2 SWAP1 POP SWAP6 SWAP5 POP POP POP POP POP JUMP JUMPDEST PUSH1 0x0 DUP2 MLOAD SWAP1 POP PUSH2 0x2AB4 DUP2 PUSH2 0x181A JUMP JUMPDEST SWAP3 SWAP2 POP POP JUMP JUMPDEST PUSH1 0x0 PUSH1 0x20 DUP3 DUP5 SUB SLT ISZERO PUSH2 0x2AD0 JUMPI PUSH2 0x2ACF PUSH2 0x16AB JUMP JUMPDEST JUMPDEST PUSH1 0x0 PUSH2 0x2ADE DUP5 DUP3 DUP6 ADD PUSH2 0x2AA5 JUMP JUMPDEST SWAP2 POP POP SWAP3 SWAP2 POP POP JUMP JUMPDEST PUSH32 0x5361666545524332303A204552433230206F7065726174696F6E20646964206E PUSH1 0x0 DUP3 ADD MSTORE PUSH32 0x6F74207375636365656400000000000000000000000000000000000000000000 PUSH1 0x20 DUP3 ADD MSTORE POP JUMP JUMPDEST PUSH1 0x0 PUSH2 0x2B43 PUSH1 0x2A DUP4 PUSH2 0x1C79 JUMP JUMPDEST SWAP2 POP PUSH2 0x2B4E DUP3 PUSH2 0x2AE7 JUMP JUMPDEST PUSH1 0x40 DUP3 ADD SWAP1 POP SWAP2 SWAP1 POP JUMP JUMPDEST PUSH1 0x0 PUSH1 0x20 DUP3 ADD SWAP1 POP DUP2 DUP2 SUB PUSH1 0x0 DUP4 ADD MSTORE PUSH2 0x2B72 DUP2 PUSH2 0x2B36 JUMP JUMPDEST SWAP1 POP SWAP2 SWAP1 POP JUMP JUMPDEST PUSH32 0x56616C7565206F7574206F662072616E676520424F5800000000000000000000 PUSH1 0x0 DUP3 ADD MSTORE POP JUMP JUMPDEST PUSH1 0x0 PUSH2 0x2BAF PUSH1 0x16 DUP4 PUSH2 0x1C79 JUMP JUMPDEST SWAP2 POP PUSH2 0x2BBA DUP3 PUSH2 0x2B79 JUMP JUMPDEST PUSH1 0x20 DUP3 ADD SWAP1 POP SWAP2 SWAP1 POP JUMP JUMPDEST PUSH1 0x0 PUSH1 0x20 DUP3 ADD SWAP1 POP DUP2 DUP2 SUB PUSH1 0x0 DUP4 ADD MSTORE PUSH2 0x2BDE DUP2 PUSH2 0x2BA2 JUMP JUMPDEST SWAP1 POP SWAP2 SWAP1 POP JUMP JUMPDEST PUSH1 0x0 PUSH1 0x40 DUP3 ADD SWAP1 POP PUSH2 0x2BFA PUSH1 0x0 DUP4 ADD DUP6 PUSH2 0x174A JUMP JUMPDEST PUSH2 0x2C07 PUSH1 0x20 DUP4 ADD DUP5 PUSH2 0x1763 JUMP JUMPDEST SWAP4 SWAP3 POP POP POP JUMP JUMPDEST PUSH32 0x4E487B7100000000000000000000000000000000000000000000000000000000 PUSH1 0x0 MSTORE PUSH1 0x32 PUSH1 0x4 MSTORE PUSH1 0x24 PUSH1 0x0 REVERT JUMPDEST PUSH32 0x416464726573733A20696E73756666696369656E742062616C616E636520666F PUSH1 0x0 DUP3 ADD MSTORE PUSH32 0x722063616C6C0000000000000000000000000000000000000000000000000000 PUSH1 0x20 DUP3 ADD MSTORE POP JUMP JUMPDEST PUSH1 0x0 PUSH2 0x2C99 PUSH1 0x26 DUP4 PUSH2 0x1C79 JUMP JUMPDEST SWAP2 POP PUSH2 0x2CA4 DUP3 PUSH2 0x2C3D JUMP JUMPDEST PUSH1 0x40 DUP3 ADD SWAP1 POP SWAP2 SWAP1 POP JUMP JUMPDEST PUSH1 0x0 PUSH1 0x20 DUP3 ADD SWAP1 POP DUP2 DUP2 SUB PUSH1 0x0 DUP4 ADD MSTORE PUSH2 0x2CC8 DUP2 PUSH2 0x2C8C JUMP JUMPDEST SWAP1 POP SWAP2 SWAP1 POP JUMP JUMPDEST PUSH32 0x416464726573733A2063616C6C20746F206E6F6E2D636F6E7472616374000000 PUSH1 0x0 DUP3 ADD MSTORE POP JUMP JUMPDEST PUSH1 0x0 PUSH2 0x2D05 PUSH1 0x1D DUP4 PUSH2 0x1C79 JUMP JUMPDEST SWAP2 POP PUSH2 0x2D10 DUP3 PUSH2 0x2CCF JUMP JUMPDEST PUSH1 0x20 DUP3 ADD SWAP1 POP SWAP2 SWAP1 POP JUMP JUMPDEST PUSH1 0x0 PUSH1 0x20 DUP3 ADD SWAP1 POP DUP2 DUP2 SUB PUSH1 0x0 DUP4 ADD MSTORE PUSH2 0x2D34 DUP2 PUSH2 0x2CF8 JUMP JUMPDEST SWAP1 POP SWAP2 SWAP1 POP JUMP JUMPDEST PUSH1 0x0 DUP2 MLOAD SWAP1 POP SWAP2 SWAP1 POP JUMP JUMPDEST PUSH1 0x0 DUP2 SWAP1 POP SWAP3 SWAP2 POP POP JUMP JUMPDEST PUSH1 0x0 PUSH2 0x2D5C DUP3 PUSH2 0x2D3B JUMP JUMPDEST PUSH2 0x2D66 DUP2 DUP6 PUSH2 0x2D46 JUMP JUMPDEST SWAP4 POP PUSH2 0x2D76 DUP2 DUP6 PUSH1 0x20 DUP7 ADD PUSH2 0x2337 JUMP JUMPDEST DUP1 DUP5 ADD SWAP2 POP POP SWAP3 SWAP2 POP POP JUMP JUMPDEST PUSH1 0x0 PUSH2 0x2D8E DUP3 DUP5 PUSH2 0x2D51 JUMP JUMPDEST SWAP2 POP DUP2 SWAP1 POP SWAP3 SWAP2 POP POP JUMP JUMPDEST PUSH1 0x0 PUSH1 0x20 DUP3 ADD SWAP1 POP DUP2 DUP2 SUB PUSH1 0x0 DUP4 ADD MSTORE PUSH2 0x2DB3 DUP2 DUP5 PUSH2 0x2361 JUMP JUMPDEST SWAP1 POP SWAP3 SWAP2 POP POP JUMP INVALID LOG2 PUSH5 0x6970667358 0x22 SLT KECCAK256 SWAP3 0xCC SWAP9 PUSH4 0x38C07E07 0x4C 0xCA MSTORE8 PUSH1 0x26 CALLDATACOPY 0xB8 KECCAK256 0x2F 0xA9 0xAB SWAP9 0xCB SWAP11 EXP 0xC8 0xBA DUP4 SWAP6 SWAP4 SWAP1 TLOAD SSTORE 0x4F PUSH5 0x736F6C6343 STOP ADDMOD XOR STOP CALLER "},"methodIdentifiers":{"claim(bytes32,bytes32[])":"f5c05eb7","create_redPacked(bytes32,uint256,bool,uint256,bytes32,string,string,uint256,address,uint256)":"167e91b1","getRedpacked(bytes32)":"03b09363","initialize()":"8129fc1c","refund(bytes32)":"7249fbb6"}}}}}