{"contracts/ERC721/SmartWallet.sol":{"SmartWallet":{"abi":[{"inputs":[{"internalType":"address","name":"initialOwner","type":"address"}],"stateMutability":"nonpayable","type":"constructor"},{"inputs":[],"name":"ECDSAInvalidSignature","type":"error"},{"inputs":[{"internalType":"uint256","name":"length","type":"uint256"}],"name":"ECDSAInvalidSignatureLength","type":"error"},{"inputs":[{"internalType":"bytes32","name":"s","type":"bytes32"}],"name":"ECDSAInvalidSignatureS","type":"error"},{"inputs":[{"internalType":"address","name":"owner","type":"address"}],"name":"OwnableInvalidOwner","type":"error"},{"inputs":[{"internalType":"address","name":"account","type":"address"}],"name":"OwnableUnauthorizedAccount","type":"error"},{"anonymous":false,"inputs":[{"indexed":true,"internalType":"address","name":"previousOwner","type":"address"},{"indexed":true,"internalType":"address","name":"newOwner","type":"address"}],"name":"OwnershipTransferred","type":"event"},{"inputs":[{"internalType":"address","name":"target","type":"address"},{"internalType":"uint256","name":"value","type":"uint256"},{"internalType":"bytes","name":"data","type":"bytes"}],"name":"execute","outputs":[{"internalType":"bytes","name":"","type":"bytes"}],"stateMutability":"nonpayable","type":"function"},{"inputs":[{"internalType":"bytes32","name":"hash","type":"bytes32"},{"internalType":"bytes","name":"signature","type":"bytes"}],"name":"isValidSignature","outputs":[{"internalType":"bytes4","name":"magicValue","type":"bytes4"}],"stateMutability":"view","type":"function"},{"inputs":[],"name":"owner","outputs":[{"internalType":"address","name":"","type":"address"}],"stateMutability":"view","type":"function"},{"inputs":[],"name":"renounceOwnership","outputs":[],"stateMutability":"nonpayable","type":"function"},{"inputs":[{"internalType":"address","name":"newOwner","type":"address"}],"name":"transferOwnership","outputs":[],"stateMutability":"nonpayable","type":"function"}],"evm":{"bytecode":{"linkReferences":{},"object":"60806040523480156200001157600080fd5b5060405162000eee38038062000eee8339818101604052810190620000379190620001f4565b80600073ffffffffffffffffffffffffffffffffffffffff168173ffffffffffffffffffffffffffffffffffffffff1603620000ad5760006040517f1e4fbdf7000000000000000000000000000000000000000000000000000000008152600401620000a4919062000237565b60405180910390fd5b620000be81620000c660201b60201c565b505062000254565b60008060009054906101000a900473ffffffffffffffffffffffffffffffffffffffff169050816000806101000a81548173ffffffffffffffffffffffffffffffffffffffff021916908373ffffffffffffffffffffffffffffffffffffffff1602179055508173ffffffffffffffffffffffffffffffffffffffff168173ffffffffffffffffffffffffffffffffffffffff167f8be0079c531659141344cd1fd0a4f28419497f9722a3daafe3b4186f6b6457e060405160405180910390a35050565b600080fd5b600073ffffffffffffffffffffffffffffffffffffffff82169050919050565b6000620001bc826200018f565b9050919050565b620001ce81620001af565b8114620001da57600080fd5b50565b600081519050620001ee81620001c3565b92915050565b6000602082840312156200020d576200020c6200018a565b5b60006200021d84828501620001dd565b91505092915050565b6200023181620001af565b82525050565b60006020820190506200024e600083018462000226565b92915050565b610c8a80620002646000396000f3fe608060405234801561001057600080fd5b50600436106100575760003560e01c80631626ba7e1461005c578063715018a61461008c5780638da5cb5b14610096578063b61d27f6146100b4578063f2fde38b146100e4575b600080fd5b61007660048036038101906100719190610870565b610100565b6040516100839190610907565b60405180910390f35b61009461015a565b005b61009e61016e565b6040516100ab9190610963565b60405180910390f35b6100ce60048036038101906100c991906109e0565b610197565b6040516100db9190610ace565b60405180910390f35b6100fe60048036038101906100f99190610af0565b610227565b005b600061010c83836102ad565b73ffffffffffffffffffffffffffffffffffffffff1661012a61016e565b73ffffffffffffffffffffffffffffffffffffffff161461014a57600080fd5b631626ba7e60e01b905092915050565b6101626102d9565b61016c6000610360565b565b60008060009054906101000a900473ffffffffffffffffffffffffffffffffffffffff16905090565b60606101a16102d9565b6000808573ffffffffffffffffffffffffffffffffffffffff1685856040516101ca9190610b59565b60006040518083038185875af1925050503d8060008114610207576040519150601f19603f3d011682016040523d82523d6000602084013e61020c565b606091505b50915091508161021b57600080fd5b80925050509392505050565b61022f6102d9565b600073ffffffffffffffffffffffffffffffffffffffff168173ffffffffffffffffffffffffffffffffffffffff16036102a15760006040517f1e4fbdf70000000000000000000000000000000000000000000000000000000081526004016102989190610963565b60405180910390fd5b6102aa81610360565b50565b6000806000806102bd8686610424565b9250925092506102cd8282610480565b82935050505092915050565b6102e16105e4565b73ffffffffffffffffffffffffffffffffffffffff166102ff61016e565b73ffffffffffffffffffffffffffffffffffffffff161461035e576103226105e4565b6040517f118cdaa70000000000000000000000000000000000000000000000000000000081526004016103559190610963565b60405180910390fd5b565b60008060009054906101000a900473ffffffffffffffffffffffffffffffffffffffff169050816000806101000a81548173ffffffffffffffffffffffffffffffffffffffff021916908373ffffffffffffffffffffffffffffffffffffffff1602179055508173ffffffffffffffffffffffffffffffffffffffff168173ffffffffffffffffffffffffffffffffffffffff167f8be0079c531659141344cd1fd0a4f28419497f9722a3daafe3b4186f6b6457e060405160405180910390a35050565b600080600060418451036104695760008060006020870151925060408701519150606087015160001a905061045b888285856105ec565b955095509550505050610479565b60006002855160001b9250925092505b9250925092565b6000600381111561049457610493610b70565b5b8260038111156104a7576104a6610b70565b5b03156105e057600160038111156104c1576104c0610b70565b5b8260038111156104d4576104d3610b70565b5b0361050b576040517ff645eedf00000000000000000000000000000000000000000000000000000000815260040160405180910390fd5b6002600381111561051f5761051e610b70565b5b82600381111561053257610531610b70565b5b03610577578060001c6040517ffce698f700000000000000000000000000000000000000000000000000000000815260040161056e9190610bae565b60405180910390fd5b60038081111561058a57610589610b70565b5b82600381111561059d5761059c610b70565b5b036105df57806040517fd78bce0c0000000000000000000000000000000000000000000000000000000081526004016105d69190610bd8565b60405180910390fd5b5b5050565b600033905090565b60008060007f7fffffffffffffffffffffffffffffff5d576e7357a4501ddfe92f46681b20a08460001c111561062c5760006003859250925092506106d6565b6000600188888888604051600081526020016040526040516106519493929190610c0f565b6020604051602081039080840390855afa158015610673573d6000803e3d6000fd5b505050602060405103519050600073ffffffffffffffffffffffffffffffffffffffff168173ffffffffffffffffffffffffffffffffffffffff16036106c757600060016000801b935093509350506106d6565b8060008060001b935093509350505b9450945094915050565b6000604051905090565b600080fd5b600080fd5b6000819050919050565b610707816106f4565b811461071257600080fd5b50565b600081359050610724816106fe565b92915050565b600080fd5b600080fd5b6000601f19601f8301169050919050565b7f4e487b7100000000000000000000000000000000000000000000000000000000600052604160045260246000fd5b61077d82610734565b810181811067ffffffffffffffff8211171561079c5761079b610745565b5b80604052505050565b60006107af6106e0565b90506107bb8282610774565b919050565b600067ffffffffffffffff8211156107db576107da610745565b5b6107e482610734565b9050602081019050919050565b82818337600083830152505050565b600061081361080e846107c0565b6107a5565b90508281526020810184848401111561082f5761082e61072f565b5b61083a8482856107f1565b509392505050565b600082601f8301126108575761085661072a565b5b8135610867848260208601610800565b91505092915050565b60008060408385031215610887576108866106ea565b5b600061089585828601610715565b925050602083013567ffffffffffffffff8111156108b6576108b56106ef565b5b6108c285828601610842565b9150509250929050565b60007fffffffff0000000000000000000000000000000000000000000000000000000082169050919050565b610901816108cc565b82525050565b600060208201905061091c60008301846108f8565b92915050565b600073ffffffffffffffffffffffffffffffffffffffff82169050919050565b600061094d82610922565b9050919050565b61095d81610942565b82525050565b60006020820190506109786000830184610954565b92915050565b61098781610942565b811461099257600080fd5b50565b6000813590506109a48161097e565b92915050565b6000819050919050565b6109bd816109aa565b81146109c857600080fd5b50565b6000813590506109da816109b4565b92915050565b6000806000606084860312156109f9576109f86106ea565b5b6000610a0786828701610995565b9350506020610a18868287016109cb565b925050604084013567ffffffffffffffff811115610a3957610a386106ef565b5b610a4586828701610842565b9150509250925092565b600081519050919050565b600082825260208201905092915050565b60005b83811015610a89578082015181840152602081019050610a6e565b60008484015250505050565b6000610aa082610a4f565b610aaa8185610a5a565b9350610aba818560208601610a6b565b610ac381610734565b840191505092915050565b60006020820190508181036000830152610ae88184610a95565b905092915050565b600060208284031215610b0657610b056106ea565b5b6000610b1484828501610995565b91505092915050565b600081905092915050565b6000610b3382610a4f565b610b3d8185610b1d565b9350610b4d818560208601610a6b565b80840191505092915050565b6000610b658284610b28565b915081905092915050565b7f4e487b7100000000000000000000000000000000000000000000000000000000600052602160045260246000fd5b610ba8816109aa565b82525050565b6000602082019050610bc36000830184610b9f565b92915050565b610bd2816106f4565b82525050565b6000602082019050610bed6000830184610bc9565b92915050565b600060ff82169050919050565b610c0981610bf3565b82525050565b6000608082019050610c246000830187610bc9565b610c316020830186610c00565b610c3e6040830185610bc9565b610c4b6060830184610bc9565b9594505050505056fea2646970667358221220834feeb80e33a26733523ecd8d8bac2c08888d5c6011715496521756d651a20364736f6c63430008180033","opcodes":"PUSH1 0x80 PUSH1 0x40 MSTORE CALLVALUE DUP1 ISZERO PUSH3 0x11 JUMPI PUSH1 0x0 DUP1 REVERT JUMPDEST POP PUSH1 0x40 MLOAD PUSH3 0xEEE CODESIZE SUB DUP1 PUSH3 0xEEE DUP4 CODECOPY DUP2 DUP2 ADD PUSH1 0x40 MSTORE DUP2 ADD SWAP1 PUSH3 0x37 SWAP2 SWAP1 PUSH3 0x1F4 JUMP JUMPDEST DUP1 PUSH1 0x0 PUSH20 0xFFFFFFFFFFFFFFFFFFFFFFFFFFFFFFFFFFFFFFFF AND DUP2 PUSH20 0xFFFFFFFFFFFFFFFFFFFFFFFFFFFFFFFFFFFFFFFF AND SUB PUSH3 0xAD JUMPI PUSH1 0x0 PUSH1 0x40 MLOAD PUSH32 0x1E4FBDF700000000000000000000000000000000000000000000000000000000 DUP2 MSTORE PUSH1 0x4 ADD PUSH3 0xA4 SWAP2 SWAP1 PUSH3 0x237 JUMP JUMPDEST PUSH1 0x40 MLOAD DUP1 SWAP2 SUB SWAP1 REVERT JUMPDEST PUSH3 0xBE DUP2 PUSH3 0xC6 PUSH1 0x20 SHL PUSH1 0x20 SHR JUMP JUMPDEST POP POP PUSH3 0x254 JUMP JUMPDEST PUSH1 0x0 DUP1 PUSH1 0x0 SWAP1 SLOAD SWAP1 PUSH2 0x100 EXP SWAP1 DIV PUSH20 0xFFFFFFFFFFFFFFFFFFFFFFFFFFFFFFFFFFFFFFFF AND SWAP1 POP DUP2 PUSH1 0x0 DUP1 PUSH2 0x100 EXP DUP2 SLOAD DUP2 PUSH20 0xFFFFFFFFFFFFFFFFFFFFFFFFFFFFFFFFFFFFFFFF MUL NOT AND SWAP1 DUP4 PUSH20 0xFFFFFFFFFFFFFFFFFFFFFFFFFFFFFFFFFFFFFFFF AND MUL OR SWAP1 SSTORE POP DUP2 PUSH20 0xFFFFFFFFFFFFFFFFFFFFFFFFFFFFFFFFFFFFFFFF AND DUP2 PUSH20 0xFFFFFFFFFFFFFFFFFFFFFFFFFFFFFFFFFFFFFFFF AND PUSH32 0x8BE0079C531659141344CD1FD0A4F28419497F9722A3DAAFE3B4186F6B6457E0 PUSH1 0x40 MLOAD PUSH1 0x40 MLOAD DUP1 SWAP2 SUB SWAP1 LOG3 POP POP JUMP JUMPDEST PUSH1 0x0 DUP1 REVERT JUMPDEST PUSH1 0x0 PUSH20 0xFFFFFFFFFFFFFFFFFFFFFFFFFFFFFFFFFFFFFFFF DUP3 AND SWAP1 POP SWAP2 SWAP1 POP JUMP JUMPDEST PUSH1 0x0 PUSH3 0x1BC DUP3 PUSH3 0x18F JUMP JUMPDEST SWAP1 POP SWAP2 SWAP1 POP JUMP JUMPDEST PUSH3 0x1CE DUP2 PUSH3 0x1AF JUMP JUMPDEST DUP2 EQ PUSH3 0x1DA JUMPI PUSH1 0x0 DUP1 REVERT JUMPDEST POP JUMP JUMPDEST PUSH1 0x0 DUP2 MLOAD SWAP1 POP PUSH3 0x1EE DUP2 PUSH3 0x1C3 JUMP JUMPDEST SWAP3 SWAP2 POP POP JUMP JUMPDEST PUSH1 0x0 PUSH1 0x20 DUP3 DUP5 SUB SLT ISZERO PUSH3 0x20D JUMPI PUSH3 0x20C PUSH3 0x18A JUMP JUMPDEST JUMPDEST PUSH1 0x0 PUSH3 0x21D DUP5 DUP3 DUP6 ADD PUSH3 0x1DD JUMP JUMPDEST SWAP2 POP POP SWAP3 SWAP2 POP POP JUMP JUMPDEST PUSH3 0x231 DUP2 PUSH3 0x1AF JUMP JUMPDEST DUP3 MSTORE POP POP JUMP JUMPDEST PUSH1 0x0 PUSH1 0x20 DUP3 ADD SWAP1 POP PUSH3 0x24E PUSH1 0x0 DUP4 ADD DUP5 PUSH3 0x226 JUMP JUMPDEST SWAP3 SWAP2 POP POP JUMP JUMPDEST PUSH2 0xC8A DUP1 PUSH3 0x264 PUSH1 0x0 CODECOPY PUSH1 0x0 RETURN INVALID PUSH1 0x80 PUSH1 0x40 MSTORE CALLVALUE DUP1 ISZERO PUSH2 0x10 JUMPI PUSH1 0x0 DUP1 REVERT JUMPDEST POP PUSH1 0x4 CALLDATASIZE LT PUSH2 0x57 JUMPI PUSH1 0x0 CALLDATALOAD PUSH1 0xE0 SHR DUP1 PUSH4 0x1626BA7E EQ PUSH2 0x5C JUMPI DUP1 PUSH4 0x715018A6 EQ PUSH2 0x8C JUMPI DUP1 PUSH4 0x8DA5CB5B EQ PUSH2 0x96 JUMPI DUP1 PUSH4 0xB61D27F6 EQ PUSH2 0xB4 JUMPI DUP1 PUSH4 0xF2FDE38B EQ PUSH2 0xE4 JUMPI JUMPDEST PUSH1 0x0 DUP1 REVERT JUMPDEST PUSH2 0x76 PUSH1 0x4 DUP1 CALLDATASIZE SUB DUP2 ADD SWAP1 PUSH2 0x71 SWAP2 SWAP1 PUSH2 0x870 JUMP JUMPDEST PUSH2 0x100 JUMP JUMPDEST PUSH1 0x40 MLOAD PUSH2 0x83 SWAP2 SWAP1 PUSH2 0x907 JUMP JUMPDEST PUSH1 0x40 MLOAD DUP1 SWAP2 SUB SWAP1 RETURN JUMPDEST PUSH2 0x94 PUSH2 0x15A JUMP JUMPDEST STOP JUMPDEST PUSH2 0x9E PUSH2 0x16E JUMP JUMPDEST PUSH1 0x40 MLOAD PUSH2 0xAB SWAP2 SWAP1 PUSH2 0x963 JUMP JUMPDEST PUSH1 0x40 MLOAD DUP1 SWAP2 SUB SWAP1 RETURN JUMPDEST PUSH2 0xCE PUSH1 0x4 DUP1 CALLDATASIZE SUB DUP2 ADD SWAP1 PUSH2 0xC9 SWAP2 SWAP1 PUSH2 0x9E0 JUMP JUMPDEST PUSH2 0x197 JUMP JUMPDEST PUSH1 0x40 MLOAD PUSH2 0xDB SWAP2 SWAP1 PUSH2 0xACE JUMP JUMPDEST PUSH1 0x40 MLOAD DUP1 SWAP2 SUB SWAP1 RETURN JUMPDEST PUSH2 0xFE PUSH1 0x4 DUP1 CALLDATASIZE SUB DUP2 ADD SWAP1 PUSH2 0xF9 SWAP2 SWAP1 PUSH2 0xAF0 JUMP JUMPDEST PUSH2 0x227 JUMP JUMPDEST STOP JUMPDEST PUSH1 0x0 PUSH2 0x10C DUP4 DUP4 PUSH2 0x2AD JUMP JUMPDEST PUSH20 0xFFFFFFFFFFFFFFFFFFFFFFFFFFFFFFFFFFFFFFFF AND PUSH2 0x12A PUSH2 0x16E JUMP JUMPDEST PUSH20 0xFFFFFFFFFFFFFFFFFFFFFFFFFFFFFFFFFFFFFFFF AND EQ PUSH2 0x14A JUMPI PUSH1 0x0 DUP1 REVERT JUMPDEST PUSH4 0x1626BA7E PUSH1 0xE0 SHL SWAP1 POP SWAP3 SWAP2 POP POP JUMP JUMPDEST PUSH2 0x162 PUSH2 0x2D9 JUMP JUMPDEST PUSH2 0x16C PUSH1 0x0 PUSH2 0x360 JUMP JUMPDEST JUMP JUMPDEST PUSH1 0x0 DUP1 PUSH1 0x0 SWAP1 SLOAD SWAP1 PUSH2 0x100 EXP SWAP1 DIV PUSH20 0xFFFFFFFFFFFFFFFFFFFFFFFFFFFFFFFFFFFFFFFF AND SWAP1 POP SWAP1 JUMP JUMPDEST PUSH1 0x60 PUSH2 0x1A1 PUSH2 0x2D9 JUMP JUMPDEST PUSH1 0x0 DUP1 DUP6 PUSH20 0xFFFFFFFFFFFFFFFFFFFFFFFFFFFFFFFFFFFFFFFF AND DUP6 DUP6 PUSH1 0x40 MLOAD PUSH2 0x1CA SWAP2 SWAP1 PUSH2 0xB59 JUMP JUMPDEST PUSH1 0x0 PUSH1 0x40 MLOAD DUP1 DUP4 SUB DUP2 DUP6 DUP8 GAS CALL SWAP3 POP POP POP RETURNDATASIZE DUP1 PUSH1 0x0 DUP2 EQ PUSH2 0x207 JUMPI PUSH1 0x40 MLOAD SWAP2 POP PUSH1 0x1F NOT PUSH1 0x3F RETURNDATASIZE ADD AND DUP3 ADD PUSH1 0x40 MSTORE RETURNDATASIZE DUP3 MSTORE RETURNDATASIZE PUSH1 0x0 PUSH1 0x20 DUP5 ADD RETURNDATACOPY PUSH2 0x20C JUMP JUMPDEST PUSH1 0x60 SWAP2 POP JUMPDEST POP SWAP2 POP SWAP2 POP DUP2 PUSH2 0x21B JUMPI PUSH1 0x0 DUP1 REVERT JUMPDEST DUP1 SWAP3 POP POP POP SWAP4 SWAP3 POP POP POP JUMP JUMPDEST PUSH2 0x22F PUSH2 0x2D9 JUMP JUMPDEST PUSH1 0x0 PUSH20 0xFFFFFFFFFFFFFFFFFFFFFFFFFFFFFFFFFFFFFFFF AND DUP2 PUSH20 0xFFFFFFFFFFFFFFFFFFFFFFFFFFFFFFFFFFFFFFFF AND SUB PUSH2 0x2A1 JUMPI PUSH1 0x0 PUSH1 0x40 MLOAD PUSH32 0x1E4FBDF700000000000000000000000000000000000000000000000000000000 DUP2 MSTORE PUSH1 0x4 ADD PUSH2 0x298 SWAP2 SWAP1 PUSH2 0x963 JUMP JUMPDEST PUSH1 0x40 MLOAD DUP1 SWAP2 SUB SWAP1 REVERT JUMPDEST PUSH2 0x2AA DUP2 PUSH2 0x360 JUMP JUMPDEST POP JUMP JUMPDEST PUSH1 0x0 DUP1 PUSH1 0x0 DUP1 PUSH2 0x2BD DUP7 DUP7 PUSH2 0x424 JUMP JUMPDEST SWAP3 POP SWAP3 POP SWAP3 POP PUSH2 0x2CD DUP3 DUP3 PUSH2 0x480 JUMP JUMPDEST DUP3 SWAP4 POP POP POP POP SWAP3 SWAP2 POP POP JUMP JUMPDEST PUSH2 0x2E1 PUSH2 0x5E4 JUMP JUMPDEST PUSH20 0xFFFFFFFFFFFFFFFFFFFFFFFFFFFFFFFFFFFFFFFF AND PUSH2 0x2FF PUSH2 0x16E JUMP JUMPDEST PUSH20 0xFFFFFFFFFFFFFFFFFFFFFFFFFFFFFFFFFFFFFFFF AND EQ PUSH2 0x35E JUMPI PUSH2 0x322 PUSH2 0x5E4 JUMP JUMPDEST PUSH1 0x40 MLOAD PUSH32 0x118CDAA700000000000000000000000000000000000000000000000000000000 DUP2 MSTORE PUSH1 0x4 ADD PUSH2 0x355 SWAP2 SWAP1 PUSH2 0x963 JUMP JUMPDEST PUSH1 0x40 MLOAD DUP1 SWAP2 SUB SWAP1 REVERT JUMPDEST JUMP JUMPDEST PUSH1 0x0 DUP1 PUSH1 0x0 SWAP1 SLOAD SWAP1 PUSH2 0x100 EXP SWAP1 DIV PUSH20 0xFFFFFFFFFFFFFFFFFFFFFFFFFFFFFFFFFFFFFFFF AND SWAP1 POP DUP2 PUSH1 0x0 DUP1 PUSH2 0x100 EXP DUP2 SLOAD DUP2 PUSH20 0xFFFFFFFFFFFFFFFFFFFFFFFFFFFFFFFFFFFFFFFF MUL NOT AND SWAP1 DUP4 PUSH20 0xFFFFFFFFFFFFFFFFFFFFFFFFFFFFFFFFFFFFFFFF AND MUL OR SWAP1 SSTORE POP DUP2 PUSH20 0xFFFFFFFFFFFFFFFFFFFFFFFFFFFFFFFFFFFFFFFF AND DUP2 PUSH20 0xFFFFFFFFFFFFFFFFFFFFFFFFFFFFFFFFFFFFFFFF AND PUSH32 0x8BE0079C531659141344CD1FD0A4F28419497F9722A3DAAFE3B4186F6B6457E0 PUSH1 0x40 MLOAD PUSH1 0x40 MLOAD DUP1 SWAP2 SUB SWAP1 LOG3 POP POP JUMP JUMPDEST PUSH1 0x0 DUP1 PUSH1 0x0 PUSH1 0x41 DUP5 MLOAD SUB PUSH2 0x469 JUMPI PUSH1 0x0 DUP1 PUSH1 0x0 PUSH1 0x20 DUP8 ADD MLOAD SWAP3 POP PUSH1 0x40 DUP8 ADD MLOAD SWAP2 POP PUSH1 0x60 DUP8 ADD MLOAD PUSH1 0x0 BYTE SWAP1 POP PUSH2 0x45B DUP9 DUP3 DUP6 DUP6 PUSH2 0x5EC JUMP JUMPDEST SWAP6 POP SWAP6 POP SWAP6 POP POP POP POP PUSH2 0x479 JUMP JUMPDEST PUSH1 0x0 PUSH1 0x2 DUP6 MLOAD PUSH1 0x0 SHL SWAP3 POP SWAP3 POP SWAP3 POP JUMPDEST SWAP3 POP SWAP3 POP SWAP3 JUMP JUMPDEST PUSH1 0x0 PUSH1 0x3 DUP2 GT ISZERO PUSH2 0x494 JUMPI PUSH2 0x493 PUSH2 0xB70 JUMP JUMPDEST JUMPDEST DUP3 PUSH1 0x3 DUP2 GT ISZERO PUSH2 0x4A7 JUMPI PUSH2 0x4A6 PUSH2 0xB70 JUMP JUMPDEST JUMPDEST SUB ISZERO PUSH2 0x5E0 JUMPI PUSH1 0x1 PUSH1 0x3 DUP2 GT ISZERO PUSH2 0x4C1 JUMPI PUSH2 0x4C0 PUSH2 0xB70 JUMP JUMPDEST JUMPDEST DUP3 PUSH1 0x3 DUP2 GT ISZERO PUSH2 0x4D4 JUMPI PUSH2 0x4D3 PUSH2 0xB70 JUMP JUMPDEST JUMPDEST SUB PUSH2 0x50B JUMPI PUSH1 0x40 MLOAD PUSH32 0xF645EEDF00000000000000000000000000000000000000000000000000000000 DUP2 MSTORE PUSH1 0x4 ADD PUSH1 0x40 MLOAD DUP1 SWAP2 SUB SWAP1 REVERT JUMPDEST PUSH1 0x2 PUSH1 0x3 DUP2 GT ISZERO PUSH2 0x51F JUMPI PUSH2 0x51E PUSH2 0xB70 JUMP JUMPDEST JUMPDEST DUP3 PUSH1 0x3 DUP2 GT ISZERO PUSH2 0x532 JUMPI PUSH2 0x531 PUSH2 0xB70 JUMP JUMPDEST JUMPDEST SUB PUSH2 0x577 JUMPI DUP1 PUSH1 0x0 SHR PUSH1 0x40 MLOAD PUSH32 0xFCE698F700000000000000000000000000000000000000000000000000000000 DUP2 MSTORE PUSH1 0x4 ADD PUSH2 0x56E SWAP2 SWAP1 PUSH2 0xBAE JUMP JUMPDEST PUSH1 0x40 MLOAD DUP1 SWAP2 SUB SWAP1 REVERT JUMPDEST PUSH1 0x3 DUP1 DUP2 GT ISZERO PUSH2 0x58A JUMPI PUSH2 0x589 PUSH2 0xB70 JUMP JUMPDEST JUMPDEST DUP3 PUSH1 0x3 DUP2 GT ISZERO PUSH2 0x59D JUMPI PUSH2 0x59C PUSH2 0xB70 JUMP JUMPDEST JUMPDEST SUB PUSH2 0x5DF JUMPI DUP1 PUSH1 0x40 MLOAD PUSH32 0xD78BCE0C00000000000000000000000000000000000000000000000000000000 DUP2 MSTORE PUSH1 0x4 ADD PUSH2 0x5D6 SWAP2 SWAP1 PUSH2 0xBD8 JUMP JUMPDEST PUSH1 0x40 MLOAD DUP1 SWAP2 SUB SWAP1 REVERT JUMPDEST JUMPDEST POP POP JUMP JUMPDEST PUSH1 0x0 CALLER SWAP1 POP SWAP1 JUMP JUMPDEST PUSH1 0x0 DUP1 PUSH1 0x0 PUSH32 0x7FFFFFFFFFFFFFFFFFFFFFFFFFFFFFFF5D576E7357A4501DDFE92F46681B20A0 DUP5 PUSH1 0x0 SHR GT ISZERO PUSH2 0x62C JUMPI PUSH1 0x0 PUSH1 0x3 DUP6 SWAP3 POP SWAP3 POP SWAP3 POP PUSH2 0x6D6 JUMP JUMPDEST PUSH1 0x0 PUSH1 0x1 DUP9 DUP9 DUP9 DUP9 PUSH1 0x40 MLOAD PUSH1 0x0 DUP2 MSTORE PUSH1 0x20 ADD PUSH1 0x40 MSTORE PUSH1 0x40 MLOAD PUSH2 0x651 SWAP5 SWAP4 SWAP3 SWAP2 SWAP1 PUSH2 0xC0F JUMP JUMPDEST PUSH1 0x20 PUSH1 0x40 MLOAD PUSH1 0x20 DUP2 SUB SWAP1 DUP1 DUP5 SUB SWAP1 DUP6 GAS STATICCALL ISZERO DUP1 ISZERO PUSH2 0x673 JUMPI RETURNDATASIZE PUSH1 0x0 DUP1 RETURNDATACOPY RETURNDATASIZE PUSH1 0x0 REVERT JUMPDEST POP POP POP PUSH1 0x20 PUSH1 0x40 MLOAD SUB MLOAD SWAP1 POP PUSH1 0x0 PUSH20 0xFFFFFFFFFFFFFFFFFFFFFFFFFFFFFFFFFFFFFFFF AND DUP2 PUSH20 0xFFFFFFFFFFFFFFFFFFFFFFFFFFFFFFFFFFFFFFFF AND SUB PUSH2 0x6C7 JUMPI PUSH1 0x0 PUSH1 0x1 PUSH1 0x0 DUP1 SHL SWAP4 POP SWAP4 POP SWAP4 POP POP PUSH2 0x6D6 JUMP JUMPDEST DUP1 PUSH1 0x0 DUP1 PUSH1 0x0 SHL SWAP4 POP SWAP4 POP SWAP4 POP POP JUMPDEST SWAP5 POP SWAP5 POP SWAP5 SWAP2 POP POP JUMP JUMPDEST PUSH1 0x0 PUSH1 0x40 MLOAD SWAP1 POP SWAP1 JUMP JUMPDEST PUSH1 0x0 DUP1 REVERT JUMPDEST PUSH1 0x0 DUP1 REVERT JUMPDEST PUSH1 0x0 DUP2 SWAP1 POP SWAP2 SWAP1 POP JUMP JUMPDEST PUSH2 0x707 DUP2 PUSH2 0x6F4 JUMP JUMPDEST DUP2 EQ PUSH2 0x712 JUMPI PUSH1 0x0 DUP1 REVERT JUMPDEST POP JUMP JUMPDEST PUSH1 0x0 DUP2 CALLDATALOAD SWAP1 POP PUSH2 0x724 DUP2 PUSH2 0x6FE JUMP JUMPDEST SWAP3 SWAP2 POP POP JUMP JUMPDEST PUSH1 0x0 DUP1 REVERT JUMPDEST PUSH1 0x0 DUP1 REVERT JUMPDEST PUSH1 0x0 PUSH1 0x1F NOT PUSH1 0x1F DUP4 ADD AND SWAP1 POP SWAP2 SWAP1 POP JUMP JUMPDEST PUSH32 0x4E487B7100000000000000000000000000000000000000000000000000000000 PUSH1 0x0 MSTORE PUSH1 0x41 PUSH1 0x4 MSTORE PUSH1 0x24 PUSH1 0x0 REVERT JUMPDEST PUSH2 0x77D DUP3 PUSH2 0x734 JUMP JUMPDEST DUP2 ADD DUP2 DUP2 LT PUSH8 0xFFFFFFFFFFFFFFFF DUP3 GT OR ISZERO PUSH2 0x79C JUMPI PUSH2 0x79B PUSH2 0x745 JUMP JUMPDEST JUMPDEST DUP1 PUSH1 0x40 MSTORE POP POP POP JUMP JUMPDEST PUSH1 0x0 PUSH2 0x7AF PUSH2 0x6E0 JUMP JUMPDEST SWAP1 POP PUSH2 0x7BB DUP3 DUP3 PUSH2 0x774 JUMP JUMPDEST SWAP2 SWAP1 POP JUMP JUMPDEST PUSH1 0x0 PUSH8 0xFFFFFFFFFFFFFFFF DUP3 GT ISZERO PUSH2 0x7DB JUMPI PUSH2 0x7DA PUSH2 0x745 JUMP JUMPDEST JUMPDEST PUSH2 0x7E4 DUP3 PUSH2 0x734 JUMP JUMPDEST SWAP1 POP PUSH1 0x20 DUP2 ADD SWAP1 POP SWAP2 SWAP1 POP JUMP JUMPDEST DUP3 DUP2 DUP4 CALLDATACOPY PUSH1 0x0 DUP4 DUP4 ADD MSTORE POP POP POP JUMP JUMPDEST PUSH1 0x0 PUSH2 0x813 PUSH2 0x80E DUP5 PUSH2 0x7C0 JUMP JUMPDEST PUSH2 0x7A5 JUMP JUMPDEST SWAP1 POP DUP3 DUP2 MSTORE PUSH1 0x20 DUP2 ADD DUP5 DUP5 DUP5 ADD GT ISZERO PUSH2 0x82F JUMPI PUSH2 0x82E PUSH2 0x72F JUMP JUMPDEST JUMPDEST PUSH2 0x83A DUP5 DUP3 DUP6 PUSH2 0x7F1 JUMP JUMPDEST POP SWAP4 SWAP3 POP POP POP JUMP JUMPDEST PUSH1 0x0 DUP3 PUSH1 0x1F DUP4 ADD SLT PUSH2 0x857 JUMPI PUSH2 0x856 PUSH2 0x72A JUMP JUMPDEST JUMPDEST DUP2 CALLDATALOAD PUSH2 0x867 DUP5 DUP3 PUSH1 0x20 DUP7 ADD PUSH2 0x800 JUMP JUMPDEST SWAP2 POP POP SWAP3 SWAP2 POP POP JUMP JUMPDEST PUSH1 0x0 DUP1 PUSH1 0x40 DUP4 DUP6 SUB SLT ISZERO PUSH2 0x887 JUMPI PUSH2 0x886 PUSH2 0x6EA JUMP JUMPDEST JUMPDEST PUSH1 0x0 PUSH2 0x895 DUP6 DUP3 DUP7 ADD PUSH2 0x715 JUMP JUMPDEST SWAP3 POP POP PUSH1 0x20 DUP4 ADD CALLDATALOAD PUSH8 0xFFFFFFFFFFFFFFFF DUP2 GT ISZERO PUSH2 0x8B6 JUMPI PUSH2 0x8B5 PUSH2 0x6EF JUMP JUMPDEST JUMPDEST PUSH2 0x8C2 DUP6 DUP3 DUP7 ADD PUSH2 0x842 JUMP JUMPDEST SWAP2 POP POP SWAP3 POP SWAP3 SWAP1 POP JUMP JUMPDEST PUSH1 0x0 PUSH32 0xFFFFFFFF00000000000000000000000000000000000000000000000000000000 DUP3 AND SWAP1 POP SWAP2 SWAP1 POP JUMP JUMPDEST PUSH2 0x901 DUP2 PUSH2 0x8CC JUMP JUMPDEST DUP3 MSTORE POP POP JUMP JUMPDEST PUSH1 0x0 PUSH1 0x20 DUP3 ADD SWAP1 POP PUSH2 0x91C PUSH1 0x0 DUP4 ADD DUP5 PUSH2 0x8F8 JUMP JUMPDEST SWAP3 SWAP2 POP POP JUMP JUMPDEST PUSH1 0x0 PUSH20 0xFFFFFFFFFFFFFFFFFFFFFFFFFFFFFFFFFFFFFFFF DUP3 AND SWAP1 POP SWAP2 SWAP1 POP JUMP JUMPDEST PUSH1 0x0 PUSH2 0x94D DUP3 PUSH2 0x922 JUMP JUMPDEST SWAP1 POP SWAP2 SWAP1 POP JUMP JUMPDEST PUSH2 0x95D DUP2 PUSH2 0x942 JUMP JUMPDEST DUP3 MSTORE POP POP JUMP JUMPDEST PUSH1 0x0 PUSH1 0x20 DUP3 ADD SWAP1 POP PUSH2 0x978 PUSH1 0x0 DUP4 ADD DUP5 PUSH2 0x954 JUMP JUMPDEST SWAP3 SWAP2 POP POP JUMP JUMPDEST PUSH2 0x987 DUP2 PUSH2 0x942 JUMP JUMPDEST DUP2 EQ PUSH2 0x992 JUMPI PUSH1 0x0 DUP1 REVERT JUMPDEST POP JUMP JUMPDEST PUSH1 0x0 DUP2 CALLDATALOAD SWAP1 POP PUSH2 0x9A4 DUP2 PUSH2 0x97E JUMP JUMPDEST SWAP3 SWAP2 POP POP JUMP JUMPDEST PUSH1 0x0 DUP2 SWAP1 POP SWAP2 SWAP1 POP JUMP JUMPDEST PUSH2 0x9BD DUP2 PUSH2 0x9AA JUMP JUMPDEST DUP2 EQ PUSH2 0x9C8 JUMPI PUSH1 0x0 DUP1 REVERT JUMPDEST POP JUMP JUMPDEST PUSH1 0x0 DUP2 CALLDATALOAD SWAP1 POP PUSH2 0x9DA DUP2 PUSH2 0x9B4 JUMP JUMPDEST SWAP3 SWAP2 POP POP JUMP JUMPDEST PUSH1 0x0 DUP1 PUSH1 0x0 PUSH1 0x60 DUP5 DUP7 SUB SLT ISZERO PUSH2 0x9F9 JUMPI PUSH2 0x9F8 PUSH2 0x6EA JUMP JUMPDEST JUMPDEST PUSH1 0x0 PUSH2 0xA07 DUP7 DUP3 DUP8 ADD PUSH2 0x995 JUMP JUMPDEST SWAP4 POP POP PUSH1 0x20 PUSH2 0xA18 DUP7 DUP3 DUP8 ADD PUSH2 0x9CB JUMP JUMPDEST SWAP3 POP POP PUSH1 0x40 DUP5 ADD CALLDATALOAD PUSH8 0xFFFFFFFFFFFFFFFF DUP2 GT ISZERO PUSH2 0xA39 JUMPI PUSH2 0xA38 PUSH2 0x6EF JUMP JUMPDEST JUMPDEST PUSH2 0xA45 DUP7 DUP3 DUP8 ADD PUSH2 0x842 JUMP JUMPDEST SWAP2 POP POP SWAP3 POP SWAP3 POP SWAP3 JUMP JUMPDEST PUSH1 0x0 DUP2 MLOAD SWAP1 POP SWAP2 SWAP1 POP JUMP JUMPDEST PUSH1 0x0 DUP3 DUP3 MSTORE PUSH1 0x20 DUP3 ADD SWAP1 POP SWAP3 SWAP2 POP POP JUMP JUMPDEST PUSH1 0x0 JUMPDEST DUP4 DUP2 LT ISZERO PUSH2 0xA89 JUMPI DUP1 DUP3 ADD MLOAD DUP2 DUP5 ADD MSTORE PUSH1 0x20 DUP2 ADD SWAP1 POP PUSH2 0xA6E JUMP JUMPDEST PUSH1 0x0 DUP5 DUP5 ADD MSTORE POP POP POP POP JUMP JUMPDEST PUSH1 0x0 PUSH2 0xAA0 DUP3 PUSH2 0xA4F JUMP JUMPDEST PUSH2 0xAAA DUP2 DUP6 PUSH2 0xA5A JUMP JUMPDEST SWAP4 POP PUSH2 0xABA DUP2 DUP6 PUSH1 0x20 DUP7 ADD PUSH2 0xA6B JUMP JUMPDEST PUSH2 0xAC3 DUP2 PUSH2 0x734 JUMP JUMPDEST DUP5 ADD SWAP2 POP POP SWAP3 SWAP2 POP POP JUMP JUMPDEST PUSH1 0x0 PUSH1 0x20 DUP3 ADD SWAP1 POP DUP2 DUP2 SUB PUSH1 0x0 DUP4 ADD MSTORE PUSH2 0xAE8 DUP2 DUP5 PUSH2 0xA95 JUMP JUMPDEST SWAP1 POP SWAP3 SWAP2 POP POP JUMP JUMPDEST PUSH1 0x0 PUSH1 0x20 DUP3 DUP5 SUB SLT ISZERO PUSH2 0xB06 JUMPI PUSH2 0xB05 PUSH2 0x6EA JUMP JUMPDEST JUMPDEST PUSH1 0x0 PUSH2 0xB14 DUP5 DUP3 DUP6 ADD PUSH2 0x995 JUMP JUMPDEST SWAP2 POP POP SWAP3 SWAP2 POP POP JUMP JUMPDEST PUSH1 0x0 DUP2 SWAP1 POP SWAP3 SWAP2 POP POP JUMP JUMPDEST PUSH1 0x0 PUSH2 0xB33 DUP3 PUSH2 0xA4F JUMP JUMPDEST PUSH2 0xB3D DUP2 DUP6 PUSH2 0xB1D JUMP JUMPDEST SWAP4 POP PUSH2 0xB4D DUP2 DUP6 PUSH1 0x20 DUP7 ADD PUSH2 0xA6B JUMP JUMPDEST DUP1 DUP5 ADD SWAP2 POP POP SWAP3 SWAP2 POP POP JUMP JUMPDEST PUSH1 0x0 PUSH2 0xB65 DUP3 DUP5 PUSH2 0xB28 JUMP JUMPDEST SWAP2 POP DUP2 SWAP1 POP SWAP3 SWAP2 POP POP JUMP JUMPDEST PUSH32 0x4E487B7100000000000000000000000000000000000000000000000000000000 PUSH1 0x0 MSTORE PUSH1 0x21 PUSH1 0x4 MSTORE PUSH1 0x24 PUSH1 0x0 REVERT JUMPDEST PUSH2 0xBA8 DUP2 PUSH2 0x9AA JUMP JUMPDEST DUP3 MSTORE POP POP JUMP JUMPDEST PUSH1 0x0 PUSH1 0x20 DUP3 ADD SWAP1 POP PUSH2 0xBC3 PUSH1 0x0 DUP4 ADD DUP5 PUSH2 0xB9F JUMP JUMPDEST SWAP3 SWAP2 POP POP JUMP JUMPDEST PUSH2 0xBD2 DUP2 PUSH2 0x6F4 JUMP JUMPDEST DUP3 MSTORE POP POP JUMP JUMPDEST PUSH1 0x0 PUSH1 0x20 DUP3 ADD SWAP1 POP PUSH2 0xBED PUSH1 0x0 DUP4 ADD DUP5 PUSH2 0xBC9 JUMP JUMPDEST SWAP3 SWAP2 POP POP JUMP JUMPDEST PUSH1 0x0 PUSH1 0xFF DUP3 AND SWAP1 POP SWAP2 SWAP1 POP JUMP JUMPDEST PUSH2 0xC09 DUP2 PUSH2 0xBF3 JUMP JUMPDEST DUP3 MSTORE POP POP JUMP JUMPDEST PUSH1 0x0 PUSH1 0x80 DUP3 ADD SWAP1 POP PUSH2 0xC24 PUSH1 0x0 DUP4 ADD DUP8 PUSH2 0xBC9 JUMP JUMPDEST PUSH2 0xC31 PUSH1 0x20 DUP4 ADD DUP7 PUSH2 0xC00 JUMP JUMPDEST PUSH2 0xC3E PUSH1 0x40 DUP4 ADD DUP6 PUSH2 0xBC9 JUMP JUMPDEST PUSH2 0xC4B PUSH1 0x60 DUP4 ADD DUP5 PUSH2 0xBC9 JUMP JUMPDEST SWAP6 SWAP5 POP POP POP POP POP JUMP INVALID LOG2 PUSH5 0x6970667358 0x22 SLT KECCAK256 DUP4 0x4F 0xEE 0xB8 0xE CALLER LOG2 PUSH8 0x33523ECD8D8BAC2C ADDMOD DUP9 DUP14 TLOAD PUSH1 0x11 PUSH18 0x5496521756D651A20364736F6C6343000818 STOP CALLER "},"methodIdentifiers":{"execute(address,uint256,bytes)":"b61d27f6","isValidSignature(bytes32,bytes)":"1626ba7e","owner()":"8da5cb5b","renounceOwnership()":"715018a6","transferOwnership(address)":"f2fde38b"}}}}}