{
  "_format": "hh-sol-artifact-1",
  "contractName": "RedPacket",
  "sourceName": "contracts/redpacket/RedPacket.sol",
  "abi": [
    {
      "anonymous": false,
      "inputs": [
        {
          "indexed": false,
          "internalType": "bytes32",
          "name": "id",
          "type": "bytes32"
        },
        {
          "indexed": false,
          "internalType": "address",
          "name": "claimer",
          "type": "address"
        },
        {
          "indexed": false,
          "internalType": "uint256",
          "name": "claimed_value",
          "type": "uint256"
        },
        {
          "indexed": false,
          "internalType": "address",
          "name": "token_address",
          "type": "address"
        }
      ],
      "name": "ClaimSuccess",
      "type": "event"
    },
    {
      "anonymous": false,
      "inputs": [
        {
          "indexed": false,
          "internalType": "uint256",
          "name": "total",
          "type": "uint256"
        },
        {
          "indexed": false,
          "internalType": "bytes32",
          "name": "id",
          "type": "bytes32"
        },
        {
          "indexed": false,
          "internalType": "string",
          "name": "name",
          "type": "string"
        },
        {
          "indexed": false,
          "internalType": "string",
          "name": "message",
          "type": "string"
        },
        {
          "indexed": false,
          "internalType": "address",
          "name": "creator",
          "type": "address"
        },
        {
          "indexed": false,
          "internalType": "uint256",
          "name": "creation_time",
          "type": "uint256"
        },
        {
          "indexed": false,
          "internalType": "address",
          "name": "token_address",
          "type": "address"
        },
        {
          "indexed": false,
          "internalType": "uint256",
          "name": "number",
          "type": "uint256"
        },
        {
          "indexed": false,
          "internalType": "bool",
          "name": "ifrandom",
          "type": "bool"
        },
        {
          "indexed": false,
          "internalType": "uint256",
          "name": "duration",
          "type": "uint256"
        }
      ],
      "name": "CreationSuccess",
      "type": "event"
    },
    {
      "anonymous": false,
      "inputs": [
        {
          "indexed": false,
          "internalType": "bytes32",
          "name": "id",
          "type": "bytes32"
        },
        {
          "indexed": false,
          "internalType": "address",
          "name": "token_address",
          "type": "address"
        },
        {
          "indexed": false,
          "internalType": "uint256",
          "name": "remaining_balance",
          "type": "uint256"
        }
      ],
      "name": "RefundSuccess",
      "type": "event"
    },
    {
      "inputs": [
        {
          "internalType": "bytes32",
          "name": "id",
          "type": "bytes32"
        },
        {
          "internalType": "bytes32[]",
          "name": "proof",
          "type": "bytes32[]"
        }
      ],
      "name": "claim",
      "outputs": [
        {
          "internalType": "uint256",
          "name": "claimed",
          "type": "uint256"
        }
      ],
      "stateMutability": "nonpayable",
      "type": "function"
    },
    {
      "inputs": [
        {
          "internalType": "bytes32",
          "name": "_merkleroot",
          "type": "bytes32"
        },
        {
          "internalType": "uint256",
          "name": "recipient_number",
          "type": "uint256"
        },
        {
          "internalType": "bool",
          "name": "_ifrandom",
          "type": "bool"
        },
        {
          "internalType": "uint256",
          "name": "_duration",
          "type": "uint256"
        },
        {
          "internalType": "bytes32",
          "name": "_seed",
          "type": "bytes32"
        },
        {
          "internalType": "string",
          "name": "_message",
          "type": "string"
        },
        {
          "internalType": "string",
          "name": "_name",
          "type": "string"
        },
        {
          "internalType": "uint256",
          "name": "_token_type",
          "type": "uint256"
        },
        {
          "internalType": "address",
          "name": "_token_addr",
          "type": "address"
        },
        {
          "internalType": "uint256",
          "name": "_total_tokens",
          "type": "uint256"
        }
      ],
      "name": "create_redPacked",
      "outputs": [],
      "stateMutability": "payable",
      "type": "function"
    },
    {
      "inputs": [
        {
          "internalType": "bytes32",
          "name": "id",
          "type": "bytes32"
        }
      ],
      "name": "getRedpacked",
      "outputs": [
        {
          "internalType": "address",
          "name": "token_address",
          "type": "address"
        },
        {
          "internalType": "uint256",
          "name": "balance",
          "type": "uint256"
        },
        {
          "internalType": "uint256",
          "name": "total",
          "type": "uint256"
        },
        {
          "internalType": "uint256",
          "name": "claimed",
          "type": "uint256"
        },
        {
          "internalType": "bool",
          "name": "expired",
          "type": "bool"
        },
        {
          "internalType": "uint256",
          "name": "claimed_amount",
          "type": "uint256"
        }
      ],
      "stateMutability": "view",
      "type": "function"
    },
    {
      "inputs": [],
      "name": "initialize",
      "outputs": [],
      "stateMutability": "nonpayable",
      "type": "function"
    },
    {
      "inputs": [
        {
          "internalType": "bytes32",
          "name": "id",
          "type": "bytes32"
        }
      ],
      "name": "refund",
      "outputs": [],
      "stateMutability": "nonpayable",
      "type": "function"
    }
  ],
  "bytecode": "0x608060405234801561001057600080fd5b50612df1806100206000396000f3fe60806040526004361061004a5760003560e01c806303b093631461004f578063167e91b1146100915780637249fbb6146100ad5780638129fc1c146100d6578063f5c05eb7146100ed575b600080fd5b34801561005b57600080fd5b50610076600480360381019061007191906116eb565b61012a565b6040516100889695949392919061178d565b60405180910390f35b6100ab60048036038101906100a691906119b8565b610221565b005b3480156100b957600080fd5b506100d460048036038101906100cf91906116eb565b61077b565b005b3480156100e257600080fd5b506100eb6109f0565b005b3480156100f957600080fd5b50610114600480360381019061010f9190611b97565b610b03565b6040516101219190611bf3565b60405180910390f35b60008060008060008060006002600089815260200190815260200160002090506000816000016040518060400160405290816000820154815260200160018201548152505090506101828160200151604060a0611010565b610193826000015160806060611010565b6101a4836020015160ef600f611010565b6101b5846020015160e0600f611010565b6101c6856000015160e06020611010565b42118660020160003373ffffffffffffffffffffffffffffffffffffffff1673ffffffffffffffffffffffffffffffffffffffff16815260200190815260200160002054975097509750975097509750505091939550919395565b6000600281819054906101000a900463ffffffff168092919061024390611c4d565b91906101000a81548163ffffffff021916908363ffffffff16021790555050888110156102a5576040517f08c379a000000000000000000000000000000000000000000000000000000000815260040161029c90611cd6565b60405180910390fd5b600089116102e8576040517f08c379a00000000000000000000000000000000000000000000000000000000081526004016102df90611d42565b60405180910390fd5b610100891061032c576040517f08c379a000000000000000000000000000000000000000000000000000000000815260040161032390611dae565b60405180910390fd5b600083148061033b5750600183145b61037a576040517f08c379a000000000000000000000000000000000000000000000000000000000815260040161037190611e1a565b60405180910390fd5b8860018373ffffffffffffffffffffffffffffffffffffffff1663313ce5676040518163ffffffff1660e01b8152600401602060405180830381865afa1580156103c8573d6000803e3d6000fd5b505050506040513d601f19601f820116820180604052508101906103ec9190611e73565b6103f69190611ea0565b600a6104029190612008565b61040c9190612053565b811161044d576040517f08c379a0000000000000000000000000000000000000000000000000000000008152600401610444906120e1565b60405180910390fd5b600080840361049e5781341015610499576040517f08c379a00000000000000000000000000000000000000000000000000000000081526004016104909061214d565b60405180910390fd5b610624565b600184036106235760008373ffffffffffffffffffffffffffffffffffffffff166370a08231306040518263ffffffff1660e01b81526004016104e1919061216d565b602060405180830381865afa1580156104fe573d6000803e3d6000fd5b505050506040513d601f19601f82011682018060405250810190610522919061219d565b90506105513330858773ffffffffffffffffffffffffffffffffffffffff16611070909392919063ffffffff16565b60008473ffffffffffffffffffffffffffffffffffffffff166370a08231306040518263ffffffff1660e01b815260040161058c919061216d565b602060405180830381865afa1580156105a9573d6000803e3d6000fd5b505050506040513d601f19601f820116820180604052508101906105cd919061219d565b905081816105db91906121ca565b925083831015610620576040517f08c379a00000000000000000000000000000000000000000000000000000000081526004016106179061214d565b60405180910390fd5b50505b5b60003342600060029054906101000a900463ffffffff166001548b6040516020016106539594939291906122be565b60405160208183030381529060405280519060200120905060008a61067957600061067c565b60015b60ff16905060006002600084815260200190815260200160002090506106a2848c6110f9565b81600001600001819055506106b9868e8985611137565b81600001600101819055508d8160030181905550338160040160006101000a81548173ffffffffffffffffffffffffffffffffffffffff021916908373ffffffffffffffffffffffffffffffffffffffff160217905550505060008b905060008b905060008b90507f86af556fd7cfab9462285ad44f2d5913527c539ff549f74731ca9997ca53401885858b8d33428d8a8a8a6040516107629a9998979695949392919061239a565b60405180910390a1505050505050505050505050505050565b600060026000838152602001908152602001600020905060008160000160405180604001604052908160008201548152602001600182015481525050905060008260040160009054906101000a900473ffffffffffffffffffffffffffffffffffffffff1690503373ffffffffffffffffffffffffffffffffffffffff168173ffffffffffffffffffffffffffffffffffffffff1614610850576040517f08c379a000000000000000000000000000000000000000000000000000000000815260040161084790612490565b60405180910390fd5b42610862836000015160e06020611010565b11156108a3576040517f08c379a000000000000000000000000000000000000000000000000000000000815260040161089a906124fc565b60405180910390fd5b60006108b6836000015160806060611010565b9050600081036108fb576040517f08c379a00000000000000000000000000000000000000000000000000000000081526004016108f290612568565b60405180910390fd5b600061090e846020015160fe6001611010565b905060006109238560200151604060a0611010565b905061093885600001516080606060006111b6565b866000016000018190555060008203610997573373ffffffffffffffffffffffffffffffffffffffff166108fc849081150290604051600060405180830381858888f19350505050158015610991573d6000803e3d6000fd5b506109ac565b600182036109ab576109aa8133856111d1565b5b5b7f66c304c539e0bc7c8070207c09b9f6a5a9591b434dfed1867cc57fde7fb600938782856040516109df93929190612588565b60405180910390a150505050505050565b600060019054906101000a900460ff16610a185760008054906101000a900460ff1615610a21565b610a20611201565b5b610a60576040517f08c379a0000000000000000000000000000000000000000000000000000000008152600401610a5790612631565b60405180910390fd5b60008060019054906101000a900460ff161590508015610ab0576001600060016101000a81548160ff02191690831515021790555060016000806101000a81548160ff0219169083151502179055505b4233604051602001610ac39291906126a8565b604051602081830303815290604052805190602001206001819055508015610b005760008060016101000a81548160ff0219169083151502179055505b50565b60008060026000858152602001908152602001600020905060008160000160405180604001604052908160008201548152602001600182015481525050905042610b54826000015160e06020611010565b11610b94576040517f08c379a0000000000000000000000000000000000000000000000000000000008152600401610b8b9061272b565b60405180910390fd5b6000610ba7826020015160ef600f611010565b90506000610bbc836020015160e0600f611010565b9050818110610c00576040517f08c379a0000000000000000000000000000000000000000000000000000000008152600401610bf790612797565b60405180910390fd5b600084600301549050610c1c8782610c1733611212565b611242565b610c5b576040517f08c379a0000000000000000000000000000000000000000000000000000000008152600401610c5290612803565b60405180910390fd5b600080610c6f866020015160fe6001611010565b90506000610c84876020015160ff6001611010565b90506000610c99886000015160806060611010565b90506000610cae8960200151604060a0611010565b9050600060018273ffffffffffffffffffffffffffffffffffffffff1663313ce5676040518163ffffffff1660e01b8152600401602060405180830381865afa158015610cff573d6000803e3d6000fd5b505050506040513d601f19601f82011682018060405250810190610d239190611e73565b610d2d9190611ea0565b600a610d399190612008565b905060018403610e05576001888a610d5191906121ca565b03610d5e57829550610e00565b600081898b610d6d91906121ca565b610d779190612053565b905060008185610d8791906121ca565b9050898b610d9591906121ca565b600282610da29190612053565b610dac9190612852565b610dca600154600060029054906101000a900463ffffffff16611259565b610dd49190612883565b9750828810610df9578288610de99190612883565b88610df491906121ca565b610dfb565b825b975050505b610e3b565b6001888a610e1391906121ca565b03610e2057829550610e3a565b8789610e2c91906121ca565b83610e379190612852565b95505b5b610e588a60000151608060608987610e5391906121ca565b6111b6565b8b6000016000018190555060008b60020160003373ffffffffffffffffffffffffffffffffffffffff1673ffffffffffffffffffffffffffffffffffffffff1681526020019081526020016000205414610ee7576040517f08c379a0000000000000000000000000000000000000000000000000000000008152600401610ede90612900565b60405180910390fd5b858b60020160003373ffffffffffffffffffffffffffffffffffffffff1673ffffffffffffffffffffffffffffffffffffffff16815260200190815260200160002081905550610f4b8a6020015160e0600f60018c610f469190612920565b6111b6565b8b6000016001018190555060008503610faa573373ffffffffffffffffffffffffffffffffffffffff166108fc879081150290604051600060405180830381858888f19350505050158015610fa4573d6000803e3d6000fd5b50610fbf565b60018503610fbe57610fbd8233886111d1565b5b5b7f358ddd686a5ca3ef6f8aee9b8d2dc3c642ecc278657c3802f8802b1a44c10e448e338885604051610ff49493929190612954565b60405180910390a1859b50505050505050505050505092915050565b600061101e6101008561129f565b61105d576040517f08c379a0000000000000000000000000000000000000000000000000000000008152600401611054906129e5565b60405180910390fd5b83831c600180841b031690509392505050565b6110f3846323b872dd60e01b85858560405160240161109193929190612a05565b604051602081830303815290604052907bffffffffffffffffffffffffffffffffffffffffffffffffffffffff19166020820180517bffffffffffffffffffffffffffffffffffffffffffffffffffffffff83818316178352505050506112b5565b50505050565b6000806000905061110d608060608661137c565b8117905061112960e0602085426111249190612920565b61137c565b811790508091505092915050565b60008060009050611161604060a08873ffffffffffffffffffffffffffffffffffffffff1661137c565b8117905061117360e0600f600061137c565b8117905061118460ef600f8761137c565b8117905061119560fe60018661137c565b811790506111a660ff60018561137c565b8117905080915050949350505050565b600081841b600180851b03851b198616179050949350505050565b6111fc82828573ffffffffffffffffffffffffffffffffffffffff166113d39092919063ffffffff16565b505050565b600061120c30611459565b15905090565b6000816040516020016112259190612a3c565b604051602081830303815290604052805190602001209050919050565b60008261124f858461147c565b1490509392505050565b60006001823385426040516020016112749493929190612a57565b6040516020818303038152906040528051906020012060001c6112979190612920565b905092915050565b6000816001841b11610100841417905092915050565b6000611317826040518060400160405280602081526020017f5361666545524332303a206c6f772d6c6576656c2063616c6c206661696c65648152508573ffffffffffffffffffffffffffffffffffffffff166114cc9092919063ffffffff16565b905060008151111561137757808060200190518101906113379190612aba565b611376576040517f08c379a000000000000000000000000000000000000000000000000000000000815260040161136d90612b59565b60405180910390fd5b5b505050565b6000611388838361129f565b6113c7576040517f08c379a00000000000000000000000000000000000000000000000000000000081526004016113be90612bc5565b60405180910390fd5b81841b90509392505050565b6114548363a9059cbb60e01b84846040516024016113f2929190612be5565b604051602081830303815290604052907bffffffffffffffffffffffffffffffffffffffffffffffffffffffff19166020820180517bffffffffffffffffffffffffffffffffffffffffffffffffffffffff83818316178352505050506112b5565b505050565b6000808273ffffffffffffffffffffffffffffffffffffffff163b119050919050565b60008082905060005b84518110156114c1576114b2828683815181106114a5576114a4612c0e565b5b60200260200101516114e4565b91508080600101915050611485565b508091505092915050565b60606114db848460008561150f565b90509392505050565b60008183106114fc576114f78284611623565b611507565b6115068383611623565b5b905092915050565b606082471015611554576040517f08c379a000000000000000000000000000000000000000000000000000000000815260040161154b90612caf565b60405180910390fd5b61155d85611459565b61159c576040517f08c379a000000000000000000000000000000000000000000000000000000000815260040161159390612d1b565b60405180910390fd5b6000808673ffffffffffffffffffffffffffffffffffffffff1685876040516115c59190612d82565b60006040518083038185875af1925050503d8060008114611602576040519150601f19603f3d011682016040523d82523d6000602084013e611607565b606091505b509150915061161782828661163a565b92505050949350505050565b600082600052816020526040600020905092915050565b6060831561164a5782905061169a565b60008351111561165d5782518084602001fd5b816040517f08c379a00000000000000000000000000000000000000000000000000000000081526004016116919190612d99565b60405180910390fd5b9392505050565b6000604051905090565b600080fd5b600080fd5b6000819050919050565b6116c8816116b5565b81146116d357600080fd5b50565b6000813590506116e5816116bf565b92915050565b600060208284031215611701576117006116ab565b5b600061170f848285016116d6565b91505092915050565b600073ffffffffffffffffffffffffffffffffffffffff82169050919050565b600061174382611718565b9050919050565b61175381611738565b82525050565b6000819050919050565b61176c81611759565b82525050565b60008115159050919050565b61178781611772565b82525050565b600060c0820190506117a2600083018961174a565b6117af6020830188611763565b6117bc6040830187611763565b6117c96060830186611763565b6117d6608083018561177e565b6117e360a0830184611763565b979650505050505050565b6117f781611759565b811461180257600080fd5b50565b600081359050611814816117ee565b92915050565b61182381611772565b811461182e57600080fd5b50565b6000813590506118408161181a565b92915050565b600080fd5b600080fd5b6000601f19601f8301169050919050565b7f4e487b7100000000000000000000000000000000000000000000000000000000600052604160045260246000fd5b61189982611850565b810181811067ffffffffffffffff821117156118b8576118b7611861565b5b80604052505050565b60006118cb6116a1565b90506118d78282611890565b919050565b600067ffffffffffffffff8211156118f7576118f6611861565b5b61190082611850565b9050602081019050919050565b82818337600083830152505050565b600061192f61192a846118dc565b6118c1565b90508281526020810184848401111561194b5761194a61184b565b5b61195684828561190d565b509392505050565b600082601f83011261197357611972611846565b5b813561198384826020860161191c565b91505092915050565b61199581611738565b81146119a057600080fd5b50565b6000813590506119b28161198c565b92915050565b6000806000806000806000806000806101408b8d0312156119dc576119db6116ab565b5b60006119ea8d828e016116d6565b9a505060206119fb8d828e01611805565b9950506040611a0c8d828e01611831565b9850506060611a1d8d828e01611805565b9750506080611a2e8d828e016116d6565b96505060a08b013567ffffffffffffffff811115611a4f57611a4e6116b0565b5b611a5b8d828e0161195e565b95505060c08b013567ffffffffffffffff811115611a7c57611a7b6116b0565b5b611a888d828e0161195e565b94505060e0611a998d828e01611805565b935050610100611aab8d828e016119a3565b925050610120611abd8d828e01611805565b9150509295989b9194979a5092959850565b600067ffffffffffffffff821115611aea57611ae9611861565b5b602082029050602081019050919050565b600080fd5b6000611b13611b0e84611acf565b6118c1565b90508083825260208201905060208402830185811115611b3657611b35611afb565b5b835b81811015611b5f5780611b4b88826116d6565b845260208401935050602081019050611b38565b5050509392505050565b600082601f830112611b7e57611b7d611846565b5b8135611b8e848260208601611b00565b91505092915050565b60008060408385031215611bae57611bad6116ab565b5b6000611bbc858286016116d6565b925050602083013567ffffffffffffffff811115611bdd57611bdc6116b0565b5b611be985828601611b69565b9150509250929050565b6000602082019050611c086000830184611763565b92915050565b7f4e487b7100000000000000000000000000000000000000000000000000000000600052601160045260246000fd5b600063ffffffff82169050919050565b6000611c5882611c3d565b915063ffffffff8203611c6e57611c6d611c0e565b5b600182019050919050565b600082825260208201905092915050565b7f746f6b656e73203e20726563697069656e745f6e756d62657200000000000000600082015250565b6000611cc0601983611c79565b9150611ccb82611c8a565b602082019050919050565b60006020820190508181036000830152611cef81611cb3565b9050919050565b7f4174206c65617374203120726563697069656e74000000000000000000000000600082015250565b6000611d2c601483611c79565b9150611d3782611cf6565b602082019050919050565b60006020820190508181036000830152611d5b81611d1f565b9050919050565b7f4174206d6f73742032353520726563697069656e747300000000000000000000600082015250565b6000611d98601683611c79565b9150611da382611d62565b602082019050919050565b60006020820190508181036000830152611dc781611d8b565b9050919050565b7f556e7265636f676e697a61626c6520746f6b656e207479706500000000000000600082015250565b6000611e04601983611c79565b9150611e0f82611dce565b602082019050919050565b60006020820190508181036000830152611e3381611df7565b9050919050565b600060ff82169050919050565b611e5081611e3a565b8114611e5b57600080fd5b50565b600081519050611e6d81611e47565b92915050565b600060208284031215611e8957611e886116ab565b5b6000611e9784828501611e5e565b91505092915050565b6000611eab82611e3a565b9150611eb683611e3a565b9250828203905060ff811115611ecf57611ece611c0e565b5b92915050565b60008160011c9050919050565b6000808291508390505b6001851115611f2c57808604811115611f0857611f07611c0e565b5b6001851615611f175780820291505b8081029050611f2585611ed5565b9450611eec565b94509492505050565b600082611f455760019050612001565b81611f535760009050612001565b8160018114611f695760028114611f7357611fa2565b6001915050612001565b60ff841115611f8557611f84611c0e565b5b8360020a915084821115611f9c57611f9b611c0e565b5b50612001565b5060208310610133831016604e8410600b8410161715611fd75782820a905083811115611fd257611fd1611c0e565b5b612001565b611fe48484846001611ee2565b92509050818404811115611ffb57611ffa611c0e565b5b81810290505b9392505050565b600061201382611759565b915061201e83611e3a565b925061204b7fffffffffffffffffffffffffffffffffffffffffffffffffffffffffffffffff8484611f35565b905092915050565b600061205e82611759565b915061206983611759565b925082820261207781611759565b9150828204841483151761208e5761208d611c0e565b5b5092915050565b7f4174206c6561737420302e3120666f7220656163682075736572000000000000600082015250565b60006120cb601a83611c79565b91506120d682612095565b602082019050919050565b600060208201905081810360008301526120fa816120be565b9050919050565b7f4e6f20656e6f7567682045544800000000000000000000000000000000000000600082015250565b6000612137600d83611c79565b915061214282612101565b602082019050919050565b600060208201905081810360008301526121668161212a565b9050919050565b6000602082019050612182600083018461174a565b92915050565b600081519050612197816117ee565b92915050565b6000602082840312156121b3576121b26116ab565b5b60006121c184828501612188565b91505092915050565b60006121d582611759565b91506121e083611759565b92508282039050818111156121f8576121f7611c0e565b5b92915050565b60008160601b9050919050565b6000612216826121fe565b9050919050565b60006122288261220b565b9050919050565b61224061223b82611738565b61221d565b82525050565b6000819050919050565b61226161225c82611759565b612246565b82525050565b60008160e01b9050919050565b600061227f82612267565b9050919050565b61229761229282611c3d565b612274565b82525050565b6000819050919050565b6122b86122b3826116b5565b61229d565b82525050565b60006122ca828861222f565b6014820191506122da8287612250565b6020820191506122ea8286612286565b6004820191506122fa82856122a7565b60208201915061230a82846122a7565b6020820191508190509695505050505050565b612326816116b5565b82525050565b600081519050919050565b60005b8381101561235557808201518184015260208101905061233a565b60008484015250505050565b600061236c8261232c565b6123768185611c79565b9350612386818560208601612337565b61238f81611850565b840191505092915050565b6000610140820190506123b0600083018d611763565b6123bd602083018c61231d565b81810360408301526123cf818b612361565b905081810360608301526123e3818a612361565b90506123f2608083018961174a565b6123ff60a0830188611763565b61240c60c083018761174a565b61241960e0830186611763565b61242761010083018561177e565b612435610120830184611763565b9b9a5050505050505050505050565b7f5265647061636b6564204f776e6572204f6e6c79000000000000000000000000600082015250565b600061247a601483611c79565b915061248582612444565b602082019050919050565b600060208201905081810360008301526124a98161246d565b9050919050565b7f4e6f742065787069726564207965740000000000000000000000000000000000600082015250565b60006124e6600f83611c79565b91506124f1826124b0565b602082019050919050565b60006020820190508181036000830152612515816124d9565b9050919050565b7f4e6f6e65206c65667420696e2074686520726564207061636b65740000000000600082015250565b6000612552601b83611c79565b915061255d8261251c565b602082019050919050565b6000602082019050818103600083015261258181612545565b9050919050565b600060608201905061259d600083018661231d565b6125aa602083018561174a565b6125b76040830184611763565b949350505050565b7f496e697469616c697a61626c653a20636f6e747261637420697320616c72656160008201527f647920696e697469616c697a6564000000000000000000000000000000000000602082015250565b600061261b602e83611c79565b9150612626826125bf565b604082019050919050565b6000602082019050818103600083015261264a8161260e565b9050919050565b600081905092915050565b7f205265647061636b657420000000000000000000000000000000000000000000600082015250565b6000612692600b83612651565b915061269d8261265c565b600b82019050919050565b60006126b382612685565b91506126bf8285612250565b6020820191506126cf828461222f565b6014820191508190509392505050565b7f4578706972656400000000000000000000000000000000000000000000000000600082015250565b6000612715600783611c79565b9150612720826126df565b602082019050919050565b6000602082019050818103600083015261274481612708565b9050919050565b7f4f7574206f662073746f636b0000000000000000000000000000000000000000600082015250565b6000612781600c83611c79565b915061278c8261274b565b602082019050919050565b600060208201905081810360008301526127b081612774565b9050919050565b7f566572696669636174696f6e206661696c656400000000000000000000000000600082015250565b60006127ed601383611c79565b91506127f8826127b7565b602082019050919050565b6000602082019050818103600083015261281c816127e0565b9050919050565b7f4e487b7100000000000000000000000000000000000000000000000000000000600052601260045260246000fd5b600061285d82611759565b915061286883611759565b92508261287857612877612823565b5b828204905092915050565b600061288e82611759565b915061289983611759565b9250826128a9576128a8612823565b5b828206905092915050565b7f416c726561647920636c61696d65640000000000000000000000000000000000600082015250565b60006128ea600f83611c79565b91506128f5826128b4565b602082019050919050565b60006020820190508181036000830152612919816128dd565b9050919050565b600061292b82611759565b915061293683611759565b925082820190508082111561294e5761294d611c0e565b5b92915050565b6000608082019050612969600083018761231d565b612976602083018661174a565b6129836040830185611763565b612990606083018461174a565b95945050505050565b7f56616c7565206f7574206f662072616e676520554e424f580000000000000000600082015250565b60006129cf601883611c79565b91506129da82612999565b602082019050919050565b600060208201905081810360008301526129fe816129c2565b9050919050565b6000606082019050612a1a600083018661174a565b612a27602083018561174a565b612a346040830184611763565b949350505050565b6000612a48828461222f565b60148201915081905092915050565b6000612a638287612286565b600482019150612a73828661222f565b601482019150612a8382856122a7565b602082019150612a938284612250565b60208201915081905095945050505050565b600081519050612ab48161181a565b92915050565b600060208284031215612ad057612acf6116ab565b5b6000612ade84828501612aa5565b91505092915050565b7f5361666545524332303a204552433230206f7065726174696f6e20646964206e60008201527f6f74207375636365656400000000000000000000000000000000000000000000602082015250565b6000612b43602a83611c79565b9150612b4e82612ae7565b604082019050919050565b60006020820190508181036000830152612b7281612b36565b9050919050565b7f56616c7565206f7574206f662072616e676520424f5800000000000000000000600082015250565b6000612baf601683611c79565b9150612bba82612b79565b602082019050919050565b60006020820190508181036000830152612bde81612ba2565b9050919050565b6000604082019050612bfa600083018561174a565b612c076020830184611763565b9392505050565b7f4e487b7100000000000000000000000000000000000000000000000000000000600052603260045260246000fd5b7f416464726573733a20696e73756666696369656e742062616c616e636520666f60008201527f722063616c6c0000000000000000000000000000000000000000000000000000602082015250565b6000612c99602683611c79565b9150612ca482612c3d565b604082019050919050565b60006020820190508181036000830152612cc881612c8c565b9050919050565b7f416464726573733a2063616c6c20746f206e6f6e2d636f6e7472616374000000600082015250565b6000612d05601d83611c79565b9150612d1082612ccf565b602082019050919050565b60006020820190508181036000830152612d3481612cf8565b9050919050565b600081519050919050565b600081905092915050565b6000612d5c82612d3b565b612d668185612d46565b9350612d76818560208601612337565b80840191505092915050565b6000612d8e8284612d51565b915081905092915050565b60006020820190508181036000830152612db38184612361565b90509291505056fea264697066735822122092cc986338c07e074cca53602637b8202fa9ab98cb9a0ac8ba839593905c554f64736f6c63430008180033",
  "linkReferences": {},
  "deployedLinkReferences": {}
}