{
  "_format": "hh-sol-artifact-1",
  "contractName": "ERC721Basic",
  "sourceName": "contracts/ERC721/ERC721Basic.sol",
  "abi": [
    {
      "inputs": [
        {
          "internalType": "string",
          "name": "name",
          "type": "string"
        },
        {
          "internalType": "string",
          "name": "symbol",
          "type": "string"
        }
      ],
      "stateMutability": "nonpayable",
      "type": "constructor"
    },
    {
      "inputs": [],
      "name": "AccessControlBadConfirmation",
      "type": "error"
    },
    {
      "inputs": [
        {
          "internalType": "address",
          "name": "account",
          "type": "address"
        },
        {
          "internalType": "bytes32",
          "name": "neededRole",
          "type": "bytes32"
        }
      ],
      "name": "AccessControlUnauthorizedAccount",
      "type": "error"
    },
    {
      "inputs": [
        {
          "internalType": "address",
          "name": "sender",
          "type": "address"
        },
        {
          "internalType": "uint256",
          "name": "tokenId",
          "type": "uint256"
        },
        {
          "internalType": "address",
          "name": "owner",
          "type": "address"
        }
      ],
      "name": "ERC721IncorrectOwner",
      "type": "error"
    },
    {
      "inputs": [
        {
          "internalType": "address",
          "name": "operator",
          "type": "address"
        },
        {
          "internalType": "uint256",
          "name": "tokenId",
          "type": "uint256"
        }
      ],
      "name": "ERC721InsufficientApproval",
      "type": "error"
    },
    {
      "inputs": [
        {
          "internalType": "address",
          "name": "approver",
          "type": "address"
        }
      ],
      "name": "ERC721InvalidApprover",
      "type": "error"
    },
    {
      "inputs": [
        {
          "internalType": "address",
          "name": "operator",
          "type": "address"
        }
      ],
      "name": "ERC721InvalidOperator",
      "type": "error"
    },
    {
      "inputs": [
        {
          "internalType": "address",
          "name": "owner",
          "type": "address"
        }
      ],
      "name": "ERC721InvalidOwner",
      "type": "error"
    },
    {
      "inputs": [
        {
          "internalType": "address",
          "name": "receiver",
          "type": "address"
        }
      ],
      "name": "ERC721InvalidReceiver",
      "type": "error"
    },
    {
      "inputs": [
        {
          "internalType": "address",
          "name": "sender",
          "type": "address"
        }
      ],
      "name": "ERC721InvalidSender",
      "type": "error"
    },
    {
      "inputs": [
        {
          "internalType": "uint256",
          "name": "tokenId",
          "type": "uint256"
        }
      ],
      "name": "ERC721NonexistentToken",
      "type": "error"
    },
    {
      "anonymous": false,
      "inputs": [
        {
          "indexed": true,
          "internalType": "address",
          "name": "owner",
          "type": "address"
        },
        {
          "indexed": true,
          "internalType": "address",
          "name": "approved",
          "type": "address"
        },
        {
          "indexed": true,
          "internalType": "uint256",
          "name": "tokenId",
          "type": "uint256"
        }
      ],
      "name": "Approval",
      "type": "event"
    },
    {
      "anonymous": false,
      "inputs": [
        {
          "indexed": true,
          "internalType": "address",
          "name": "owner",
          "type": "address"
        },
        {
          "indexed": true,
          "internalType": "address",
          "name": "operator",
          "type": "address"
        },
        {
          "indexed": false,
          "internalType": "bool",
          "name": "approved",
          "type": "bool"
        }
      ],
      "name": "ApprovalForAll",
      "type": "event"
    },
    {
      "anonymous": false,
      "inputs": [
        {
          "indexed": true,
          "internalType": "bytes32",
          "name": "role",
          "type": "bytes32"
        },
        {
          "indexed": true,
          "internalType": "bytes32",
          "name": "previousAdminRole",
          "type": "bytes32"
        },
        {
          "indexed": true,
          "internalType": "bytes32",
          "name": "newAdminRole",
          "type": "bytes32"
        }
      ],
      "name": "RoleAdminChanged",
      "type": "event"
    },
    {
      "anonymous": false,
      "inputs": [
        {
          "indexed": true,
          "internalType": "bytes32",
          "name": "role",
          "type": "bytes32"
        },
        {
          "indexed": true,
          "internalType": "address",
          "name": "account",
          "type": "address"
        },
        {
          "indexed": true,
          "internalType": "address",
          "name": "sender",
          "type": "address"
        }
      ],
      "name": "RoleGranted",
      "type": "event"
    },
    {
      "anonymous": false,
      "inputs": [
        {
          "indexed": true,
          "internalType": "bytes32",
          "name": "role",
          "type": "bytes32"
        },
        {
          "indexed": true,
          "internalType": "address",
          "name": "account",
          "type": "address"
        },
        {
          "indexed": true,
          "internalType": "address",
          "name": "sender",
          "type": "address"
        }
      ],
      "name": "RoleRevoked",
      "type": "event"
    },
    {
      "anonymous": false,
      "inputs": [
        {
          "indexed": true,
          "internalType": "address",
          "name": "from",
          "type": "address"
        },
        {
          "indexed": true,
          "internalType": "address",
          "name": "to",
          "type": "address"
        },
        {
          "indexed": true,
          "internalType": "uint256",
          "name": "tokenId",
          "type": "uint256"
        }
      ],
      "name": "Transfer",
      "type": "event"
    },
    {
      "inputs": [],
      "name": "DEFAULT_ADMIN_ROLE",
      "outputs": [
        {
          "internalType": "bytes32",
          "name": "",
          "type": "bytes32"
        }
      ],
      "stateMutability": "view",
      "type": "function"
    },
    {
      "inputs": [],
      "name": "MINTER_ROLE",
      "outputs": [
        {
          "internalType": "bytes32",
          "name": "",
          "type": "bytes32"
        }
      ],
      "stateMutability": "view",
      "type": "function"
    },
    {
      "inputs": [
        {
          "internalType": "address",
          "name": "to",
          "type": "address"
        },
        {
          "internalType": "uint256",
          "name": "tokenId",
          "type": "uint256"
        }
      ],
      "name": "approve",
      "outputs": [],
      "stateMutability": "nonpayable",
      "type": "function"
    },
    {
      "inputs": [
        {
          "internalType": "address",
          "name": "owner",
          "type": "address"
        }
      ],
      "name": "balanceOf",
      "outputs": [
        {
          "internalType": "uint256",
          "name": "",
          "type": "uint256"
        }
      ],
      "stateMutability": "view",
      "type": "function"
    },
    {
      "inputs": [
        {
          "internalType": "uint256",
          "name": "tokenId",
          "type": "uint256"
        }
      ],
      "name": "getApproved",
      "outputs": [
        {
          "internalType": "address",
          "name": "",
          "type": "address"
        }
      ],
      "stateMutability": "view",
      "type": "function"
    },
    {
      "inputs": [
        {
          "internalType": "bytes32",
          "name": "role",
          "type": "bytes32"
        }
      ],
      "name": "getRoleAdmin",
      "outputs": [
        {
          "internalType": "bytes32",
          "name": "",
          "type": "bytes32"
        }
      ],
      "stateMutability": "view",
      "type": "function"
    },
    {
      "inputs": [
        {
          "internalType": "bytes32",
          "name": "role",
          "type": "bytes32"
        },
        {
          "internalType": "address",
          "name": "account",
          "type": "address"
        }
      ],
      "name": "grantRole",
      "outputs": [],
      "stateMutability": "nonpayable",
      "type": "function"
    },
    {
      "inputs": [
        {
          "internalType": "bytes32",
          "name": "role",
          "type": "bytes32"
        },
        {
          "internalType": "address",
          "name": "account",
          "type": "address"
        }
      ],
      "name": "hasRole",
      "outputs": [
        {
          "internalType": "bool",
          "name": "",
          "type": "bool"
        }
      ],
      "stateMutability": "view",
      "type": "function"
    },
    {
      "inputs": [
        {
          "internalType": "address",
          "name": "owner",
          "type": "address"
        },
        {
          "internalType": "address",
          "name": "operator",
          "type": "address"
        }
      ],
      "name": "isApprovedForAll",
      "outputs": [
        {
          "internalType": "bool",
          "name": "",
          "type": "bool"
        }
      ],
      "stateMutability": "view",
      "type": "function"
    },
    {
      "inputs": [
        {
          "internalType": "address",
          "name": "account",
          "type": "address"
        },
        {
          "internalType": "uint256",
          "name": "tokenId",
          "type": "uint256"
        }
      ],
      "name": "mint",
      "outputs": [],
      "stateMutability": "nonpayable",
      "type": "function"
    },
    {
      "inputs": [],
      "name": "name",
      "outputs": [
        {
          "internalType": "string",
          "name": "",
          "type": "string"
        }
      ],
      "stateMutability": "view",
      "type": "function"
    },
    {
      "inputs": [
        {
          "internalType": "uint256",
          "name": "tokenId",
          "type": "uint256"
        }
      ],
      "name": "ownerOf",
      "outputs": [
        {
          "internalType": "address",
          "name": "",
          "type": "address"
        }
      ],
      "stateMutability": "view",
      "type": "function"
    },
    {
      "inputs": [
        {
          "internalType": "bytes32",
          "name": "role",
          "type": "bytes32"
        },
        {
          "internalType": "address",
          "name": "callerConfirmation",
          "type": "address"
        }
      ],
      "name": "renounceRole",
      "outputs": [],
      "stateMutability": "nonpayable",
      "type": "function"
    },
    {
      "inputs": [
        {
          "internalType": "bytes32",
          "name": "role",
          "type": "bytes32"
        },
        {
          "internalType": "address",
          "name": "account",
          "type": "address"
        }
      ],
      "name": "revokeRole",
      "outputs": [],
      "stateMutability": "nonpayable",
      "type": "function"
    },
    {
      "inputs": [
        {
          "internalType": "address",
          "name": "from",
          "type": "address"
        },
        {
          "internalType": "address",
          "name": "to",
          "type": "address"
        },
        {
          "internalType": "uint256",
          "name": "tokenId",
          "type": "uint256"
        }
      ],
      "name": "safeTransferFrom",
      "outputs": [],
      "stateMutability": "nonpayable",
      "type": "function"
    },
    {
      "inputs": [
        {
          "internalType": "address",
          "name": "from",
          "type": "address"
        },
        {
          "internalType": "address",
          "name": "to",
          "type": "address"
        },
        {
          "internalType": "uint256",
          "name": "tokenId",
          "type": "uint256"
        },
        {
          "internalType": "bytes",
          "name": "data",
          "type": "bytes"
        }
      ],
      "name": "safeTransferFrom",
      "outputs": [],
      "stateMutability": "nonpayable",
      "type": "function"
    },
    {
      "inputs": [
        {
          "internalType": "address",
          "name": "operator",
          "type": "address"
        },
        {
          "internalType": "bool",
          "name": "approved",
          "type": "bool"
        }
      ],
      "name": "setApprovalForAll",
      "outputs": [],
      "stateMutability": "nonpayable",
      "type": "function"
    },
    {
      "inputs": [
        {
          "internalType": "bytes4",
          "name": "interfaceId",
          "type": "bytes4"
        }
      ],
      "name": "supportsInterface",
      "outputs": [
        {
          "internalType": "bool",
          "name": "",
          "type": "bool"
        }
      ],
      "stateMutability": "view",
      "type": "function"
    },
    {
      "inputs": [],
      "name": "symbol",
      "outputs": [
        {
          "internalType": "string",
          "name": "",
          "type": "string"
        }
      ],
      "stateMutability": "view",
      "type": "function"
    },
    {
      "inputs": [
        {
          "internalType": "uint256",
          "name": "tokenId",
          "type": "uint256"
        }
      ],
      "name": "tokenURI",
      "outputs": [
        {
          "internalType": "string",
          "name": "",
          "type": "string"
        }
      ],
      "stateMutability": "view",
      "type": "function"
    },
    {
      "inputs": [
        {
          "internalType": "address",
          "name": "from",
          "type": "address"
        },
        {
          "internalType": "address",
          "name": "to",
          "type": "address"
        },
        {
          "internalType": "uint256",
          "name": "tokenId",
          "type": "uint256"
        }
      ],
      "name": "transferFrom",
      "outputs": [],
      "stateMutability": "nonpayable",
      "type": "function"
    }
  ],
  "bytecode": "0x60806040523480156200001157600080fd5b5060405162002c1738038062002c178339818101604052810190620000379190620003b3565b818181600090816200004a919062000683565b5080600190816200005c919062000683565b505050620000a07f9f2df0fed2c77648de5860a4cc508cd0818c85b8b8a1ab4ceeef8d981c8956a662000094620000a960201b60201c565b620000b160201b60201c565b5050506200076a565b600033905090565b6000620000c58383620001b560201b60201c565b620001aa5760016006600085815260200190815260200160002060000160008473ffffffffffffffffffffffffffffffffffffffff1673ffffffffffffffffffffffffffffffffffffffff16815260200190815260200160002060006101000a81548160ff02191690831515021790555062000146620000a960201b60201c565b73ffffffffffffffffffffffffffffffffffffffff168273ffffffffffffffffffffffffffffffffffffffff16847f2f8788117e7eff1d82e926ec794901d17c78024a50270940304540a733656f0d60405160405180910390a460019050620001af565b600090505b92915050565b60006006600084815260200190815260200160002060000160008373ffffffffffffffffffffffffffffffffffffffff1673ffffffffffffffffffffffffffffffffffffffff16815260200190815260200160002060009054906101000a900460ff16905092915050565b6000604051905090565b600080fd5b600080fd5b600080fd5b600080fd5b6000601f19601f8301169050919050565b7f4e487b7100000000000000000000000000000000000000000000000000000000600052604160045260246000fd5b62000289826200023e565b810181811067ffffffffffffffff82111715620002ab57620002aa6200024f565b5b80604052505050565b6000620002c062000220565b9050620002ce82826200027e565b919050565b600067ffffffffffffffff821115620002f157620002f06200024f565b5b620002fc826200023e565b9050602081019050919050565b60005b83811015620003295780820151818401526020810190506200030c565b60008484015250505050565b60006200034c6200034684620002d3565b620002b4565b9050828152602081018484840111156200036b576200036a62000239565b5b6200037884828562000309565b509392505050565b600082601f83011262000398576200039762000234565b5b8151620003aa84826020860162000335565b91505092915050565b60008060408385031215620003cd57620003cc6200022a565b5b600083015167ffffffffffffffff811115620003ee57620003ed6200022f565b5b620003fc8582860162000380565b925050602083015167ffffffffffffffff81111562000420576200041f6200022f565b5b6200042e8582860162000380565b9150509250929050565b600081519050919050565b7f4e487b7100000000000000000000000000000000000000000000000000000000600052602260045260246000fd5b600060028204905060018216806200048b57607f821691505b602082108103620004a157620004a062000443565b5b50919050565b60008190508160005260206000209050919050565b60006020601f8301049050919050565b600082821b905092915050565b6000600883026200050b7fffffffffffffffffffffffffffffffffffffffffffffffffffffffffffffffff82620004cc565b620005178683620004cc565b95508019841693508086168417925050509392505050565b6000819050919050565b6000819050919050565b6000620005646200055e62000558846200052f565b62000539565b6200052f565b9050919050565b6000819050919050565b620005808362000543565b620005986200058f826200056b565b848454620004d9565b825550505050565b600090565b620005af620005a0565b620005bc81848462000575565b505050565b5b81811015620005e457620005d8600082620005a5565b600181019050620005c2565b5050565b601f8211156200063357620005fd81620004a7565b6200060884620004bc565b8101602085101562000618578190505b620006306200062785620004bc565b830182620005c1565b50505b505050565b600082821c905092915050565b6000620006586000198460080262000638565b1980831691505092915050565b600062000673838362000645565b9150826002028217905092915050565b6200068e8262000438565b67ffffffffffffffff811115620006aa57620006a96200024f565b5b620006b6825462000472565b620006c3828285620005e8565b600060209050601f831160018114620006fb5760008415620006e6578287015190505b620006f2858262000665565b86555062000762565b601f1984166200070b86620004a7565b60005b8281101562000735578489015182556001820191506020850194506020810190506200070e565b8683101562000755578489015162000751601f89168262000645565b8355505b6001600288020188555050505b505050505050565b61249d806200077a6000396000f3fe608060405234801561001057600080fd5b50600436106101375760003560e01c80636352211e116100b8578063a22cb4651161007c578063a22cb4651461035e578063b88d4fde1461037a578063c87b56dd14610396578063d5391393146103c6578063d547741f146103e4578063e985e9c51461040057610137565b80636352211e1461029257806370a08231146102c257806391d14854146102f257806395d89b4114610322578063a217fddf1461034057610137565b8063248a9ca3116100ff578063248a9ca3146101f25780632f2ff15d1461022257806336568abe1461023e57806340c10f191461025a57806342842e0e1461027657610137565b806301ffc9a71461013c57806306fdde031461016c578063081812fc1461018a578063095ea7b3146101ba57806323b872dd146101d6575b600080fd5b61015660048036038101906101519190611bf1565b610430565b6040516101639190611c39565b60405180910390f35b610174610442565b6040516101819190611ce4565b60405180910390f35b6101a4600480360381019061019f9190611d3c565b6104d4565b6040516101b19190611daa565b60405180910390f35b6101d460048036038101906101cf9190611df1565b6104f0565b005b6101f060048036038101906101eb9190611e31565b610506565b005b61020c60048036038101906102079190611eba565b610608565b6040516102199190611ef6565b60405180910390f35b61023c60048036038101906102379190611f11565b610628565b005b61025860048036038101906102539190611f11565b61064a565b005b610274600480360381019061026f9190611df1565b6106c5565b005b610290600480360381019061028b9190611e31565b6106fe565b005b6102ac60048036038101906102a79190611d3c565b61071e565b6040516102b99190611daa565b60405180910390f35b6102dc60048036038101906102d79190611f51565b610730565b6040516102e99190611f8d565b60405180910390f35b61030c60048036038101906103079190611f11565b6107ea565b6040516103199190611c39565b60405180910390f35b61032a610855565b6040516103379190611ce4565b60405180910390f35b6103486108e7565b6040516103559190611ef6565b60405180910390f35b61037860048036038101906103739190611fd4565b6108ee565b005b610394600480360381019061038f9190612149565b610904565b005b6103b060048036038101906103ab9190611d3c565b610921565b6040516103bd9190611ce4565b60405180910390f35b6103ce61098a565b6040516103db9190611ef6565b60405180910390f35b6103fe60048036038101906103f99190611f11565b6109ae565b005b61041a600480360381019061041591906121cc565b6109d0565b6040516104279190611c39565b60405180910390f35b600061043b82610a64565b9050919050565b6060600080546104519061223b565b80601f016020809104026020016040519081016040528092919081815260200182805461047d9061223b565b80156104ca5780601f1061049f576101008083540402835291602001916104ca565b820191906000526020600020905b8154815290600101906020018083116104ad57829003601f168201915b5050505050905090565b60006104df82610ade565b506104e982610b66565b9050919050565b61050282826104fd610ba3565b610bab565b5050565b600073ffffffffffffffffffffffffffffffffffffffff168273ffffffffffffffffffffffffffffffffffffffff16036105785760006040517f64a0ae9200000000000000000000000000000000000000000000000000000000815260040161056f9190611daa565b60405180910390fd5b600061058c8383610587610ba3565b610bbd565b90508373ffffffffffffffffffffffffffffffffffffffff168173ffffffffffffffffffffffffffffffffffffffff1614610602578382826040517f64283d7b0000000000000000000000000000000000000000000000000000000081526004016105f99392919061226c565b60405180910390fd5b50505050565b600060066000838152602001908152602001600020600101549050919050565b61063182610608565b61063a81610dd7565b6106448383610deb565b50505050565b610652610ba3565b73ffffffffffffffffffffffffffffffffffffffff168173ffffffffffffffffffffffffffffffffffffffff16146106b6576040517f6697b23200000000000000000000000000000000000000000000000000000000815260040160405180910390fd5b6106c08282610edd565b505050565b7f9f2df0fed2c77648de5860a4cc508cd0818c85b8b8a1ab4ceeef8d981c8956a66106ef81610dd7565b6106f98383610fd0565b505050565b61071983838360405180602001604052806000815250610904565b505050565b600061072982610ade565b9050919050565b60008073ffffffffffffffffffffffffffffffffffffffff168273ffffffffffffffffffffffffffffffffffffffff16036107a35760006040517f89c62b6400000000000000000000000000000000000000000000000000000000815260040161079a9190611daa565b60405180910390fd5b600360008373ffffffffffffffffffffffffffffffffffffffff1673ffffffffffffffffffffffffffffffffffffffff168152602001908152602001600020549050919050565b60006006600084815260200190815260200160002060000160008373ffffffffffffffffffffffffffffffffffffffff1673ffffffffffffffffffffffffffffffffffffffff16815260200190815260200160002060009054906101000a900460ff16905092915050565b6060600180546108649061223b565b80601f01602080910402602001604051908101604052809291908181526020018280546108909061223b565b80156108dd5780601f106108b2576101008083540402835291602001916108dd565b820191906000526020600020905b8154815290600101906020018083116108c057829003601f168201915b5050505050905090565b6000801b81565b6109006108f9610ba3565b8383610fee565b5050565b61090f848484610506565b61091b8484848461115d565b50505050565b606061092c82610ade565b506000610937611314565b905060008151116109575760405180602001604052806000815250610982565b806109618461132b565b6040516020016109729291906122df565b6040516020818303038152906040525b915050919050565b7f9f2df0fed2c77648de5860a4cc508cd0818c85b8b8a1ab4ceeef8d981c8956a681565b6109b782610608565b6109c081610dd7565b6109ca8383610edd565b50505050565b6000600560008473ffffffffffffffffffffffffffffffffffffffff1673ffffffffffffffffffffffffffffffffffffffff16815260200190815260200160002060008373ffffffffffffffffffffffffffffffffffffffff1673ffffffffffffffffffffffffffffffffffffffff16815260200190815260200160002060009054906101000a900460ff16905092915050565b60007f7965db0b000000000000000000000000000000000000000000000000000000007bffffffffffffffffffffffffffffffffffffffffffffffffffffffff1916827bffffffffffffffffffffffffffffffffffffffffffffffffffffffff19161480610ad75750610ad6826113f9565b5b9050919050565b600080610aea836114db565b9050600073ffffffffffffffffffffffffffffffffffffffff168173ffffffffffffffffffffffffffffffffffffffff1603610b5d57826040517f7e273289000000000000000000000000000000000000000000000000000000008152600401610b549190611f8d565b60405180910390fd5b80915050919050565b60006004600083815260200190815260200160002060009054906101000a900473ffffffffffffffffffffffffffffffffffffffff169050919050565b600033905090565b610bb88383836001611518565b505050565b600080610bc9846114db565b9050600073ffffffffffffffffffffffffffffffffffffffff168373ffffffffffffffffffffffffffffffffffffffff1614610c0b57610c0a8184866116dd565b5b600073ffffffffffffffffffffffffffffffffffffffff168173ffffffffffffffffffffffffffffffffffffffff1614610c9c57610c4d600085600080611518565b6001600360008373ffffffffffffffffffffffffffffffffffffffff1673ffffffffffffffffffffffffffffffffffffffff168152602001908152602001600020600082825403925050819055505b600073ffffffffffffffffffffffffffffffffffffffff168573ffffffffffffffffffffffffffffffffffffffff1614610d1f576001600360008773ffffffffffffffffffffffffffffffffffffffff1673ffffffffffffffffffffffffffffffffffffffff168152602001908152602001600020600082825401925050819055505b846002600086815260200190815260200160002060006101000a81548173ffffffffffffffffffffffffffffffffffffffff021916908373ffffffffffffffffffffffffffffffffffffffff160217905550838573ffffffffffffffffffffffffffffffffffffffff168273ffffffffffffffffffffffffffffffffffffffff167fddf252ad1be2c89b69c2b068fc378daa952ba7f163c4a11628f55a4df523b3ef60405160405180910390a4809150509392505050565b610de881610de3610ba3565b6117a1565b50565b6000610df783836107ea565b610ed25760016006600085815260200190815260200160002060000160008473ffffffffffffffffffffffffffffffffffffffff1673ffffffffffffffffffffffffffffffffffffffff16815260200190815260200160002060006101000a81548160ff021916908315150217905550610e6f610ba3565b73ffffffffffffffffffffffffffffffffffffffff168273ffffffffffffffffffffffffffffffffffffffff16847f2f8788117e7eff1d82e926ec794901d17c78024a50270940304540a733656f0d60405160405180910390a460019050610ed7565b600090505b92915050565b6000610ee983836107ea565b15610fc55760006006600085815260200190815260200160002060000160008473ffffffffffffffffffffffffffffffffffffffff1673ffffffffffffffffffffffffffffffffffffffff16815260200190815260200160002060006101000a81548160ff021916908315150217905550610f62610ba3565b73ffffffffffffffffffffffffffffffffffffffff168273ffffffffffffffffffffffffffffffffffffffff16847ff6391f5c32d9c69d2a47ea670b442974b53935d1edc7fd64eb21e047a839171b60405160405180910390a460019050610fca565b600090505b92915050565b610fea8282604051806020016040528060008152506117f2565b5050565b600073ffffffffffffffffffffffffffffffffffffffff168273ffffffffffffffffffffffffffffffffffffffff160361105f57816040517f5b08ba180000000000000000000000000000000000000000000000000000000081526004016110569190611daa565b60405180910390fd5b80600560008573ffffffffffffffffffffffffffffffffffffffff1673ffffffffffffffffffffffffffffffffffffffff16815260200190815260200160002060008473ffffffffffffffffffffffffffffffffffffffff1673ffffffffffffffffffffffffffffffffffffffff16815260200190815260200160002060006101000a81548160ff0219169083151502179055508173ffffffffffffffffffffffffffffffffffffffff168373ffffffffffffffffffffffffffffffffffffffff167f17307eab39ab6107e8899845ad3d59bd9653f200f220920489ca2b5937696c31836040516111509190611c39565b60405180910390a3505050565b60008373ffffffffffffffffffffffffffffffffffffffff163b111561130e578273ffffffffffffffffffffffffffffffffffffffff1663150b7a026111a1610ba3565b8685856040518563ffffffff1660e01b81526004016111c39493929190612358565b6020604051808303816000875af19250505080156111ff57506040513d601f19601f820116820180604052508101906111fc91906123b9565b60015b611283573d806000811461122f576040519150601f19603f3d011682016040523d82523d6000602084013e611234565b606091505b50600081510361127b57836040517f64a0ae920000000000000000000000000000000000000000000000000000000081526004016112729190611daa565b60405180910390fd5b805181602001fd5b63150b7a0260e01b7bffffffffffffffffffffffffffffffffffffffffffffffffffffffff1916817bffffffffffffffffffffffffffffffffffffffffffffffffffffffff19161461130c57836040517f64a0ae920000000000000000000000000000000000000000000000000000000081526004016113039190611daa565b60405180910390fd5b505b50505050565b606060405180602001604052806000815250905090565b60606000600161133a8461180e565b01905060008167ffffffffffffffff8111156113595761135861201e565b5b6040519080825280601f01601f19166020018201604052801561138b5781602001600182028036833780820191505090505b509050600082602001820190505b6001156113ee578080600190039150507f3031323334353637383961626364656600000000000000000000000000000000600a86061a8153600a85816113e2576113e16123e6565b5b04945060008503611399575b819350505050919050565b60007f80ac58cd000000000000000000000000000000000000000000000000000000007bffffffffffffffffffffffffffffffffffffffffffffffffffffffff1916827bffffffffffffffffffffffffffffffffffffffffffffffffffffffff191614806114c457507f5b5e139f000000000000000000000000000000000000000000000000000000007bffffffffffffffffffffffffffffffffffffffffffffffffffffffff1916827bffffffffffffffffffffffffffffffffffffffffffffffffffffffff1916145b806114d457506114d382611961565b5b9050919050565b60006002600083815260200190815260200160002060009054906101000a900473ffffffffffffffffffffffffffffffffffffffff169050919050565b80806115515750600073ffffffffffffffffffffffffffffffffffffffff168273ffffffffffffffffffffffffffffffffffffffff1614155b1561168557600061156184610ade565b9050600073ffffffffffffffffffffffffffffffffffffffff168373ffffffffffffffffffffffffffffffffffffffff16141580156115cc57508273ffffffffffffffffffffffffffffffffffffffff168173ffffffffffffffffffffffffffffffffffffffff1614155b80156115df57506115dd81846109d0565b155b1561162157826040517fa9fbf51f0000000000000000000000000000000000000000000000000000000081526004016116189190611daa565b60405180910390fd5b811561168357838573ffffffffffffffffffffffffffffffffffffffff168273ffffffffffffffffffffffffffffffffffffffff167f8c5be1e5ebec7d5bd14f71427d1e84f3dd0314c0f7b2291e5b200ac8c7c3b92560405160405180910390a45b505b836004600085815260200190815260200160002060006101000a81548173ffffffffffffffffffffffffffffffffffffffff021916908373ffffffffffffffffffffffffffffffffffffffff16021790555050505050565b6116e88383836119cb565b61179c57600073ffffffffffffffffffffffffffffffffffffffff168373ffffffffffffffffffffffffffffffffffffffff160361175d57806040517f7e2732890000000000000000000000000000000000000000000000000000000081526004016117549190611f8d565b60405180910390fd5b81816040517f177e802f000000000000000000000000000000000000000000000000000000008152600401611793929190612415565b60405180910390fd5b505050565b6117ab82826107ea565b6117ee5780826040517fe2517d3f0000000000000000000000000000000000000000000000000000000081526004016117e592919061243e565b60405180910390fd5b5050565b6117fc8383611a8c565b611809600084848461115d565b505050565b600080600090507a184f03e93ff9f4daa797ed6e38ed64bf6a1f010000000000000000831061186c577a184f03e93ff9f4daa797ed6e38ed64bf6a1f0100000000000000008381611862576118616123e6565b5b0492506040810190505b6d04ee2d6d415b85acef810000000083106118a9576d04ee2d6d415b85acef8100000000838161189f5761189e6123e6565b5b0492506020810190505b662386f26fc1000083106118d857662386f26fc1000083816118ce576118cd6123e6565b5b0492506010810190505b6305f5e1008310611901576305f5e10083816118f7576118f66123e6565b5b0492506008810190505b612710831061192657612710838161191c5761191b6123e6565b5b0492506004810190505b60648310611949576064838161193f5761193e6123e6565b5b0492506002810190505b600a8310611958576001810190505b80915050919050565b60007f01ffc9a7000000000000000000000000000000000000000000000000000000007bffffffffffffffffffffffffffffffffffffffffffffffffffffffff1916827bffffffffffffffffffffffffffffffffffffffffffffffffffffffff1916149050919050565b60008073ffffffffffffffffffffffffffffffffffffffff168373ffffffffffffffffffffffffffffffffffffffff1614158015611a8357508273ffffffffffffffffffffffffffffffffffffffff168473ffffffffffffffffffffffffffffffffffffffff161480611a445750611a4384846109d0565b5b80611a8257508273ffffffffffffffffffffffffffffffffffffffff16611a6a83610b66565b73ffffffffffffffffffffffffffffffffffffffff16145b5b90509392505050565b600073ffffffffffffffffffffffffffffffffffffffff168273ffffffffffffffffffffffffffffffffffffffff1603611afe5760006040517f64a0ae92000000000000000000000000000000000000000000000000000000008152600401611af59190611daa565b60405180910390fd5b6000611b0c83836000610bbd565b9050600073ffffffffffffffffffffffffffffffffffffffff168173ffffffffffffffffffffffffffffffffffffffff1614611b805760006040517f73c6ac6e000000000000000000000000000000000000000000000000000000008152600401611b779190611daa565b60405180910390fd5b505050565b6000604051905090565b600080fd5b600080fd5b60007fffffffff0000000000000000000000000000000000000000000000000000000082169050919050565b611bce81611b99565b8114611bd957600080fd5b50565b600081359050611beb81611bc5565b92915050565b600060208284031215611c0757611c06611b8f565b5b6000611c1584828501611bdc565b91505092915050565b60008115159050919050565b611c3381611c1e565b82525050565b6000602082019050611c4e6000830184611c2a565b92915050565b600081519050919050565b600082825260208201905092915050565b60005b83811015611c8e578082015181840152602081019050611c73565b60008484015250505050565b6000601f19601f8301169050919050565b6000611cb682611c54565b611cc08185611c5f565b9350611cd0818560208601611c70565b611cd981611c9a565b840191505092915050565b60006020820190508181036000830152611cfe8184611cab565b905092915050565b6000819050919050565b611d1981611d06565b8114611d2457600080fd5b50565b600081359050611d3681611d10565b92915050565b600060208284031215611d5257611d51611b8f565b5b6000611d6084828501611d27565b91505092915050565b600073ffffffffffffffffffffffffffffffffffffffff82169050919050565b6000611d9482611d69565b9050919050565b611da481611d89565b82525050565b6000602082019050611dbf6000830184611d9b565b92915050565b611dce81611d89565b8114611dd957600080fd5b50565b600081359050611deb81611dc5565b92915050565b60008060408385031215611e0857611e07611b8f565b5b6000611e1685828601611ddc565b9250506020611e2785828601611d27565b9150509250929050565b600080600060608486031215611e4a57611e49611b8f565b5b6000611e5886828701611ddc565b9350506020611e6986828701611ddc565b9250506040611e7a86828701611d27565b9150509250925092565b6000819050919050565b611e9781611e84565b8114611ea257600080fd5b50565b600081359050611eb481611e8e565b92915050565b600060208284031215611ed057611ecf611b8f565b5b6000611ede84828501611ea5565b91505092915050565b611ef081611e84565b82525050565b6000602082019050611f0b6000830184611ee7565b92915050565b60008060408385031215611f2857611f27611b8f565b5b6000611f3685828601611ea5565b9250506020611f4785828601611ddc565b9150509250929050565b600060208284031215611f6757611f66611b8f565b5b6000611f7584828501611ddc565b91505092915050565b611f8781611d06565b82525050565b6000602082019050611fa26000830184611f7e565b92915050565b611fb181611c1e565b8114611fbc57600080fd5b50565b600081359050611fce81611fa8565b92915050565b60008060408385031215611feb57611fea611b8f565b5b6000611ff985828601611ddc565b925050602061200a85828601611fbf565b9150509250929050565b600080fd5b600080fd5b7f4e487b7100000000000000000000000000000000000000000000000000000000600052604160045260246000fd5b61205682611c9a565b810181811067ffffffffffffffff821117156120755761207461201e565b5b80604052505050565b6000612088611b85565b9050612094828261204d565b919050565b600067ffffffffffffffff8211156120b4576120b361201e565b5b6120bd82611c9a565b9050602081019050919050565b82818337600083830152505050565b60006120ec6120e784612099565b61207e565b90508281526020810184848401111561210857612107612019565b5b6121138482856120ca565b509392505050565b600082601f8301126121305761212f612014565b5b81356121408482602086016120d9565b91505092915050565b6000806000806080858703121561216357612162611b8f565b5b600061217187828801611ddc565b945050602061218287828801611ddc565b935050604061219387828801611d27565b925050606085013567ffffffffffffffff8111156121b4576121b3611b94565b5b6121c08782880161211b565b91505092959194509250565b600080604083850312156121e3576121e2611b8f565b5b60006121f185828601611ddc565b925050602061220285828601611ddc565b9150509250929050565b7f4e487b7100000000000000000000000000000000000000000000000000000000600052602260045260246000fd5b6000600282049050600182168061225357607f821691505b6020821081036122665761226561220c565b5b50919050565b60006060820190506122816000830186611d9b565b61228e6020830185611f7e565b61229b6040830184611d9b565b949350505050565b600081905092915050565b60006122b982611c54565b6122c381856122a3565b93506122d3818560208601611c70565b80840191505092915050565b60006122eb82856122ae565b91506122f782846122ae565b91508190509392505050565b600081519050919050565b600082825260208201905092915050565b600061232a82612303565b612334818561230e565b9350612344818560208601611c70565b61234d81611c9a565b840191505092915050565b600060808201905061236d6000830187611d9b565b61237a6020830186611d9b565b6123876040830185611f7e565b8181036060830152612399818461231f565b905095945050505050565b6000815190506123b381611bc5565b92915050565b6000602082840312156123cf576123ce611b8f565b5b60006123dd848285016123a4565b91505092915050565b7f4e487b7100000000000000000000000000000000000000000000000000000000600052601260045260246000fd5b600060408201905061242a6000830185611d9b565b6124376020830184611f7e565b9392505050565b60006040820190506124536000830185611d9b565b6124606020830184611ee7565b939250505056fea264697066735822122090e12a2be41292352f59bb9fbca3019ef06501b6d353080c9d8a083886598cd264736f6c63430008180033",
  "linkReferences": {},
  "deployedLinkReferences": {}
}