{
  "_format": "hh-sol-artifact-1",
  "contractName": "SimpleToken",
  "sourceName": "contracts/redpacket/SimpleToken.sol",
  "abi": [
    {
      "inputs": [
        {
          "internalType": "string",
          "name": "name",
          "type": "string"
        },
        {
          "internalType": "string",
          "name": "symbol",
          "type": "string"
        },
        {
          "internalType": "uint8",
          "name": "decimals_",
          "type": "uint8"
        },
        {
          "internalType": "uint256",
          "name": "initial_supply",
          "type": "uint256"
        }
      ],
      "stateMutability": "nonpayable",
      "type": "constructor"
    },
    {
      "inputs": [
        {
          "internalType": "address",
          "name": "spender",
          "type": "address"
        },
        {
          "internalType": "uint256",
          "name": "allowance",
          "type": "uint256"
        },
        {
          "internalType": "uint256",
          "name": "needed",
          "type": "uint256"
        }
      ],
      "name": "ERC20InsufficientAllowance",
      "type": "error"
    },
    {
      "inputs": [
        {
          "internalType": "address",
          "name": "sender",
          "type": "address"
        },
        {
          "internalType": "uint256",
          "name": "balance",
          "type": "uint256"
        },
        {
          "internalType": "uint256",
          "name": "needed",
          "type": "uint256"
        }
      ],
      "name": "ERC20InsufficientBalance",
      "type": "error"
    },
    {
      "inputs": [
        {
          "internalType": "address",
          "name": "approver",
          "type": "address"
        }
      ],
      "name": "ERC20InvalidApprover",
      "type": "error"
    },
    {
      "inputs": [
        {
          "internalType": "address",
          "name": "receiver",
          "type": "address"
        }
      ],
      "name": "ERC20InvalidReceiver",
      "type": "error"
    },
    {
      "inputs": [
        {
          "internalType": "address",
          "name": "sender",
          "type": "address"
        }
      ],
      "name": "ERC20InvalidSender",
      "type": "error"
    },
    {
      "inputs": [
        {
          "internalType": "address",
          "name": "spender",
          "type": "address"
        }
      ],
      "name": "ERC20InvalidSpender",
      "type": "error"
    },
    {
      "anonymous": false,
      "inputs": [
        {
          "indexed": true,
          "internalType": "address",
          "name": "owner",
          "type": "address"
        },
        {
          "indexed": true,
          "internalType": "address",
          "name": "spender",
          "type": "address"
        },
        {
          "indexed": false,
          "internalType": "uint256",
          "name": "value",
          "type": "uint256"
        }
      ],
      "name": "Approval",
      "type": "event"
    },
    {
      "anonymous": false,
      "inputs": [
        {
          "indexed": true,
          "internalType": "address",
          "name": "from",
          "type": "address"
        },
        {
          "indexed": true,
          "internalType": "address",
          "name": "to",
          "type": "address"
        },
        {
          "indexed": false,
          "internalType": "uint256",
          "name": "value",
          "type": "uint256"
        }
      ],
      "name": "Transfer",
      "type": "event"
    },
    {
      "inputs": [],
      "name": "INITIAL_SUPPLY",
      "outputs": [
        {
          "internalType": "uint256",
          "name": "",
          "type": "uint256"
        }
      ],
      "stateMutability": "view",
      "type": "function"
    },
    {
      "inputs": [
        {
          "internalType": "address",
          "name": "owner",
          "type": "address"
        },
        {
          "internalType": "address",
          "name": "spender",
          "type": "address"
        }
      ],
      "name": "allowance",
      "outputs": [
        {
          "internalType": "uint256",
          "name": "",
          "type": "uint256"
        }
      ],
      "stateMutability": "view",
      "type": "function"
    },
    {
      "inputs": [
        {
          "internalType": "address",
          "name": "spender",
          "type": "address"
        },
        {
          "internalType": "uint256",
          "name": "value",
          "type": "uint256"
        }
      ],
      "name": "approve",
      "outputs": [
        {
          "internalType": "bool",
          "name": "",
          "type": "bool"
        }
      ],
      "stateMutability": "nonpayable",
      "type": "function"
    },
    {
      "inputs": [
        {
          "internalType": "address",
          "name": "account",
          "type": "address"
        }
      ],
      "name": "balanceOf",
      "outputs": [
        {
          "internalType": "uint256",
          "name": "",
          "type": "uint256"
        }
      ],
      "stateMutability": "view",
      "type": "function"
    },
    {
      "inputs": [],
      "name": "decimals",
      "outputs": [
        {
          "internalType": "uint8",
          "name": "",
          "type": "uint8"
        }
      ],
      "stateMutability": "view",
      "type": "function"
    },
    {
      "inputs": [],
      "name": "name",
      "outputs": [
        {
          "internalType": "string",
          "name": "",
          "type": "string"
        }
      ],
      "stateMutability": "view",
      "type": "function"
    },
    {
      "inputs": [],
      "name": "symbol",
      "outputs": [
        {
          "internalType": "string",
          "name": "",
          "type": "string"
        }
      ],
      "stateMutability": "view",
      "type": "function"
    },
    {
      "inputs": [],
      "name": "totalSupply",
      "outputs": [
        {
          "internalType": "uint256",
          "name": "",
          "type": "uint256"
        }
      ],
      "stateMutability": "view",
      "type": "function"
    },
    {
      "inputs": [
        {
          "internalType": "address",
          "name": "to",
          "type": "address"
        },
        {
          "internalType": "uint256",
          "name": "value",
          "type": "uint256"
        }
      ],
      "name": "transfer",
      "outputs": [
        {
          "internalType": "bool",
          "name": "",
          "type": "bool"
        }
      ],
      "stateMutability": "nonpayable",
      "type": "function"
    },
    {
      "inputs": [
        {
          "internalType": "address",
          "name": "from",
          "type": "address"
        },
        {
          "internalType": "address",
          "name": "to",
          "type": "address"
        },
        {
          "internalType": "uint256",
          "name": "value",
          "type": "uint256"
        }
      ],
      "name": "transferFrom",
      "outputs": [
        {
          "internalType": "bool",
          "name": "",
          "type": "bool"
        }
      ],
      "stateMutability": "nonpayable",
      "type": "function"
    }
  ],
  "bytecode": "0x60806040523480156200001157600080fd5b5060405162001b4338038062001b438339818101604052810190620000379190620005a2565b838381600390816200004a919062000893565b5080600490816200005c919062000893565b50505081600560006101000a81548160ff021916908360ff1602179055508160ff16600a6200008c919062000afd565b8162000099919062000b4e565b600681905550620000cf338360ff16600a620000b6919062000afd565b83620000c3919062000b4e565b620000d960201b60201c565b5050505062000ca1565b600073ffffffffffffffffffffffffffffffffffffffff168273ffffffffffffffffffffffffffffffffffffffff16036200014e5760006040517fec442f0500000000000000000000000000000000000000000000000000000000815260040162000145919062000bde565b60405180910390fd5b62000162600083836200016660201b60201c565b5050565b600073ffffffffffffffffffffffffffffffffffffffff168373ffffffffffffffffffffffffffffffffffffffff1603620001bc578060026000828254620001af919062000bfb565b9250508190555062000292565b60008060008573ffffffffffffffffffffffffffffffffffffffff1673ffffffffffffffffffffffffffffffffffffffff168152602001908152602001600020549050818110156200024b578381836040517fe450d38c000000000000000000000000000000000000000000000000000000008152600401620002429392919062000c47565b60405180910390fd5b8181036000808673ffffffffffffffffffffffffffffffffffffffff1673ffffffffffffffffffffffffffffffffffffffff16815260200190815260200160002081905550505b600073ffffffffffffffffffffffffffffffffffffffff168273ffffffffffffffffffffffffffffffffffffffff1603620002dd57806002600082825403925050819055506200032a565b806000808473ffffffffffffffffffffffffffffffffffffffff1673ffffffffffffffffffffffffffffffffffffffff168152602001908152602001600020600082825401925050819055505b8173ffffffffffffffffffffffffffffffffffffffff168373ffffffffffffffffffffffffffffffffffffffff167fddf252ad1be2c89b69c2b068fc378daa952ba7f163c4a11628f55a4df523b3ef8360405162000389919062000c84565b60405180910390a3505050565b6000604051905090565b600080fd5b600080fd5b600080fd5b600080fd5b6000601f19601f8301169050919050565b7f4e487b7100000000000000000000000000000000000000000000000000000000600052604160045260246000fd5b620003ff82620003b4565b810181811067ffffffffffffffff82111715620004215762000420620003c5565b5b80604052505050565b60006200043662000396565b9050620004448282620003f4565b919050565b600067ffffffffffffffff821115620004675762000466620003c5565b5b6200047282620003b4565b9050602081019050919050565b60005b838110156200049f57808201518184015260208101905062000482565b60008484015250505050565b6000620004c2620004bc8462000449565b6200042a565b905082815260208101848484011115620004e157620004e0620003af565b5b620004ee8482856200047f565b509392505050565b600082601f8301126200050e576200050d620003aa565b5b815162000520848260208601620004ab565b91505092915050565b600060ff82169050919050565b620005418162000529565b81146200054d57600080fd5b50565b600081519050620005618162000536565b92915050565b6000819050919050565b6200057c8162000567565b81146200058857600080fd5b50565b6000815190506200059c8162000571565b92915050565b60008060008060808587031215620005bf57620005be620003a0565b5b600085015167ffffffffffffffff811115620005e057620005df620003a5565b5b620005ee87828801620004f6565b945050602085015167ffffffffffffffff811115620006125762000611620003a5565b5b6200062087828801620004f6565b9350506040620006338782880162000550565b925050606062000646878288016200058b565b91505092959194509250565b600081519050919050565b7f4e487b7100000000000000000000000000000000000000000000000000000000600052602260045260246000fd5b60006002820490506001821680620006a557607f821691505b602082108103620006bb57620006ba6200065d565b5b50919050565b60008190508160005260206000209050919050565b60006020601f8301049050919050565b600082821b905092915050565b600060088302620007257fffffffffffffffffffffffffffffffffffffffffffffffffffffffffffffffff82620006e6565b620007318683620006e6565b95508019841693508086168417925050509392505050565b6000819050919050565b6000620007746200076e620007688462000567565b62000749565b62000567565b9050919050565b6000819050919050565b620007908362000753565b620007a86200079f826200077b565b848454620006f3565b825550505050565b600090565b620007bf620007b0565b620007cc81848462000785565b505050565b5b81811015620007f457620007e8600082620007b5565b600181019050620007d2565b5050565b601f82111562000843576200080d81620006c1565b6200081884620006d6565b8101602085101562000828578190505b620008406200083785620006d6565b830182620007d1565b50505b505050565b600082821c905092915050565b6000620008686000198460080262000848565b1980831691505092915050565b600062000883838362000855565b9150826002028217905092915050565b6200089e8262000652565b67ffffffffffffffff811115620008ba57620008b9620003c5565b5b620008c682546200068c565b620008d3828285620007f8565b600060209050601f8311600181146200090b5760008415620008f6578287015190505b62000902858262000875565b86555062000972565b601f1984166200091b86620006c1565b60005b8281101562000945578489015182556001820191506020850194506020810190506200091e565b8683101562000965578489015162000961601f89168262000855565b8355505b6001600288020188555050505b505050505050565b7f4e487b7100000000000000000000000000000000000000000000000000000000600052601160045260246000fd5b60008160011c9050919050565b6000808291508390505b600185111562000a0857808604811115620009e057620009df6200097a565b5b6001851615620009f05780820291505b808102905062000a0085620009a9565b9450620009c0565b94509492505050565b60008262000a23576001905062000af6565b8162000a33576000905062000af6565b816001811462000a4c576002811462000a575762000a8d565b600191505062000af6565b60ff84111562000a6c5762000a6b6200097a565b5b8360020a91508482111562000a865762000a856200097a565b5b5062000af6565b5060208310610133831016604e8410600b841016171562000ac75782820a90508381111562000ac15762000ac06200097a565b5b62000af6565b62000ad68484846001620009b6565b9250905081840481111562000af05762000aef6200097a565b5b81810290505b9392505050565b600062000b0a8262000567565b915062000b178362000567565b925062000b467fffffffffffffffffffffffffffffffffffffffffffffffffffffffffffffffff848462000a11565b905092915050565b600062000b5b8262000567565b915062000b688362000567565b925082820262000b788162000567565b9150828204841483151762000b925762000b916200097a565b5b5092915050565b600073ffffffffffffffffffffffffffffffffffffffff82169050919050565b600062000bc68262000b99565b9050919050565b62000bd88162000bb9565b82525050565b600060208201905062000bf5600083018462000bcd565b92915050565b600062000c088262000567565b915062000c158362000567565b925082820190508082111562000c305762000c2f6200097a565b5b92915050565b62000c418162000567565b82525050565b600060608201905062000c5e600083018662000bcd565b62000c6d602083018562000c36565b62000c7c604083018462000c36565b949350505050565b600060208201905062000c9b600083018462000c36565b92915050565b610e928062000cb16000396000f3fe608060405234801561001057600080fd5b506004361061009e5760003560e01c8063313ce56711610066578063313ce5671461015d57806370a082311461017b57806395d89b41146101ab578063a9059cbb146101c9578063dd62ed3e146101f95761009e565b806306fdde03146100a3578063095ea7b3146100c157806318160ddd146100f157806323b872dd1461010f5780632ff2e9dc1461013f575b600080fd5b6100ab610229565b6040516100b89190610ae6565b60405180910390f35b6100db60048036038101906100d69190610ba1565b6102bb565b6040516100e89190610bfc565b60405180910390f35b6100f96102de565b6040516101069190610c26565b60405180910390f35b61012960048036038101906101249190610c41565b6102e8565b6040516101369190610bfc565b60405180910390f35b610147610317565b6040516101549190610c26565b60405180910390f35b61016561031d565b6040516101729190610cb0565b60405180910390f35b61019560048036038101906101909190610ccb565b610334565b6040516101a29190610c26565b60405180910390f35b6101b361037c565b6040516101c09190610ae6565b60405180910390f35b6101e360048036038101906101de9190610ba1565b61040e565b6040516101f09190610bfc565b60405180910390f35b610213600480360381019061020e9190610cf8565b610431565b6040516102209190610c26565b60405180910390f35b60606003805461023890610d67565b80601f016020809104026020016040519081016040528092919081815260200182805461026490610d67565b80156102b15780601f10610286576101008083540402835291602001916102b1565b820191906000526020600020905b81548152906001019060200180831161029457829003601f168201915b5050505050905090565b6000806102c66104b8565b90506102d38185856104c0565b600191505092915050565b6000600254905090565b6000806102f36104b8565b90506103008582856104d2565b61030b858585610566565b60019150509392505050565b60065481565b6000600560009054906101000a900460ff16905090565b60008060008373ffffffffffffffffffffffffffffffffffffffff1673ffffffffffffffffffffffffffffffffffffffff168152602001908152602001600020549050919050565b60606004805461038b90610d67565b80601f01602080910402602001604051908101604052809291908181526020018280546103b790610d67565b80156104045780601f106103d957610100808354040283529160200191610404565b820191906000526020600020905b8154815290600101906020018083116103e757829003601f168201915b5050505050905090565b6000806104196104b8565b9050610426818585610566565b600191505092915050565b6000600160008473ffffffffffffffffffffffffffffffffffffffff1673ffffffffffffffffffffffffffffffffffffffff16815260200190815260200160002060008373ffffffffffffffffffffffffffffffffffffffff1673ffffffffffffffffffffffffffffffffffffffff16815260200190815260200160002054905092915050565b600033905090565b6104cd838383600161065a565b505050565b60006104de8484610431565b90507fffffffffffffffffffffffffffffffffffffffffffffffffffffffffffffffff81146105605781811015610550578281836040517ffb8f41b200000000000000000000000000000000000000000000000000000000815260040161054793929190610da7565b60405180910390fd5b61055f8484848403600061065a565b5b50505050565b600073ffffffffffffffffffffffffffffffffffffffff168373ffffffffffffffffffffffffffffffffffffffff16036105d85760006040517f96c6fd1e0000000000000000000000000000000000000000000000000000000081526004016105cf9190610dde565b60405180910390fd5b600073ffffffffffffffffffffffffffffffffffffffff168273ffffffffffffffffffffffffffffffffffffffff160361064a5760006040517fec442f050000000000000000000000000000000000000000000000000000000081526004016106419190610dde565b60405180910390fd5b610655838383610831565b505050565b600073ffffffffffffffffffffffffffffffffffffffff168473ffffffffffffffffffffffffffffffffffffffff16036106cc5760006040517fe602df050000000000000000000000000000000000000000000000000000000081526004016106c39190610dde565b60405180910390fd5b600073ffffffffffffffffffffffffffffffffffffffff168373ffffffffffffffffffffffffffffffffffffffff160361073e5760006040517f94280d620000000000000000000000000000000000000000000000000000000081526004016107359190610dde565b60405180910390fd5b81600160008673ffffffffffffffffffffffffffffffffffffffff1673ffffffffffffffffffffffffffffffffffffffff16815260200190815260200160002060008573ffffffffffffffffffffffffffffffffffffffff1673ffffffffffffffffffffffffffffffffffffffff16815260200190815260200160002081905550801561082b578273ffffffffffffffffffffffffffffffffffffffff168473ffffffffffffffffffffffffffffffffffffffff167f8c5be1e5ebec7d5bd14f71427d1e84f3dd0314c0f7b2291e5b200ac8c7c3b925846040516108229190610c26565b60405180910390a35b50505050565b600073ffffffffffffffffffffffffffffffffffffffff168373ffffffffffffffffffffffffffffffffffffffff16036108835780600260008282546108779190610e28565b92505081905550610956565b60008060008573ffffffffffffffffffffffffffffffffffffffff1673ffffffffffffffffffffffffffffffffffffffff1681526020019081526020016000205490508181101561090f578381836040517fe450d38c00000000000000000000000000000000000000000000000000000000815260040161090693929190610da7565b60405180910390fd5b8181036000808673ffffffffffffffffffffffffffffffffffffffff1673ffffffffffffffffffffffffffffffffffffffff16815260200190815260200160002081905550505b600073ffffffffffffffffffffffffffffffffffffffff168273ffffffffffffffffffffffffffffffffffffffff160361099f57806002600082825403925050819055506109ec565b806000808473ffffffffffffffffffffffffffffffffffffffff1673ffffffffffffffffffffffffffffffffffffffff168152602001908152602001600020600082825401925050819055505b8173ffffffffffffffffffffffffffffffffffffffff168373ffffffffffffffffffffffffffffffffffffffff167fddf252ad1be2c89b69c2b068fc378daa952ba7f163c4a11628f55a4df523b3ef83604051610a499190610c26565b60405180910390a3505050565b600081519050919050565b600082825260208201905092915050565b60005b83811015610a90578082015181840152602081019050610a75565b60008484015250505050565b6000601f19601f8301169050919050565b6000610ab882610a56565b610ac28185610a61565b9350610ad2818560208601610a72565b610adb81610a9c565b840191505092915050565b60006020820190508181036000830152610b008184610aad565b905092915050565b600080fd5b600073ffffffffffffffffffffffffffffffffffffffff82169050919050565b6000610b3882610b0d565b9050919050565b610b4881610b2d565b8114610b5357600080fd5b50565b600081359050610b6581610b3f565b92915050565b6000819050919050565b610b7e81610b6b565b8114610b8957600080fd5b50565b600081359050610b9b81610b75565b92915050565b60008060408385031215610bb857610bb7610b08565b5b6000610bc685828601610b56565b9250506020610bd785828601610b8c565b9150509250929050565b60008115159050919050565b610bf681610be1565b82525050565b6000602082019050610c116000830184610bed565b92915050565b610c2081610b6b565b82525050565b6000602082019050610c3b6000830184610c17565b92915050565b600080600060608486031215610c5a57610c59610b08565b5b6000610c6886828701610b56565b9350506020610c7986828701610b56565b9250506040610c8a86828701610b8c565b9150509250925092565b600060ff82169050919050565b610caa81610c94565b82525050565b6000602082019050610cc56000830184610ca1565b92915050565b600060208284031215610ce157610ce0610b08565b5b6000610cef84828501610b56565b91505092915050565b60008060408385031215610d0f57610d0e610b08565b5b6000610d1d85828601610b56565b9250506020610d2e85828601610b56565b9150509250929050565b7f4e487b7100000000000000000000000000000000000000000000000000000000600052602260045260246000fd5b60006002820490506001821680610d7f57607f821691505b602082108103610d9257610d91610d38565b5b50919050565b610da181610b2d565b82525050565b6000606082019050610dbc6000830186610d98565b610dc96020830185610c17565b610dd66040830184610c17565b949350505050565b6000602082019050610df36000830184610d98565b92915050565b7f4e487b7100000000000000000000000000000000000000000000000000000000600052601160045260246000fd5b6000610e3382610b6b565b9150610e3e83610b6b565b9250828201905080821115610e5657610e55610df9565b5b9291505056fea264697066735822122077ab2a794349e6492c78afb526087a0e8374e1f16fd6409aeb4387e7574d27af64736f6c63430008180033",
  "linkReferences": {},
  "deployedLinkReferences": {}
}