{
  "_format": "hh-sol-artifact-1",
  "contractName": "SmartWallet",
  "sourceName": "contracts/ERC721/SmartWallet.sol",
  "abi": [
    {
      "inputs": [
        {
          "internalType": "address",
          "name": "initialOwner",
          "type": "address"
        }
      ],
      "stateMutability": "nonpayable",
      "type": "constructor"
    },
    {
      "inputs": [],
      "name": "ECDSAInvalidSignature",
      "type": "error"
    },
    {
      "inputs": [
        {
          "internalType": "uint256",
          "name": "length",
          "type": "uint256"
        }
      ],
      "name": "ECDSAInvalidSignatureLength",
      "type": "error"
    },
    {
      "inputs": [
        {
          "internalType": "bytes32",
          "name": "s",
          "type": "bytes32"
        }
      ],
      "name": "ECDSAInvalidSignatureS",
      "type": "error"
    },
    {
      "inputs": [
        {
          "internalType": "address",
          "name": "owner",
          "type": "address"
        }
      ],
      "name": "OwnableInvalidOwner",
      "type": "error"
    },
    {
      "inputs": [
        {
          "internalType": "address",
          "name": "account",
          "type": "address"
        }
      ],
      "name": "OwnableUnauthorizedAccount",
      "type": "error"
    },
    {
      "anonymous": false,
      "inputs": [
        {
          "indexed": true,
          "internalType": "address",
          "name": "previousOwner",
          "type": "address"
        },
        {
          "indexed": true,
          "internalType": "address",
          "name": "newOwner",
          "type": "address"
        }
      ],
      "name": "OwnershipTransferred",
      "type": "event"
    },
    {
      "inputs": [
        {
          "internalType": "address",
          "name": "target",
          "type": "address"
        },
        {
          "internalType": "uint256",
          "name": "value",
          "type": "uint256"
        },
        {
          "internalType": "bytes",
          "name": "data",
          "type": "bytes"
        }
      ],
      "name": "execute",
      "outputs": [
        {
          "internalType": "bytes",
          "name": "",
          "type": "bytes"
        }
      ],
      "stateMutability": "nonpayable",
      "type": "function"
    },
    {
      "inputs": [
        {
          "internalType": "bytes32",
          "name": "hash",
          "type": "bytes32"
        },
        {
          "internalType": "bytes",
          "name": "signature",
          "type": "bytes"
        }
      ],
      "name": "isValidSignature",
      "outputs": [
        {
          "internalType": "bytes4",
          "name": "magicValue",
          "type": "bytes4"
        }
      ],
      "stateMutability": "view",
      "type": "function"
    },
    {
      "inputs": [],
      "name": "owner",
      "outputs": [
        {
          "internalType": "address",
          "name": "",
          "type": "address"
        }
      ],
      "stateMutability": "view",
      "type": "function"
    },
    {
      "inputs": [],
      "name": "renounceOwnership",
      "outputs": [],
      "stateMutability": "nonpayable",
      "type": "function"
    },
    {
      "inputs": [
        {
          "internalType": "address",
          "name": "newOwner",
          "type": "address"
        }
      ],
      "name": "transferOwnership",
      "outputs": [],
      "stateMutability": "nonpayable",
      "type": "function"
    }
  ],
  "bytecode": "0x60806040523480156200001157600080fd5b5060405162000eee38038062000eee8339818101604052810190620000379190620001f4565b80600073ffffffffffffffffffffffffffffffffffffffff168173ffffffffffffffffffffffffffffffffffffffff1603620000ad5760006040517f1e4fbdf7000000000000000000000000000000000000000000000000000000008152600401620000a4919062000237565b60405180910390fd5b620000be81620000c660201b60201c565b505062000254565b60008060009054906101000a900473ffffffffffffffffffffffffffffffffffffffff169050816000806101000a81548173ffffffffffffffffffffffffffffffffffffffff021916908373ffffffffffffffffffffffffffffffffffffffff1602179055508173ffffffffffffffffffffffffffffffffffffffff168173ffffffffffffffffffffffffffffffffffffffff167f8be0079c531659141344cd1fd0a4f28419497f9722a3daafe3b4186f6b6457e060405160405180910390a35050565b600080fd5b600073ffffffffffffffffffffffffffffffffffffffff82169050919050565b6000620001bc826200018f565b9050919050565b620001ce81620001af565b8114620001da57600080fd5b50565b600081519050620001ee81620001c3565b92915050565b6000602082840312156200020d576200020c6200018a565b5b60006200021d84828501620001dd565b91505092915050565b6200023181620001af565b82525050565b60006020820190506200024e600083018462000226565b92915050565b610c8a80620002646000396000f3fe608060405234801561001057600080fd5b50600436106100575760003560e01c80631626ba7e1461005c578063715018a61461008c5780638da5cb5b14610096578063b61d27f6146100b4578063f2fde38b146100e4575b600080fd5b61007660048036038101906100719190610870565b610100565b6040516100839190610907565b60405180910390f35b61009461015a565b005b61009e61016e565b6040516100ab9190610963565b60405180910390f35b6100ce60048036038101906100c991906109e0565b610197565b6040516100db9190610ace565b60405180910390f35b6100fe60048036038101906100f99190610af0565b610227565b005b600061010c83836102ad565b73ffffffffffffffffffffffffffffffffffffffff1661012a61016e565b73ffffffffffffffffffffffffffffffffffffffff161461014a57600080fd5b631626ba7e60e01b905092915050565b6101626102d9565b61016c6000610360565b565b60008060009054906101000a900473ffffffffffffffffffffffffffffffffffffffff16905090565b60606101a16102d9565b6000808573ffffffffffffffffffffffffffffffffffffffff1685856040516101ca9190610b59565b60006040518083038185875af1925050503d8060008114610207576040519150601f19603f3d011682016040523d82523d6000602084013e61020c565b606091505b50915091508161021b57600080fd5b80925050509392505050565b61022f6102d9565b600073ffffffffffffffffffffffffffffffffffffffff168173ffffffffffffffffffffffffffffffffffffffff16036102a15760006040517f1e4fbdf70000000000000000000000000000000000000000000000000000000081526004016102989190610963565b60405180910390fd5b6102aa81610360565b50565b6000806000806102bd8686610424565b9250925092506102cd8282610480565b82935050505092915050565b6102e16105e4565b73ffffffffffffffffffffffffffffffffffffffff166102ff61016e565b73ffffffffffffffffffffffffffffffffffffffff161461035e576103226105e4565b6040517f118cdaa70000000000000000000000000000000000000000000000000000000081526004016103559190610963565b60405180910390fd5b565b60008060009054906101000a900473ffffffffffffffffffffffffffffffffffffffff169050816000806101000a81548173ffffffffffffffffffffffffffffffffffffffff021916908373ffffffffffffffffffffffffffffffffffffffff1602179055508173ffffffffffffffffffffffffffffffffffffffff168173ffffffffffffffffffffffffffffffffffffffff167f8be0079c531659141344cd1fd0a4f28419497f9722a3daafe3b4186f6b6457e060405160405180910390a35050565b600080600060418451036104695760008060006020870151925060408701519150606087015160001a905061045b888285856105ec565b955095509550505050610479565b60006002855160001b9250925092505b9250925092565b6000600381111561049457610493610b70565b5b8260038111156104a7576104a6610b70565b5b03156105e057600160038111156104c1576104c0610b70565b5b8260038111156104d4576104d3610b70565b5b0361050b576040517ff645eedf00000000000000000000000000000000000000000000000000000000815260040160405180910390fd5b6002600381111561051f5761051e610b70565b5b82600381111561053257610531610b70565b5b03610577578060001c6040517ffce698f700000000000000000000000000000000000000000000000000000000815260040161056e9190610bae565b60405180910390fd5b60038081111561058a57610589610b70565b5b82600381111561059d5761059c610b70565b5b036105df57806040517fd78bce0c0000000000000000000000000000000000000000000000000000000081526004016105d69190610bd8565b60405180910390fd5b5b5050565b600033905090565b60008060007f7fffffffffffffffffffffffffffffff5d576e7357a4501ddfe92f46681b20a08460001c111561062c5760006003859250925092506106d6565b6000600188888888604051600081526020016040526040516106519493929190610c0f565b6020604051602081039080840390855afa158015610673573d6000803e3d6000fd5b505050602060405103519050600073ffffffffffffffffffffffffffffffffffffffff168173ffffffffffffffffffffffffffffffffffffffff16036106c757600060016000801b935093509350506106d6565b8060008060001b935093509350505b9450945094915050565b6000604051905090565b600080fd5b600080fd5b6000819050919050565b610707816106f4565b811461071257600080fd5b50565b600081359050610724816106fe565b92915050565b600080fd5b600080fd5b6000601f19601f8301169050919050565b7f4e487b7100000000000000000000000000000000000000000000000000000000600052604160045260246000fd5b61077d82610734565b810181811067ffffffffffffffff8211171561079c5761079b610745565b5b80604052505050565b60006107af6106e0565b90506107bb8282610774565b919050565b600067ffffffffffffffff8211156107db576107da610745565b5b6107e482610734565b9050602081019050919050565b82818337600083830152505050565b600061081361080e846107c0565b6107a5565b90508281526020810184848401111561082f5761082e61072f565b5b61083a8482856107f1565b509392505050565b600082601f8301126108575761085661072a565b5b8135610867848260208601610800565b91505092915050565b60008060408385031215610887576108866106ea565b5b600061089585828601610715565b925050602083013567ffffffffffffffff8111156108b6576108b56106ef565b5b6108c285828601610842565b9150509250929050565b60007fffffffff0000000000000000000000000000000000000000000000000000000082169050919050565b610901816108cc565b82525050565b600060208201905061091c60008301846108f8565b92915050565b600073ffffffffffffffffffffffffffffffffffffffff82169050919050565b600061094d82610922565b9050919050565b61095d81610942565b82525050565b60006020820190506109786000830184610954565b92915050565b61098781610942565b811461099257600080fd5b50565b6000813590506109a48161097e565b92915050565b6000819050919050565b6109bd816109aa565b81146109c857600080fd5b50565b6000813590506109da816109b4565b92915050565b6000806000606084860312156109f9576109f86106ea565b5b6000610a0786828701610995565b9350506020610a18868287016109cb565b925050604084013567ffffffffffffffff811115610a3957610a386106ef565b5b610a4586828701610842565b9150509250925092565b600081519050919050565b600082825260208201905092915050565b60005b83811015610a89578082015181840152602081019050610a6e565b60008484015250505050565b6000610aa082610a4f565b610aaa8185610a5a565b9350610aba818560208601610a6b565b610ac381610734565b840191505092915050565b60006020820190508181036000830152610ae88184610a95565b905092915050565b600060208284031215610b0657610b056106ea565b5b6000610b1484828501610995565b91505092915050565b600081905092915050565b6000610b3382610a4f565b610b3d8185610b1d565b9350610b4d818560208601610a6b565b80840191505092915050565b6000610b658284610b28565b915081905092915050565b7f4e487b7100000000000000000000000000000000000000000000000000000000600052602160045260246000fd5b610ba8816109aa565b82525050565b6000602082019050610bc36000830184610b9f565b92915050565b610bd2816106f4565b82525050565b6000602082019050610bed6000830184610bc9565b92915050565b600060ff82169050919050565b610c0981610bf3565b82525050565b6000608082019050610c246000830187610bc9565b610c316020830186610c00565b610c3e6040830185610bc9565b610c4b6060830184610bc9565b9594505050505056fea2646970667358221220834feeb80e33a26733523ecd8d8bac2c08888d5c6011715496521756d651a20364736f6c63430008180033",
  "linkReferences": {},
  "deployedLinkReferences": {}
}